:020000040000FA
:10000000021023A2029290A2029280AD40AC3F7FE8
:100010000A7E0012002E12001DA202B322E59120DA
:10002000E2FB22020EDA7597A522220212FB8E4114
:100030008F428C438D44121514121766E54424BF79
:100040009000E4F0E54334FF9000E3F09000DFE53A
:1000500041F0A3E542F043910422220210B21217AC
:10006000FA53D87853DAFE1217CBE4900082F022CC
:10007000D2DE2202134E121680C290C296C280E4D3
:10008000FBFD7F101217B21215D1D2AF1216F5D2A6
:10009000969000E7E004F070069000E6E004F0902F
:1000A00000E6E0B427E9A3E0B410E4C2961200260B
:1000B0003003091214898E228F2380067522017560
:1000C0002300E5237004E522640170469000DAE025
:1000D00070061216F60202739000E6E475F0011243
:1000E00007F8FED3E5F09410EE94274002D296D3A1
:1000F0009000E7E094309000E6E09475500302022F
:1001000073E4F0A3F09000DAF0900095F0C296024C
:1001100002731216F59000DAE014602A14700302DC
:1001200002301470030201EE14700302020724046B
:100130006003020273E52364AA6003020273900065
:10014000DA04F00202739000DA7402F0E523120977
:100150002001E5A00176A10178A50194A6019CA744
:1001600001A9A801C2A901AFB001B7B10189C001BD
:10017000E5FF000001D7804A12052B9000E57408C6
:10018000F0E4F525752409805C12052BE4F525754E
:100190002402805112054E74A6F0804912054E7457
:1001A000A4F0752200F523803C9000E57408F090DF
:1001B00000DA7403F0802E1215D19000EA74B1F0C9
:1001C00080237D3212050E1215D17D307C757F01A2
:1001D0007E00121657800E900095E0752200F523E0
:1001E000E49000DAF0E523900095F0020273E4F564
:1001F00025E523F524E524D39400402C12005E90DD
:1002000000DA7404F0806C74032525F582E4340070
:10021000F583E523F00525E525B52402800AE525CB
:10022000C39470404E7524709000DA7402F08043DD
:10023000E5236455703D9000DAF0C203900095E02C
:100240002460601F24FC601224FE600E14600B24E6
:10025000F76017146004241070197FA012174DD294
:1002600003801012051FD2038009900004E004905F
:1002700000E5F0900095E0120920029CA10312A471
:100280000369A50312A6042EA8029CA90463B00466
:10029000CCB10410C00429FF000000AD900081E043
:1002A00030E7357DC812050E900095E02457600EAA
:1002B0002408701A12051F7FA31214CF8010121584
:1002C000D19000EAE0900095F07FAB12055DE490DC
:1002D0000081F0D2030200AD1217C350207DE87CEC
:1002E0000312053F900095E02457600C240860033A
:1002F0000200AD7FA20204BE7FAA0204BE12055511
:1003000040030200AD900095E07F01B4A1027F00A0
:100310008039900081E030E71F900095E0245A601A
:100320000F240260030204D87FA41214CF0204D861
:100330007FA612055D0204D812055540030200ADE8
:10034000900095E07F01B4A4027F00C0079000E810
:10035000E0FEA3E0FFEE547FFCAD07EE1216FD9227
:1003600000D0071209720200AD9000DAE0600302CB
:1003700000AD121708700302040324036003020097
:10038000AD120535900005E0FFA3E0900085CFF0A9
:10039000A3EFF0900007E0FFA3E0900087CFF0A369
:1003A000EFF0900003E0FFA3E0900089CFF0A3EF0F
:1003B000F07B017A0079859018E6E493FC74019350
:1003C000FD9018E8E493F52E1216ED8E2FF530907F
:1003D00018EBE493F5311216ED8E32F5339018EEEA
:1003E000E493F5341216ED8E35F5369018F1E4935A
:1003F000F537A3E493F538753900753A09120DEF16
:100400000200AD9000E5E07058C2807FA00204BEFB
:100410009000DAE060030200AD900003E0FCA3E08E
:10042000FD12053F7FA00204BE7F030204BE9000C0
:10043000DAE060030200AD121708601924036003BC
:100440000200AD120535900003E0FF7C007D041230
:1004500012240200AD9000E5E07006C2807FA0800B
:100460005D80619000DAE060030200AD1217086061
:1004700043240360030200AD9000E5E014F0120095
:100480005E7E007F05C006C007900003E0FB25E00C
:10049000FFE433FE74052FF58274003EAD82FCEB61
:1004A00025E0FFE52424FEC39FFBD007D006120FF2
:1004B000820200AD9000E5E0700AC2807FA01217B2
:1004C0003C0200ADE4900082F00200AD900081E0BB
:1004D00030E70D7FB1121292E4900081F00200AD7E
:1004E0007E007FE81213F040030200AD9000E8E0C8
:1004F000FCA3E0FDEC547FFEAF05C006C007EC1284
:1005000016FD9200D007D006120CE40200AD7C006C
:100510007F017E00121657D29612001DC29622123B
:1005200015D19000EAE0900095F02212005E900054
:10053000DA7404F0229000E5E014F012005E227FED
:10054000017E00121657D29612001DC29622121575
:10055000D19000EA227E007FE81213F02290008101
:10056000E0547FFD12143E228F29E4F536EF25E09A
:1005700025E02468F8E6701EEF25E025E02469F800
:1005800076087E007F707D007B017A007903120976
:1005900046E4900077F0AB2CAA2DA92EC001120BD7
:1005A000552466F9E7540F120C73120B74D0011224
:1005B00013A1503D120B552466F9E7540FFF120C9E
:1005C00073120C60300101B34031EF700A90007576
:1005D000E52AF0A3E52BF0120B55120C7F2401FF46
:1005E000EFFEEC54F04EFEEDFF120B55120C6A803C
:1005F0000A120B552466F874F056F6AB2CAA2DA9F6
:100600002EC001120B55120C8B120BBF120C97123D
:100610000B74D0011213A15052120B55120C8B12F5
:100620000BBFFF120C975408FE120C62300101B38D
:100630004043EF700A900083E52AF0A3E52BF01207
:100640000B55120BB02401FFE433FEEFC4F8540F36
:10065000C868FFEEC454F048FEED540FFDEC4EFEAA
:10066000ED4FFF120B55120C6A800A120B552467CE
:10067000F8740F56F6120B55120C7FFB700F120B0D
:10068000B8700A120B3B2469F8E4F6C322120B552A
:100690002468F8E53514667003753601C3E53195B5
:1006A000366B7020D290120B552466F874F056F613
:1006B000740F0856120B542468F806120B5524695F
:1006C000F816804C120B55120BB0FFC3E53495366B
:1006D0006F703DD290120B552466F8EC54F0FEED8D
:1006E000540FA60608120B542468F806120B552462
:1006F00069F816120B55120BD3E0FF120B55246943
:10070000F8E6FE7401A806088002C333D8FC4FF057
:10071000120B552469F8E6701B120B55120BD3E02F
:10072000FF900077E06FFF12170FEFF0120B5524C8
:1007300069F87608120B552468F8E6C39535403DF4
:100740001217BB5005E4900080F0900080E0FF900D
:100750000077E06F601D1217CB7D207C037F017E48
:100760000012162E900077E0900080F0A3E529F0AB
:100770004480F0120B3B2469F8E4F6D322C322BB79
:10078000010689828A83F0225002F722BBFE01F320
:1007900022EF8DF0A4A8F0CF8CF0A428CE8DF0A489
:1007A0002EFE22BC000BBE0029EF8DF084FFADF0C1
:1007B00022E4CCF875F008EF2FFFEE33FEEC33FCAB
:1007C000EE9DEC984005FCEE9DFE0FD5F0E9E4CEE1
:1007D000FD22EDF8F5F0EE8420D21CFEADF075F0B0
:1007E00008EF2FFFED33FD4007985006D5F0F222B9
:1007F000C398FD0FD5F0EA22C5F0F8A3E028F0C5B4
:10080000F0F8E582158270021583E038F022BB0112
:1008100010E58229F582E5833AF583E0F5F0A3E05F
:10082000225009E92582F886F008E622BBFE0AE993
:100830002582F8E2F5F008E222E5832AF583E993C0
:10084000F5F0A3E9932275F008758200EF2FFFEE13
:1008500033FECD33CDCC33CCC58233C5829BED9AEC
:10086000EC99E58298400CF582EE9BFEED9AFDEC4A
:1008700099FC0FD5F0D6E4CEFBE4CDFAE4CCF9A890
:100880008222B800C1B90059BA002DEC8BF084CF98
:10089000CECDFCE5F0CBF97818EF2FFFEE33FEED6F
:1008A00033FDEC33FCEB33FB10D703994004EB9999
:1008B000FB0FD8E5E4F9FA227818EF2FFFEE33FEAC
:1008C000ED33FDEC33FCC933C910D7059BE99A40E1
:1008D00007EC9BFCE99AF90FD8E0E4C9FAE4CCFBF9
:1008E0002275F010EF2FFFEE33FEED33FDCC33CC4D
:1008F000C833C810D7079BEC9AE899400AED9BFDD6
:10090000EC9AFCE899F80FD5F0DAE4CDFBE4CCFAE8
:10091000E4C8F922A42582F582E5F03583F5832227
:10092000D083D082F8E4937012740193700DA3A366
:1009300093F8740193F5828883E47374029368607A
:10094000EFA3A3A380DFEF4E6012EF60010EEDBBBB
:10095000010B89828A83F0A3DFFCDEFA2289F05042
:1009600007F709DFFCA9F022BBFEFCF309DFFCA9B5
:10097000F0228C268D27E4F528C3E5279464E5262C
:1009800094005017E4F528E528120B802469F8E458
:10099000F60528E528B40FEFC29022EF1470030289
:1009A0000A5D046003020B3A7866E6C4540FF970DE
:1009B00065D3E5279494E52694115003020B3A3051
:1009C0000003020B3AE9120C0DE6540FFC08E6FD99
:1009D000EC4E18F6ED08F618120C04EC540F4E18F5
:1009E000F6ED08F6900001E526F0A3E527F0AE2627
:1009F000FF7C007D1F1207A3900085EEF0A3EFF0AF
:100A00007C007D03120791A3EEF0A3EFF0A3E5268F
:100A1000F0A3E527F0227866E6C4540F6402600371
:100A2000020B3A120CAF752C01752D00752E8590B6
:100A30001AAF93FE7401938E2FF530901AB1E493A0
:100A4000F531A3120BA98E32F533901AB4E493F565
:100A500034901AB8E493F535E4FF020568E4F5280C
:100A6000120B96120CD0FFE528120C24F9EFC39953
:100A7000506EE528120BE7F5828C832FF582E43562
:100A800083F583E493FF120C60300001B35003023E
:100A90000B2EE528C454F024A9F582E4341A120B75
:100AA000F1F5828C83EF540775F002120914120BD2
:100AB000F3FDAF27AE261213ABE528501925E0252C
:100AC000E02466F8120C04EC540F4EFEEDFF120BFE
:100AD00096120C6A8058120B802469F8E4F6804E56
:100AE000120B96120CD0697045120CAFE528120B50
:100AF0009DAA06752CFF8A2DF52EE528120CBA1238
:100B00000BA78E2FF530E528120C33F531E52812AE
:100B10000CC5120BA78E32F533E528120C42F534C2
:100B2000E528120C51F535AF28120568400C052850
:100B3000E528C3940F5003020A6022C290E52925DC
:100B4000E025E02466F8E4F608F6E52925E025E04E
:100B50002468F8E4F6E52925E025E022F583E4930E
:100B6000FF5408FE131313541F24FF9202AB29AA4B
:100B70002AA92BEF540775F002A4F58285F0832291
:100B800025E025E02466F8E4F608F6E52825E025CA
:100B9000E02468F8E4F6E52825E025E022C454F0D6
:100BA00024A9F582E4341AF583E493FE74019322B8
:100BB0002466F8E6FC08E6FDECC4F854F0C8EDC481
:100BC000540F48540F22E529252BF582E43528F5EA
:100BD00083E0222468F8E614131313541F2403F54A
:100BE00082E43400F58322C454F024ACF582E4346A
:100BF0001AF583E493FC74019322A3F0900074E04F
:100C0000C4540F22E6FC08E6FDECC4540F2401FF97
:100C1000EFC454F0FE22E52E25E02485F582E4346D
:100C200000F58322C454F024AEF582E4341AF5832F
:100C3000E49322C454F024B1F582E4341AF583E439
:100C40009322C454F024B4F582E4341AF583E49377
:100C500022C454F024B8F582E4341AF583E49322D4
:100C60005408131313541F24FF222466F8A6060801
:100C7000A607222530F582E4352FF583E49322245C
:100C800066F8E6FC08E6FDEC540F222466F9E7C49A
:100C9000F854F0C809E7222533F582E43532F583AC
:100CA000E4932225E02478F582E43400F58322A23F
:100CB00000920185262A85272B22C454F024AFF503
:100CC00082E4341A22C454F024B2F582E4341A22A5
:100CD0002466F8E6FEEEC4540F22C454F0FFE0543C
:100CE0000F4FF0228E268F27900082E024FE604175
:100CF00024026003020DEEC290200003020DEEC339
:100D0000E527942CE52694015003020DEE90008512
:100D1000E526F0A3E527F09000007401F0E49000D0
:100D200073F0C2049000037480F09000827402F0AB
:100D300022C3E5279464E52694005003020DDC905D
:100D40000073E0C394084002D2907B007A007928B7
:100D5000AF27AE26121137401E900000E0FF940826
:100D600040028078EF120C18E526F0A3E527F08FFB
:100D700028900000E004F030042A900073E0FFC3E4
:100D8000947040028056A200E433C433333354805D
:100D9000FEE528C454F04EFE74032F120BDFEEF074
:100DA000C2048020900073E0120BDDE0FFA200E49B
:100DB0003333333354F84528FEEF4EF0900073E0A0
:100DC00004F0D204200027C3E52794E0E526942E02
:100DD000401C900073E094085008C290E490008298
:100DE000F022900081E04480F0C290E4A3F0228BD6
:100DF000298A2A892B8C2C8D2DE4F53D753E80F5B2
:100E00003BE53BC3952E5010E52D253BF582E4359F
:100E10002C120E9F053B80E9E4F53BE53BC395387A
:100E20005057E53A253DF582E43539F583E0553EE6
:100E30007019F53CE53CC39531502DE530253CF566
:100E400082E4352F120E9F053C80E9E4F53CE53C39
:100E5000C395345013E533253CF582E43532120B4B
:100E60005C120ECE053C80E6E53EC313F53E7005F0
:100E7000053D753E80053B80A2E4F53BE53BC3950F
:100E8000375013E536253BF582E43535120B5C12FD
:100E90000ECE053B80E6C2909000827403F022F5EE
:100EA00083E493FF5408FE131313541F24FF92028C
:100EB000AB29AA2AA92BEF540775F002A4F5828565
:100EC000F08312080EF54085F03F1200032212084D
:100ED0000EF54085F03F12000322C0E0C0F0C08351
:100EE000C082C0D075D000C000C001C002C003C025
:100EF00004C005C006C007E5985403F545F45298B0
:100F0000E54530E02F9000D9E0C3944050261218F8
:100F1000039000D9121623EFF09000D9E004F0E01E
:100F2000B44002E4F09000D7E0FF9000D9E0B507AC
:100F3000037440F0E54530E12E9000DCE0D39400EE
:100F4000401A9000D8E02446F8E6FF1218009000FE
:100F5000D8E004F09000DCE014F08002D2059000AC
:100F6000D8E0B42002E4F0D007D006D005D004D0F9
:100F700003D002D001D000D0D0D082D083D0F0D026
:100F8000E0328E268F278C288D298B2AD200C20131
:100F9000852982852883E05488D394004003D38038
:100FA00001C39201E4F52BE52BC3952A505930017A
:100FB0000D120BC6C4131313540124FF8002A200A8
:100FC0009202852782852683C083C082120BC6FFCA
:100FD000C45407D082D08312101030010C120BC6FB
:100FE000FF131313541F138002A20092028527825D
:100FF000852683C083C082120BC65407D082D0835B
:10100000121010052B80A0C2909000827403F02271
:1010100075F002120914E0F53FA3E0F54012000359
:1010200092002212005A787FE4F6D8FD7581A10261
:10103000106D020076E493A3F8E493A34003F680D6
:1010400001F208DFF48029E493A3F85407240CC8C4
:10105000C333C4540F4420C8834004F4568001466F
:10106000F6DFE4800B01020408102040809011AFED
:10107000E47E019360BCA3FF543F30E509541FFE9A
:10108000E493A360010ECF54C025E060A840B8E40B
:1010900093A3FAE493A3F8E493A3C8C582C8CAC58E
:1010A00083CAF0A3C8C582C8CAC583CADFE9DEE720
:1010B00080BEC0E0C0F0C083C082C0D075D000C088
:1010C00000C001C002C003C004C005C006C007E5DF
:1010D000D85487F521F452D8E5F730E508E5F73024
:1010E000E60312180A53F7DFE52130E708E5D930A7
:1010F000E003121809E52130E008E5DA30E00312D8
:101100001558E52130E108E5DB30E00312180BE566
:101110002130E208E5DC30E00312180CD007D006DD
:10112000D005D004D003D002D001D000D0D0D082DE
:10113000D083D0F0D0E0328E298F2A8B2B8A2C8955
:101140002DE4F52E900000E0FFE52EC39F505EE5F4
:101150002AAE297803CEC313CE13D8F9FDAC06E529
:101160002AAE297802CEC313CE13D8F92DFFEE3C58
:10117000AB07FA120C16E0FEA3E0FFC39BEE9A50F9
:10118000028004AE02AF03AA06AB07120C16E0FC05
:10119000A3E0FDAF2AAE291216A7500DAB2BAA2C47
:1011A000A92DE52E12077FD322052E8097C3224258
:1011B00000E100004200DD00004200E300004200C8
:1011C000DF0000C1834100EAA441008100410082A8
:1011D0000042000100004200830000420075000050
:1011E000C1044100730041008000410077004100CC
:1011F000000048007800000000000000004100747A
:10120000004100D9004100DB004100D7004100D877
:10121000004100DC004100D600C1054100DA004178
:101220000095A4008F268C278D28EF120B9DAA060F
:10123000F97BFFEF120BE7FDEF120C24F52EEF12F6
:101240000CBA120BA78E2FF530EF120C33F531EFDD
:10125000120CC5120BA78E32F533EF120C42F53487
:10126000EFC454F024B5F582E4341A120BA78E357E
:10127000F536EFC454F024B7F582E4341AF583E46C
:1012800093F537EF120C51F53885273985283A0246
:101290000DEFAE07E4F5261216CA900000E0FF122B
:1012A00016D11212F4900000E0FFE526C39F5014FF
:1012B00012160FE0547FFF1216D112160F12161DD0
:1012C000052680E11212F4E4F526900073E0FFE5B4
:1012D00026C39F5017740325261216030526E526FC
:1012E000541F70E61217FD1217F680DE7F55121696
:1012F000D10217FD1217FD1217F622C0E0C083C0FD
:1013000082C0D075D000C004C005C006C00753C855
:101310007F9000E1E0FEA3E0FF4E700353C8FB9016
:1013200000DD12154D50099000E1E4F0A3F0800DAE
:10133000C39000E2E09DF09000E1E09CF0D007D087
:1013400006D005D004D0D0D082D083D0E032C0E027
:10135000C083C082C0D075D000C004C005C006C024
:101360000753917F9000E3E0FEA3E0FF4E7003532C
:1013700091FB9000DF12154D50099000E3E4F0A3BB
:10138000F0800DC39000E4E09DF09000E3E09CF05D
:10139000D007D006D005D004D0D0D082D083D0E002
:1013A0003212080EFDACF0AF2BAE2A8F828E83AFC7
:1013B00005AE0412177EAB07AA06D3EB94F4EA94A9
:1013C0000140067E017FF48004AE02AF03AA06ABA3
:1013D00007C3EB9464EA940050067E007F648004A7
:1013E000AE02AF03AA06AB07AF82AE831216A722E6
:1013F000ADDA120BFCFCE0540FB50402C32253DA41
:10140000FE900074E0540F120CA3E0FBA3E08F8267
:101410008E83CBF0EB120BFAC394044006E0540F1A
:10142000120CDA900074E054F0FFE0044FF0E05446
:101430000FC394044004E054F0F08DDAD322AE05DB
:10144000AD07E4FCFB7FAA1216D1AF051216D1EE50
:10145000C454F0247EF582E4341CF583E493FFEC5D
:10146000C39F500774082CFC0B80F4EB04FF12168A
:10147000CCE4FCECC39B500974032C1216030C80C3
:10148000F27F551216D10217FD9000D7E0FD9000B3
:10149000D9E0FF9000D7E0B507057E017F002290DC
:1014A00000D7121623E0FB7A009000D7E004F0E0AA
:1014B000B44002E4F09000D6E0FEEE4202E4F09088
:1014C00000D9E0C394404002EDF0AE02AF0322AE7B
:1014D00007E4FDF5261216CA900001E0FF1216D1AE
:1014E00090000112161D900075E0FF1216D19000B9
:1014F0007512161D900083E0FF1216D19000831222
:10150000161D74032D1216030DBD03F67F5512161A
:10151000D10217FDAB07AA06E4F9F87F407E427DB1
:101520000FFC120882A804A905AA06AB077F207E3B
:10153000D77D757C01120882C3E49FFFE49EFE22E2
:10154000AB07AA06E4F9F87FE87E03FD22E0FCA3DE
:10155000E0FDC3EF9DEE9C22ABFBAAFCA9D9D3EB27
:1015600094CCEA940C40067A7F7BFF800F7C007D50
:101570000AAF03AE02120791AA06AB0753D9BFE424
:10158000F5FAF5F989D97F002093027F01EFC43382
:10159000333354804AFEEBFF02159B120BFCC394BD
:1015A00004502D120BFC120CA3EEF0EF120BFA04F8
:1015B000120CDAE0C4540FC394044004E0540FF05A
:1015C000120BFCFFE0540FB50706E0540F4440F047
:1015D000227E007F3C7D007B007A007966120946FE
:1015E0007F0B12180643DA011200707D0A7C007F1F
:1015F000017E0012165712001DE4900082F0900048
:1016000081F022F582E43400F583E0FF0216D1E593
:101610002625E02485F582E43400F58322A3E0FF4B
:101620000216D1E02496F582E43400F583228E3749
:101630008F388C398D3A12154012152112175A9095
:1016400000E1E539F0A3E53AF09000DDE537F0A3DD
:10165000E538F043C804228E268F278C288D291266
:1016600015401215211217669000E3E528F0A3E556
:1016700029F09000DFE526F0A3E527F0439104224E
:1016800012002A1217D21217D912178A1217EE1245
:1016900017261217A812179412179E1217721217F4
:1016A000E01217F20217E7C3ED9BF582EC9AF5837F
:1016B000C3E5829FE5839E500FED2BFDEC3AFCC302
:1016C000EF9DEE9C50028001C3227FAA1216D1AF7B
:1016D00006C2059000DBE0B42002E4F09000DBE0FD
:1016E0002446F8A607E004F0A3E004F022A3E49364
:1016F000FE74019322E49000E6F0A3F0225480C42B
:10170000131313540124FF22900082E024FD227E53
:101710001DE4FDEF30E70625E06EFF8004EF25E0D5
:10172000FF0DBD08EE22AF885388AF758CA0758D74
:10173000CBEF5440FEEF54104E42882212174DD288
:10174000031215D19000EAE0900095F022AE071246
:1017500016CA7F551216D10217FDAD07AC06ECF57F
:10176000CBAF058FCA22AD07AC06ECF593AF058F62
:101770009222C2DE75D90575F9FF75960122EF78C0
:1017800002CEC313CE13D8F9FF2275E34075E101F1
:1017900075E20122E59154045391FB429122758E2A
:1017A0005475892243885022E5C8540453C8FB422B
:1017B000C82253984FEB4F4DF59822E5C8C320E25D
:1017C00001D322E591C320E201D32253C8FB53C8C1
:1017D0007F2275A41175D4CF2275A54175D57722C6
:1017E00053F77F75DA302275E69075A8B022E4F5DC
:1017F000A922439810223005FD22C2DE22D299226E
:101800008F9922AF99228F8C2222222222015E04FC
:101810001A2A62080208010900019004B00BB81CE2
:10182000520A030801090001C20384286E0208005D
:10183000090108014A02762A4E020800090108023D
:101840008A1E82071C0F8C08010802080301680227
:10185000D012C005DC0A0308010900024E05DC01B4
:10186000AE348A0A0308010900012C0A00008C0426
:101870007E27F6080108030802080208030804018D
:10188000040A9A051428A0080108000802080208A2
:1018900000080301720438198202080108000902D5
:1018A0009407D00FA02328080308010802080106A6
:1018B0001802D000D208010A0109020A0101D60368
:1018C000FC0BFE020801080009019002D0132E0152
:1018D0000A00090108023007760F3222740308015A
:1018E000080208180D031813021815021817020031
:1018F00000001818190418210218230218250200E4
:10190000000018182703182D02182F0218310200A2
:10191000000018183303183902183B02183D020062
:1019200000000C183F04184702184902184B020027
:10193000000028184D0418550218570218590200C3
:10194000000028185B04186302186502186702007B
:10195000000018186905187302187504187904181E
:101960007D0220187F04188702188904188D041836
:10197000910220189303189902189B02189D0200E7
:10198000000011189F0418A70218A90218AB02182A
:10199000AD022418AF0318B50218B70218B902181F
:1019A000BB022818BD0318C30218C50218C70200DD
:1019B00000001418C90318CF0218D10218D302006E
:1019C00000002718D50418DD0218DF0218E1020014
:1019D000000024015E041A2A6208020801090001BD
:1019E0009004B00BB81C520A030801090001C2039D
:1019F00084286E020800090108014A02762A4E0274
:101A00000800090108028A1E82071C0F8C080108C1
:101A1000020803016802D012C005DC0A03080109AC
:101A200000024E05DC01AE348A0A030801090001F8
:101A30002C0A00008C047E27F6080108030802081F
:101A4000020803080401040A9A051428A0080108E2
:101A50000008020802080008030172043819820213
:101A60000801080009029407D00FA02328080308E2
:101A70000108020801061802D000D208010A010973
:101A8000020A0101D603FC0BFE020801080009014D
:101A90009002D0132E010A00090108023007760FC8
:101AA00032227403080108020819D30319D9021954
:101AB000DB0219DD020000001819DF0419E7021922
:101AC000E90219EB020000001819ED0319F30219DD
:101AD000F50219F7020000001819F90319FF021A9C
:101AE00001021A03020000000C1A05041A0D021A62
:101AF0000F021A1102000000281A13041A1B021AFE
:101B00001D021A1F02000000281A21041A29021AB5
:101B10002B021A2D02000000181A2F051A39021A7A
:101B20003B041A3F041A4302201A45041A4D021AB4
:101B30004F041A53041A5702201A59031A5F021A43
:101B400061021A6302000000111A65041A6D021A7C
:101B50006F021A71021A7302241A75031A7B021A91
:101B60007D021A7F021A8102281A83031A89021A37
:101B70008B021A8D02000000141A8F031A95021AA4
:101B800097021A9902000000271A9B041AA3021A4E
:101B9000A5021AA70200000024015E041A2A6208A6
:101BA0000208010900019004B00BB81C520A030896
:101BB00001090001C20384286E020800090108011E
:101BC0004A02762A4E020800090108028A1E82078C
:101BD0001C0F8C080108020803016802D012C0051E
:101BE000DC0A0308010900024E05DC01AE348A0A52
:101BF0000308010900012C0A00008C047E27F60866
:101C0000010803080208020803080401040A9A05EF
:101C10001428A008010800080208020800080301AF
:101C20007204381982020801080009029407D00FD3
:101C3000A023280803080108020801061802D000A2
:101C4000D208010A0109020A0101D603FC0BFE02B7
:101C50000801080009019002D0132E010A000901B1
:101C600008023007760F3222740308010802081BAD
:101C700099031B9F021BA1021BA302000000181B5B
:101C8000A5041BAD021BAF021BB102000000181B14
:101C9000B3031BB9021BBB021BBD02000000181BD3
:101CA000BF031BC5021BC7021BC9020000000C1B9F
:101CB000CB041BD3021BD5021BD702000000281B3C
:101CC000D9041BE1021BE3021BE502000000281BF4
:101CD000E7041BEF021BF1021BF302000000181BBC
:101CE000F5051BFF021C01041C05041C0902201C35
:101CF0000B041C13021C15041C19041C1D02201CBF
:101D00001F031C25021C27021C2902000000111CB5
:101D10002B041C33021C35021C37021C3902241C04
:101D20003B031C41021C43021C45021C4702281CA9
:101D300049031C4F021C51021C5302000000141CDA
:101D400055031C5B021C5D021C5F02000000271C87
:0F1D500061041C69021C6B021C6D020000002460
:00000001FF
