:020000040000FA
:10000000021176A2029290A2029280AD40AC3F7F94
:100010000A7E0012002E12001DA202B322E59120DA
:10002000E2FB220210E67597A5222202144B8E41B4
:100030008F428C438D441216611218E0E54424BFB0
:100040009000E8F0E54334FF9000E7F09000E3E52E
:1000500041F0A3E542F04391042222021205121955
:100060006853D87853DAFE121939E4900087F022E9
:10007000D2DE2202149E1217F0C290C296C280E411
:10008000FBFD7F1012192012053174A4F0D2AF12BB
:10009000173AD2969000ECE004F070069000EBE086
:1000A00004F09000EBE0B427E9A3E0B410E4C296BA
:1000B0001200263003091216E18E228F2380067566
:1000C0002201752300E5237004E522640170469047
:1000D00000DEE0700612173B0202959000EBE4751B
:1000E000F001120815FED3E5F09410EE94274002BB
:1000F000D296D39000ECE094309000EBE0947550F1
:1001000003020295E4F0A3F09000DEF0900099F075
:10011000C29602029512173A9000DEE014602A148B
:1001200070030202591470030202171470030202D2
:100130003024046003020295E52364AA60030202EE
:10014000959000DE04F0020295E523900099F0906E
:1001500000DE7402F0E52312093D0201A0017FA137
:10016000018BA501A9A601BDA701C6A801DDA901B2
:10017000CCB001D5B1019DC00295FF0000020C1268
:10018000051EE490008AF07FA1806512054E900064
:10019000EA7408F0E4F52575240902029512054E6B
:1001A000E4F52575240202029590008A7401F07F1F
:1001B000A61215D690007974A6F0020295120531A8
:1001C00074A4F00202959000EA7408F09000DE74C6
:1001D00003F00202957FB112056202029512051E1C
:1001E00090008AE09000E9F090008A7401F07FA905
:1001F0001205627D307C757F017E001217C70202F6
:100200009512056B900079EFF0E48005E490009979
:10021000F09000DEF0807EE4F525E523F524E5246A
:10022000D39400402C12005E9000DE7404F08065D0
:1002300074032525F582E43400F583E523F00525D4
:10024000E525B52402800AE525C39470404775244E
:10025000709000DE7402F0803CE5236455703690A7
:1002600000DEF0C203900099E02460601B24FC6073
:100270001224FE600E14600B24F760101460042436
:100280001070127FA01218C7D2038009900004E0FA
:10029000049000EAF0900099E012093D02BEA1032B
:1002A00033A40377A50333A60447A802BEA9047CA0
:1002B000B004E5B1041EC00442FF000000B090008D
:1002C00086E030E73F7DC87C0012053F900099E052
:1002D0002457600E2408701F12056B7FA312161C92
:1002E00080159000E9E090008AF0900079E0FF121C
:1002F00015D67FAB12057CE4900086F043DA01D27C
:10030000030200B012193150207DE87C0312053F32
:10031000900099E02457600C240860030200B07F2D
:10032000A20204D77FAA0204D71205744003020078
:10033000B0802E900086E030E71F900099E0245AAC
:10034000600F240260030204F17FA412161C020451
:10035000F17FA612057C0204F1120574400302002D
:10036000B0121717C006C0071217269200D007D088
:100370000612098F0200B09000DEE060030200B0B8
:100380001217427003020411240560030200B01228
:100390000558900005E0FFA3E090008BCFF0A3EF9D
:1003A000F0900007E0FFA3E090008DCFF0A3EFF006
:1003B000900003E0FFA3E090008FCFF0A3EFF07B6D
:1003C000017A00798B901A7BE493FC740193FD9081
:1003D0001A7DE493F52E1217328E2FF530901A8085
:1003E000E493F5311217328E32F533901A83E49389
:1003F000F5341217328E35F536901A86E493F537B8
:10040000A3E493F538753900753A09120EC6020057
:10041000B09000EAE07063C2807FA00204D7900031
:10042000DEE060030200B0900003E0FCA3E0FD7F8B
:10043000017E001217C7D29612001DC2967FA0023D
:1004400004D77F030204D79000DEE060030200B00F
:100450001217426019240560030200B0120558907B
:100460000003E0FF7C007D041210520200B09000F7
:10047000EAE07006C2807FA0805D80619000DEE0CF
:1004800060030200B01217426043240560030200BB
:10049000B09000EAE014F012005E7E007F05C00616
:1004A000C007900003E0FB25E0FFE433FE74052F56
:1004B000F58274003EAD82FCEB25E0FFE52424FECE
:1004C000C39FFBD007D006120FB10200B09000EA24
:1004D000E0700AC2807FA01218BA0200B0E4900057
:1004E00087F00200B0900086E030E7107FB1121272
:1004F0008AE4900086F043DA010200B07E007FEDCE
:1005000012158B40030200B0121717C006C0071265
:1005100017269200D007D006120D200200B07D32BF
:100520007C007F017E001217C7D29612001DC29672
:1005300022E490008AF07FA41215D6900079227FE1
:10054000017E001217C7D29612001DC29622120019
:100550005E9000DE7404F0229000EAE014F01200D5
:100560005E221215D6900079EFF022900079E0FF1C
:100570001215D6227E007FED12158B22900086E0A8
:10058000547FFD12153E228F29E4F536EF25E02534
:10059000E02468F8E6701EEF25E025E02469F8768F
:1005A000087E007F707D007B017A00790312096369
:1005B000E490007AF0AB2CAA2DA92EC001120B8476
:1005C0002466F9E7540F120CC3120BA3D0011207D3
:1005D0008E503D120B842466F9E7540FFF120CC3B2
:1005E000120C7C300101B34031EF700A900077E5C6
:1005F0002AF0A3E52BF0120B84120CCF2401FFEF9D
:10060000FEEC54F04EFEEDFF120B84120C86800AB5
:10061000120B842466F874F056F6AB2CAA2DA92E82
:10062000C001120B84120CDB120BF0120CE7120B40
:10063000A3D00112078E5052120B84120CDB120B46
:10064000F0FF120CE75408FE120C7E300101B3409B
:1006500043EF700A900088E52AF0A3E52BF0120B17
:1006600084120BE12401FFE433FEEFC4F8540FC8F9
:1006700068FFEEC454F048FEED540FFDEC4EFEED65
:100680004FFF120B84120C86800A120B842467F829
:10069000740F56F6120B84120CCFFB700F120BE97D
:1006A000700A120B6A2469F8E4F6C322120B842440
:1006B00068F8E53514667003753601C3E531953683
:1006C0006B7020D290120B842466F874F056F67486
:1006D0000F0856120B832468F806120B842469F85D
:1006E00016804C120B84120BE1FFC3E53495366F74
:1006F000703DD290120B842466F8EC54F0FEED5459
:100700000FA60608120B832468F806120B842469CE
:10071000F816120B84120BF7E0FF120B842469F811
:10072000E6FE7401A806088002C333D8FC4FF0121D
:100730000B842469F8E67017120B84120BF7120C65
:1007400074FF12187FEFF0120B842469F8760812F8
:100750000B842468F8E6C3953540311219295005F9
:10076000E4900085F0120C7160181219397D207C1C
:10077000037F017E0012179E120CF3A3E529F044BB
:1007800080F0120B6A2469F8E4F6D322C32212081F
:100790002BFDACF0AF2BAE2A1214F122BB0106895F
:1007A000828A83F0225002F722BBFE01F322EF8DF2
:1007B000F0A4A8F0CF8CF0A428CE8DF0A42EFE22B9
:1007C000BC000BBE0029EF8DF084FFADF022E4CC1D
:1007D000F875F008EF2FFFEE33FEEC33FCEE9DECE6
:1007E000984005FCEE9DFE0FD5F0E9E4CEFD22ED2C
:1007F000F8F5F0EE8420D21CFEADF075F008EF2F76
:10080000FFED33FD4007985006D5F0F222C398FD66
:100810000FD5F0EA22C5F0F8A3E028F0C5F0F8E51E
:1008200082158270021583E038F022BB0110E58248
:1008300029F582E5833AF583E0F5F0A3E02250093B
:10084000E92582F886F008E622BBFE0AE92582F84F
:10085000E2F5F008E222E5832AF583E993F5F0A3B7
:10086000E9932275F008758200EF2FFFEE33FECD7D
:1008700033CDCC33CCC58233C5829BED9AEC99E560
:100880008298400CF582EE9BFEED9AFDEC99FC0FF0
:10089000D5F0D6E4CEFBE4CDFAE4CCF9A88222B8B8
:1008A00000C1B90059BA002DEC8BF084CFCECDFC3D
:1008B000E5F0CBF97818EF2FFFEE33FEED33FDECCA
:1008C00033FCEB33FB10D703994004EB99FB0FD8B3
:1008D000E5E4F9FA227818EF2FFFEE33FEED33FD51
:1008E000EC33FCC933C910D7059BE99A4007EC9B50
:1008F000FCE99AF90FD8E0E4C9FAE4CCFB2275F0E0
:1009000010EF2FFFEE33FEED33FDCC33CCC833C8F0
:1009100010D7079BEC9AE899400AED9BFDEC9AFCF6
:10092000E899F80FD5F0DAE4CDFBE4CCFAE4C8F9A5
:1009300022A42582F582E5F03583F58322D083D089
:1009400082F8E4937012740193700DA3A393F8746A
:100950000193F5828883E4737402936860EFA3A324
:10096000A380DFEF4E6012EF60010EEDBB010B893B
:10097000828A83F0A3DFFCDEFA2289F05007F709B0
:10098000DFFCA9F022BBFEFCF309DFFCA9F0228EFC
:10099000268F27E4F528C3E5279464E526940050C4
:1009A00017E4F528E528120BAF2469F8E4F60528CA
:1009B000E528B412EFC2902290008AE0147003027E
:1009C0000A7D046003020B697866E6C4540FF9706F
:1009D00065D3E5279494E52694115003020B693002
:1009E0000003020B69E9120C53E6540FFC08E6FD04
:1009F000EC4E18F6ED08F618120C4AEC540F4E188F
:100A0000F6ED08F6900001E526F0A3E527F0AE2606
:100A1000FF7C007D1F1207C090008BEEF0A3EFF06B
:100A20007C007D031207AEA3EEF0A3EFF0A3E52652
:100A3000F0A3E527F0227866E6C4540F6402600351
:100A4000020B69120D0B752C01752D00752E8B9004
:100A50001C9B93FE7401938E2FF530901C9DE493A4
:100A6000F531A3120BDA8E32F533901CA0E493F526
:100A700034901CA4E493F535E4FF020587E4F528DF
:100A8000120BC5120D16FF120C5C120C8FF9EFC37E
:100A900099506DE528120C18F5828C832FF582E4AD
:100AA0003583F583E493FF120C7C300001B35003CF
:100AB000020B5D120C5C2495F582E5F0341C120CDF
:100AC00024F5828C83EF540775F002120931120C61
:100AD00026FDAF27AE261214F1E528501925E02592
:100AE000E02466F8120C4AEC540F4EFEEDFF120B98
:100AF000C5120C868067120BAF2469F8E4F6805D9E
:100B0000120BC5120D16697054120D0BE528120B4D
:100B1000CCAA06752CFF8A2DF52E120C5C249BF5B1
:100B200082E5F0341C120BD88E2FF530120C5C12BB
:100B30000C9CF531120C5C249EF582E5F0341C12FD
:100B40000BD88E32F533120C5C120CA9F534120C52
:100B50005C120CB6F535AF28120587400C0528E568
:100B600028C394125003020A8022C290E52925E08E
:100B700025E02466F8E4F608F6E52925E025E024DA
:100B800068F8E4F6E52925E025E022F583E493FF03
:100B90005408FE131313541F24FF9202AB29AA2AF0
:100BA000A92BEF540775F002A4F58285F083222566
:100BB000E025E02466F8E4F608F6E52825E025E0DF
:100BC0002468F8E4F6E52825E025E02275F010A475
:100BD0002495F582E5F0341CF583E493FE740193CB
:100BE000222466F8E6FC08E6FDECC4F854F0C8EDF3
:100BF000C4540F48540F222468F8E61413131354F6
:100C00001F2403F582E43400F58322E529252BF522
:100C100082E43528F583E02275F010A42498F5824B
:100C2000E5F0341CF583E493FC74019322A200E404
:100C300033C433333354804526FFE527900074CF07
:100C4000F0A3EFF0E490007BF022E6FC08E6FDEC78
:100C5000C4540F2401FFEFC454F0FE2275F010E5D8
:100C600028A422E52E25E0248BF582E43400F583C8
:100C700022900085E0FF90007AE06F225408131361
:100C800013541F24FF222466F8A60608A607222470
:100C90009AF582E5F0341CF583E49322249DF582D5
:100CA000E5F0341CF583E4932224A0F582E5F034CA
:100CB0001CF583E4932224A4F582E5F0341CF5832B
:100CC000E493222530F582E4352FF583E493222442
:100CD00066F8E6FC08E6FDEC540F222466F9E7C44A
:100CE000F854F0C809E7222533F582E43532F5835C
:100CF000E4932290007AE0900085F053DAFE2225FA
:100D0000E0247DF582E43400F58322A2009201857F
:100D1000262A85272B222466F8E6FEEEC4540F22ED
:100D20008E268F27C3E5279464E52694005003029E
:100D30000EB4900087E024FE6025147003020DC1FC
:100D400024036003020EB9C290AF27AE261218AC7E
:100D50004003020EB9120C2D9000877402F022128B
:100D60000EBA503090007BE094044021D290E49081
:100D70000000F0900073F0C20490007CF090007AC4
:100D8000F0900003F09000877403F08025E4900059
:100D900087F0801E900074E0547FFEA3E0FFD3E54F
:100DA000279FE5269E4005120C2D800690007BE0D3
:100DB00004F090007BE0C394E05003020EB9020EF1
:100DC000B490007CE004F090007BE0FFA3E0D39FB0
:100DD0004003020E627B007A007928AF27AE26120C
:100DE000137D4022900000E0FF120C65E526F0A381
:100DF000E527F08F28900000E004F0E0D39407404E
:100E000005E4900087F030041DA200E433C43333BE
:100E1000335480FFE528C454F04FFF900073E01274
:100E20000C01EFF08039900073E0FF120C01E0FE3E
:100E3000A200E43333333354F84528FDEE4DF0740B
:100E4000032F120C03120C74FF12187FEFF09000A6
:100E500073E004F0E0D394704005E4900087F0B2B2
:100E60000422120EBA504D1219295005E490008543
:100E7000F0120C71603A1219397D207C037F017EDB
:100E80000012179E120CF3900003E0FD900074E036
:100E90005480FF900000E0C454F04FFFED4F9000ED
:100EA00003F0900074E0547FF0900086E04480F0FE
:100EB000C2908000E4900087F022A2009201AF2748
:100EC000AE26121774228B298A2A892B8C2C8D2D01
:100ED000E4F53D753E80F53BE53BC3952E5010E5AE
:100EE0002D253BF582E4352C120F76053B80E9E495
:100EF000F53BE53BC395385057E53A253DF582E48F
:100F00003539F583E0553E7019F53CE53CC3953124
:100F1000502DE530253CF582E4352F120F76053C47
:100F200080E9E4F53CE53CC395345013E533253CBA
:100F3000F582E43532120B8B120FA5053C80E6E5F5
:100F40003EC313F53E7005053D753E80053B80A20E
:100F5000E4F53BE53BC395375013E536253BF58279
:100F6000E43535120B8B120FA5053B80E6C290903D
:100F700000877405F022F583E493FF5408FE1313F1
:100F800013541F24FF9202AB29AA2AA92BEF54075E
:100F900075F002A4F58285F08312082BF54085F0E8
:100FA0003F1200032212082BF54085F03F12000388
:100FB000228E268F278C288D298B2AD200C201856C
:100FC0002982852883E05488D394004003D380018C
:100FD000C39201E4F52BE52BC3952A505930010D3E
:100FE000120C0BC4131313540124FF8002A20092AD
:100FF00002852782852683C083C082120C0BFFC422
:101000005407D082D08312103F30010C120C0BFF1A
:10101000131313541F138002A200920285278285A6
:101020002683C083C082120C0B5407D082D0831257
:10103000103F052B80A0C2909000877405F02275A8
:10104000F002120931E0F53FA3E0F54012000392EF
:1010500000228F268C278D28EF120BCCAA06F97B55
:10106000FFEF120C18FD75F010EFA4120C8FF52E87
:1010700075F010EFA4249BF582E5F0341C120BD818
:101080008E2FF53075F010EFA4120C9CF53175F031
:1010900010EFA4249EF582E5F0341C120BD88E329A
:1010A000F53375F010EFA4120CA9F53475F010EFBC
:1010B000A424A1F582E5F0341C120BD88E35F53648
:1010C00075F010EFA424A3F582E5F0341CF583E459
:1010D00093F53775F010EFA4120CB6F53885273963
:1010E00085283A020EC6C0E0C0F0C083C082C0D0DE
:1010F00075D000C000C001C002C003C004C005C05C
:1011000006C007E5985403F545F45298E54530E0EC
:10111000171219719000DD121769EFF09000DDE0F1
:1011200004F0E0B44002E4F0E54530E12E9000E048
:10113000E0D39400401A9000DCE02446F8E6FF1269
:10114000196E9000DCE004F09000E0E014F0800202
:10115000D2059000DCE0B42002E4F0D007D006D045
:1011600005D004D003D002D001D000D0D0D082D09E
:1011700083D0F0D0E03212005A787FE4F6D8FD75C3
:1011800081AD0211C0020076E493A3F8E493A3407A
:1011900003F68001F208DFF48029E493A3F85407F2
:1011A000240CC8C333C4540F4420C8834004F456ED
:1011B000800146F6DFE4800B010204081020408025
:1011C000901304E47E019360BCA3FF543F30E50913
:1011D000541FFEE493A360010ECF54C025E060A825
:1011E00040B8E493A3FAE493A3F8E493A3C8C582B8
:1011F000C8CAC583CAF0A3C8C582C8CAC583CADF26
:10120000E9DEE780BEC0E0C0F0C083C082C0D07518
:10121000D000C000C001C002C003C004C005C006A9
:10122000C007E5D85487F521F452D8E5F730E50832
:10123000E5F730E60312197853F7DFE52130E708C8
:10124000E5D930E003121977E52130E008E5DA301E
:10125000E0031216A5E52130E108E5DB30E00312DA
:101260001979E52130E208E5DC30E00312197AD083
:1012700007D006D005D004D003D002D001D000D0D2
:10128000D0D082D083D0F0D0E032AE07E4F5261281
:10129000183A900000E004FF1218411212FD90006D
:1012A00000E0FFE526C39F501412175BE0547FFF58
:1012B00012184112175B121755052680E190007431
:1012C000E0547FFF1218419000741217551212FD5E
:1012D000E4F526900073E0FFE526C39F50177403E2
:1012E00025261217490526E526541F70E612196BAC
:1012F00012196480DE7F5512184102196B12196BA6
:10130000121964224200E500004200E100004200A0
:10131000E700004200E30000C18341008600410075
:10132000870041008A00410079004200010000422C
:10133000008800004200770000C1044100730041B2
:1013400000850041007A004100000048007D000057
:10135000000000000000410076004100DD00410077
:10136000DF004100DB004100DC004100E000410003
:10137000DA00C1054100DE0041009900008E298F8E
:101380002A8B2B8A2C892DE4F52E900000E0FFE5B6
:101390002EC39F505EE52AAE297803CEC313CE1329
:1013A000D8F9FDAC06E52AAE297802CEC313CE13D8
:1013B000D8F92DFFEE3CAB07FA120C63E0FEA3E078
:1013C000FFC39BEE9A50028004AE02AF03AA06ABA5
:1013D00007120C63E0FCA3E0FDAF2AAE2912181738
:1013E000500DAB2BAA2CA92DE52E12079CD322055C
:1013F0002E8097C322900076E0FDC4540F2401FB99
:10140000E433FAED540FF96B7001EA603DE97010B6
:10141000E0C4540F2401FDE433FCED64044C602A65
:10142000900076E0C4540FFD540F120CFFEEF0A3B1
:10143000EFF0ED04C454F049900076F0E0FFC4549E
:101440000FC394044004EF540FF022C0E0C083C0E7
:1014500082C0D075D000C004C005C006C00753C804
:101460007F9000E5E0FEA3E0FF4E700353C8FB90C1
:1014700000E112169A50099000E5E4F0A3F0800D07
:10148000C39000E6E09DF09000E5E09CF0D007D02E
:1014900006D005D004D0D0D082D083D0E032C0E0D6
:1014A000C083C082C0D075D000C004C005C006C0D3
:1014B0000753917F9000E7E0FEA3E0FF4E700353D7
:1014C00091FB9000E312169A50099000E7E4F0A314
:1014D000F0800DC39000E8E09DF09000E7E09CF004
:1014E000D007D006D005D004D0D0D082D083D0E0B1
:1014F000328E378F388D828C83AF82AE8312185D27
:10150000AB07AA06D3EB94F4EA940140067E017F70
:10151000F48004AE02AF03AA06AB07C3EB9464EAFF
:10152000940050067E007F648004AE02AF03AA06DA
:10153000AB07AD82AC83AF38AE3712181722AE05B9
:10154000AD07E4FCFB7FAA121841AF0512184175E4
:10155000F010EEA424C1F582E5F0341EF583E49387
:10156000FFECC39F500774082CFC0B80F4EB04FFC6
:1015700012183CE4FCECC39B500974032C1217496D
:101580000C80F27F5512184102196BAD07AC06AB07
:10159000DA900076E0FEC4540FFFEE540FFEB5075C
:1015A00002C32253DAFE900076E0FAEE120CFFE05E
:1015B000FFA3E08D828C83CFF0A3EFF0EA54F0FF1D
:1015C000900076E0044FF0540FC394044004E054BC
:1015D000F0F08BDAD3228F26900079E0F5277E0099
:1015E0007F487D007B007A0079661209637F0B12C9
:1015F000197443DA011200707D0A7C007F017E00BD
:101600001217C712001DE4900087F0900086F0903A
:101610000099E526F0900079F0AF2722AE07E4FDAF
:10162000F52612183A900001E0FF121841900001CF
:10163000121755900077E0FF1218419000771217AB
:1016400055900088E0FF12184190008812175574D9
:10165000032D1217490DBD03F67F551218410219CB
:101660006BAB07AA06E4F9F87F407E427D0FFC12BF
:10167000089FA804A905AA06AB077F207ED77D7521
:101680007C0112089FC3E49FFFE49EFE22AB07AAE1
:1016900006E4F9F87FE87E03FD22E0FCA3E0FDC349
:1016A000EF9DEE9C22AFFBAEFC7C007D0A1207AEE4
:1016B000AD07AC06AFD953D9BFE4F5FAF5F98FD928
:1016C000C3EC948050157F002093027F01EFC43358
:1016D000333354804CFEEDFF0213F5E4900076F0B6
:1016E000229000DDE0FF9000DBE0B507057E017F82
:1016F00000229000DB121769E0FD7C009000DBE027
:1017000004F0E0B44002E4F09000DAE0FEEE4204BF
:10171000E4F0AE04AF05229000EDE0FCA3E0FDECA8
:10172000547FFEAF0522EC5480C4131313540124DC
:10173000FF22A3E493FE74019322E49000EBF0A354
:10174000F022900087E024FB22F582E43400F58348
:10175000E0FF021841A3E0FF021841E52625E0243E
:101760008BF582E43400F58322E0249AF582E43498
:1017700000F58322AD07AC06900074E0FAA3E0FB0D
:10178000EA5480C413131354017005300102C322BC
:10179000AF05AE04EA547FFCAD031214F1228E377C
:1017A0008F388C398D3A12168D12166E1218D4900D
:1017B00000E5E539F0A3E53AF09000E1E537F0A364
:1017C000E538F043C804228E288F298C2A8D2B12ED
:1017D000168D12166E1218E09000E7E52AF0A3E5C8
:1017E0002BF09000E3E528F0A3E529F043910422D3
:1017F00012002A1219401219471218F812195C1215
:10180000189612191612190212190C1218EC121944
:101810004E121960021955C3ED9BF582EC9AF583BF
:10182000C3E5829FE5839E500FED2BFDEC3AFCC390
:10183000EF9DEE9C50028001C3227FAA121841AF97
:1018400006C2059000DFE0B42002E4F09000DFE083
:101850002446F8A607E004F0A3E004F022AD07ACAC
:1018600006ECC4F854F0C868FAEDC4540F48FBED18
:101870007802CEC313CE13D8F92BFFEE3AFE227EA8
:101880001DE4FDEF30E70625E06EFF8004EF25E064
:10189000FF0DBD08EE22AF885388AF758CA0758D03
:1018A000CBEF5440FEEF54104E428822C3EF942CED
:1018B000EE94014003D38001C3221218C7D20390D3
:1018C0000079E0FF0215D6AE0712183A7F551218BC
:1018D0004102196BAD07AC06ECF5CBAF058FCA2200
:1018E000AD07AC06ECF593AF058F9222C2DE75D939
:1018F0000575F9FF7596012275E34075E10175E202
:101900000122E59154045391FB429122758E547546
:10191000892243885022E5C8540453C8FB42C82298
:1019200053984FEB4F4DF59822E5C8C320E201D301
:1019300022E591C320E201D32253C8FB53C87F2282
:1019400075A41175D4CF2275A54175D5772253F7AB
:101950007F75DA302275E69075A8B022E4F5A922E9
:10196000439810223005FD22C2DE22D299228F999F
:1019700022AF99228F8C2222222222015E041A2A6F
:101980006208020801090001F403E805DC733C0366
:101990000A010801019004B00BB81C520A030801A7
:1019A000090001C20384286E020800090108014AE7
:1019B00002762A4E02080009010800C8017C1B2695
:1019C000020800090108015E028A32C80208000903
:1019D0000108015E02BC3D22020800090108028ADA
:1019E0001E82071C0F8C080108020803016802D040
:1019F00012C005DC0A0308010900024E05DC01AE35
:101A0000348A0A030801090001A404C430700802E2
:101A10000801090001F403E807D00FA0030801083A
:101A20000208012C0A00008C047E27F60801080336
:101A3000080208020803080401040A9A051428A0F1
:101A4000080108000802080208000803019002D0FB
:101A5000132E010A00090108023007760F322274A2
:101A600003080108020827101388076C03E802A87E
:101A700002C608010A030C05197B031981021983A8
:101A80000219850200000018198704198F011990A6
:101A90000219920200000047199404199C02199E31
:101AA0000219A0020000001819A20319A80219AA1D
:101AB0000219AC020000001819AE0319B40219B6DD
:101AC0000219B8020000000C19BA0319C00219C2A9
:101AD0000219C4020000000C19C60319CC0219CE69
:101AE0000219D0020000000C19D20319D80219DA29
:101AF0000219DC020000001219DE0419E60219E8DE
:101B00000219EA020000002819EC0419F40219F67F
:101B10000219F8020000002819FA041A02021A0435
:101B2000021A0602000000181A08031A0E021A1000
:101B3000021A1202000000181A14041A1C021A1EBB
:101B4000021A2002000000241A22051A2C021A2E62
:101B5000041A32041A3602201A38041A40021A42B1
:101B6000041A46041A4A02201A4C031A52021A5442
:101B7000021A5602000000271A58041A60021A625C
:101B8000021A6402000000241A66061A72021A740D
:101B9000021A760200000030015E041A2A6208026E
:101BA0000801090001F403E805DC733C030A01089D
:101BB00001019004B00BB81C520A0308010900018E
:101BC000C20384286E020800090108014A02762A2D
:101BD0004E02080009010800C8017C1B260208000B
:101BE000090108015E028A32C802080009010801E1
:101BF0005E02BC3D22020800090108028A1E82071B
:101C00001C0F8C080108020803016802D012C005ED
:101C1000DC0A0308010900024E05DC01AE348A0A21
:101C2000030801090001A404C43070080208010976
:101C30000001F403E807D00FA0030801080208011F
:101C40002C0A00008C047E27F6080108030802080D
:101C5000020803080401040A9A051428A0080108D0
:101C6000000802080208000803019002D0132E01A8
:101C70000A00090108023007760F322274030801B6
:101C800008020827101388076C03E802A802C60898
:101C9000010A030C051B98031B9E021BA0021BA23A
:101CA00002000000181BA4041BAC011BAD021BAFFB
:101CB00002000000471BB1041BB9021BBB021BBD85
:101CC00002000000181BBF031BC5021BC7021BC973
:101CD00002000000181BCB031BD1021BD3021BD533
:101CE000020000000C1BD7031BDD021BDF021BE1FF
:101CF000020000000C1BE3031BE9021BEB021BEDBF
:101D0000020000000C1BEF031BF5021BF7021BF97E
:101D100002000000121BFB041C03021C05021C072E
:101D200002000000281C09041C11021C13021C15CF
:101D300002000000281C17041C1F021C21021C2387
:101D400002000000181C25031C2B021C2D021C2F56
:101D500002000000181C31041C39021C3B021C3D0F
:101D600002000000241C3F051C49021C4B041C4FB0
:101D7000041C5302201C55041C5D021C5F041C63E0
:101D8000041C6702201C69031C6F021C71021C7377
:101D900002000000271C75041C7D021C7F021C81B0
:101DA00002000000241C83061C8F021C91021C935D
:101DB0000200000030015E041A2A620802080109CC
:101DC0000001F403E805DC733C030A0108010190FB
:101DD00004B00BB81C520A030801090001C20384B5
:101DE000286E020800090108014A02762A4E0208FC
:101DF0000009010800C8017C1B260208000901082F
:101E0000015E028A32C8020800090108015E02BCB4
:101E10003D22020800090108028A1E82071C0F8C5D
:101E2000080108020803016802D012C005DC0A0399
:101E300008010900024E05DC01AE348A0A030801DC
:101E4000090001A404C4307008020801090001F46B
:101E500003E807D00FA0030801080208012C0A00BC
:101E6000008C047E27F60801080308020802080314
:101E7000080401040A9A051428A0080108000802B1
:101E8000080208000803019002D0132E010A00097D
:101E90000108023007760F32227403080108020895
:101EA00027101388076C03E802A802C608010A037A
:101EB0000C051DB5031DBB021DBD021DBF020000A8
:101EC00000181DC1041DC9011DCA021DCC0200005D
:101ED00000471DCE041DD6021DD8021DDA020000E7
:101EE00000181DDC031DE2021DE4021DE6020000D5
:101EF00000181DE8031DEE021DF0021DF202000095
:101F0000000C1DF4031DFA021DFC021DFE02000060
:101F1000000C1E00031E06021E08021E0A0200001C
:101F2000000C1E0C031E12021E14021E16020000DC
:101F300000121E18041E20021E22021E240200008F
:101F400000281E26041E2E021E30021E3202000031
:101F500000281E34041E3C021E3E021E40020000E9
:101F600000181E42031E48021E4A021E4C020000B8
:101F700000181E4E041E56021E58021E5A02000071
:101F800000241E5C051E66021E68041E6C041E7082
:101F900002201E72041E7A021E7C041E80041E840F
:101FA00002201E86031E8C021E8E021E900200005E
:101FB00000271E92041E9A021E9C021E9E02000012
:101FC00000241EA0061EAC021EAE021EB0020000BF
:021FD0000030DF
:00000001FF
