:020000040000FA
:10000000021033A2029290A2029280AD40AC3F7FD8
:100010000A7E0012002E12001DA202B322E59120DA
:10002000E2FB22020FA37597A5222202131C8E4128
:100030008F428C438D441214EE12177FE54424BF87
:100040009000E4F0E54334FF9000E3F09000DFE53A
:1000500041F0A3E542F043910422220210C212189B
:100060001353D87853DAFE1217E4E4900084F02298
:10007000D2DE2202136F121699C290C296C280E499
:10008000FBFD7F101217CB1215EAD2AF12170ED25A
:10009000969000E7E004F070069000E6E004F0902F
:1000A00000E6E0B427E9A3E0B410E4C2961200260B
:1000B0003003091215B48E228F2380067522017534
:1000C0002300E5237004E522640170469000DAE025
:1000D000700612170F0202739000E6E475F0011229
:1000E0000801FED3E5F09410EE94274002D296D397
:1000F0009000E7E094309000E6E09475500302022F
:1001000073E4F0A3F09000DAF0900095F0C296024C
:10011000027312170E9000DAE014602A14700302C2
:1001200002301470030201EE14700302020724046B
:100130006003020273E52364AA6003020273900065
:10014000DA04F00202739000DA7402F0E523120977
:100150002901E5A00176A10178A50194A6019CA73B
:1001600001A9A801C2A901AFB001B7B10189C001BD
:10017000E5FF000001D7804A1205319000E57408C0
:10018000F0E4F525752409805C120531E4F5257548
:100190002402805112055474A6F08049120554744B
:1001A000A4F0752200F523803C9000E57408F090DF
:1001B00000DA7403F0802E1215EA9000EA74B1F0B0
:1001C00080237D321205141215EA7D307C757F0183
:1001D0007E00121670800E900095E0752200F523C7
:1001E000E49000DAF0E523900095F0020273E4F564
:1001F00025E523F524E524D39400402C12005E90DD
:1002000000DA7404F0806C74032525F582E4340070
:10021000F583E523F00525E525B52402800AE525CB
:10022000C39470404E7524709000DA7402F08043DD
:10023000E5236455703D9000DAF0C203900095E02C
:100240002460601F24FC601224FE600E14600B24E6
:10025000F76017146004241070197FA0121766D27B
:10026000038010120525D2038009900004E0049059
:1002700000E5F0900095E0120929029CA10315A465
:10028000036CA50315A60431A8029CA90466B0045A
:10029000CFB10413C0042CFF000000AD900083E038
:1002A00030E7387DC8120514900095E02457600EA1
:1002B0002408701A1205257FA31214A980101215A4
:1002C000EA9000EAE0900095F07FAB120563E490BD
:1002D0000083F043DA01D2030200AD1217DC502094
:1002E0007DE87C03120545900095E02457600C24BE
:1002F0000860030200AD7FA20204C17FAA0204C10C
:1003000012055B40030200AD900095E07F01B4A1AF
:10031000027F008039900083E030E71F900095E075
:10032000245A600F240260030204DB7FA41214A984
:100330000204DB7FA61205630204DB12055B4003A7
:100340000200AD900095E07F01B4A4027F00C007D9
:100350009000E8E0FEA3E0FFEE547FFCAD07EE1254
:1003600017169200D00712097B0200AD9000DAE068
:1003700060030200AD12172170030204062403601B
:10038000030200AD12053B900005E0FFA3E09000E2
:1003900087CFF0A3EFF0900007E0FFA3E090008983
:1003A000CFF0A3EFF0900003E0FFA3E090008BCF2D
:1003B000F0A3EFF07B017A0079879018FFE493FCBB
:1003C000740193FD901901E493F52E1217068E2FF8
:1003D000F530901904E493F5311217068E32F53397
:1003E000901907E493F5341217068E35F5369019F7
:1003F0000AE493F537A3E493F538753900753A09A3
:10040000120E170200AD9000E5E07058C2807FA088
:100410000204C19000DAE060030200AD900003E046
:10042000FCA3E0FD1205457FA00204C17F03020486
:10043000C19000DAE060030200AD121721601924B8
:100440000360030200AD12053B900003E0FF7C0057
:100450007D041212AE0200AD9000E5E07006C2808D
:100460007FA0805D80619000DAE060030200AD1241
:1004700017216043240360030200AD9000E5E014FF
:10048000F012005E7E007F05C006C007900003E00A
:10049000FB25E0FFE433FE74052FF58274003EADCA
:1004A00082FCEB25E0FFE52424FEC39FFBD007D0B0
:1004B00006120F020200AD9000E5E0700AC2807FD4
:1004C000A01217550200ADE4900084F00200AD9038
:1004D0000083E030E7107FB1121147E4900083F011
:1004E00043DA010200AD7E007FE8121532400302BC
:1004F00000AD9000E8E0FCA3E0FDEC547FFEAF050A
:10050000C006C007EC1217169200D007D006120CD6
:10051000EC0200AD7C007F017E00121670D29612B4
:10052000001DC296221215EA9000EAE0900095F0B4
:100530002212005E9000DA7404F0229000E5E014CC
:10054000F012005E227F017E00121670D296120019
:100550001DC296221215EA9000EA227E007FE81260
:10056000153222900083E0547FFD12145E228F2901
:10057000E4F536EF25E025E02468F8E6701EEF2567
:10058000E025E02469F876087E007F707D007B011D
:100590007A00790312094FE4900079F0AB2CAA2D70
:1005A000A92EC001120B5E2466F9E7540F120C85C8
:1005B000120B7DD0011213C2503D120B5E2466F95E
:1005C000E7540FFF120C85120C67300101B3403164
:1005D000EF700A900077E52AF0A3E52BF0120B5E8E
:1005E000120C912401FFEFFEEC54F04EFEEDFF12D1
:1005F0000B5E120C71800A120B5E2466F874F056C2
:10060000F6AB2CAA2DA92EC001120B5E120C9D1266
:100610000BC8120CA9120B7DD0011213C25052123A
:100620000B5E120C9D120BC8FF120CA95408FE128F
:100630000C69300101B34043EF700A900085E52A50
:10064000F0A3E52BF0120B5E120BB92401FFE4338B
:10065000FEEFC4F8540FC868FFEEC454F048FEED36
:10066000540FFDEC4EFEED4FFF120B5E120C71802D
:100670000A120B5E2467F8740F56F6120B5E120C0A
:1006800091FB700F120BC1700A120B442469F8E43D
:10069000F6C322120B5E2468F8E535146670037504
:1006A0003601C3E53195366B7020D290120B5E2473
:1006B00066F874F056F6740F0856120B5D2468F84D
:1006C00006120B5E2469F816804C120B5E120BB9F1
:1006D000FFC3E53495366F703DD290120B5E2466F1
:1006E000F8EC54F0FEED540FA60608120B5D2468DA
:1006F000F806120B5E2469F816120B5E120BDCE092
:10070000FF120B5E2469F8E6FE7401A80608800259
:10071000C333D8FC4FF0120B5E2469F8E6701B124D
:100720000B5E120BDCE0FF900079E06FFF121728E0
:10073000EFF0120B5E2469F87608120B5E2468F85D
:10074000E6C3953540401217D45005E4900082F07E
:10075000900082E0FF900079E06F60201217E47D46
:10076000207C037F017E00121647900079E0900004
:1007700082F053DAFEA3E529F04480F0120B442402
:1007800069F8E4F6D322C322BB010689828A83F08A
:10079000225002F722BBFE01F322EF8DF0A4A8F055
:1007A000CF8CF0A428CE8DF0A42EFE22BC000BBE70
:1007B0000029EF8DF084FFADF022E4CCF875F0084D
:1007C000EF2FFFEE33FEEC33FCEE9DEC984005FC82
:1007D000EE9DFE0FD5F0E9E4CEFD22EDF8F5F0EE4A
:1007E0008420D21CFEADF075F008EF2FFFED33FD35
:1007F0004007985006D5F0F222C398FD0FD5F0EAD5
:1008000022C5F0F8A3E028F0C5F0F8E58215827063
:10081000021583E038F022BB0110E58229F582E55C
:10082000833AF583E0F5F0A3E0225009E92582F848
:1008300086F008E622BBFE0AE92582F8E2F5F00818
:10084000E222E5832AF583E993F5F0A3E993227583
:10085000F008758200EF2FFFEE33FECD33CDCC33A1
:10086000CCC58233C5829BED9AEC99E58298400C09
:10087000F582EE9BFEED9AFDEC99FC0FD5F0D6E4E7
:10088000CEFBE4CDFAE4CCF9A88222B800C1B900CD
:1008900059BA002DEC8BF084CFCECDFCE5F0CBF92E
:1008A0007818EF2FFFEE33FEED33FDEC33FCEB3326
:1008B000FB10D703994004EB99FB0FD8E5E4F9FA54
:1008C000227818EF2FFFEE33FEED33FDEC33FCC939
:1008D00033C910D7059BE99A4007EC9BFCE99AF9CC
:1008E0000FD8E0E4C9FAE4CCFB2275F010EF2FFF3B
:1008F000EE33FEED33FDCC33CCC833C810D7079BA5
:10090000EC9AE899400AED9BFDEC9AFCE899F80F07
:10091000D5F0DAE4CDFBE4CCFAE4C8F922A42582D0
:10092000F582E5F03583F58322D083D082F8E49315
:100930007012740193700DA3A393F8740193F58260
:100940008883E4737402936860EFA3A3A380DFEF4E
:100950004E6012EF60010EEDBB010B89828A83F0BD
:10096000A3DFFCDEFA2289F05007F709DFFCA9F0CB
:1009700022BBFEFCF309DFFCA9F0228C268D27E4C4
:10098000F528C3E5279464E52694005017E4F5287C
:10099000E528120B892469F8E4F60528E528B40F48
:1009A000EFC29022EF147003020A66046003020B88
:1009B000437866E6C4540FF97065D3E5279494E54F
:1009C0002694115003020B43300003020B43E9123B
:1009D0000C0CE6540FFC08E6FDEC4E18F6ED08F69C
:1009E00018120C03EC540F4E18F6ED08F6900001A7
:1009F000E526F0A3E527F0AE26FF7C007D1F120759
:100A0000AC900087EEF0A3EFF07C007D0312079A14
:100A1000A3EEF0A3EFF0A3E526F0A3E527F02278FC
:100A200066E6C4540F64026003020B43120CC175E6
:100A30002C01752D00752E87901AC893FE740193B2
:100A40008E2FF530901ACAE493F531A3120BB28EB3
:100A500032F533901ACDE493F534901AD1E493F53E
:100A600035E4FF02056EE4F528120B9F120CE2FF3D
:100A7000E528120C2BF9EFC399506EE528120BF004
:100A8000F5828C832FF582E43583F583E493FF129E
:100A90000C67300001B35003020B37E528C454F053
:100AA00024C2F582E4341A120BFAF5828C83EF54D7
:100AB0000775F00212091D120BFCFDAF27AE2612BE
:100AC00013CCE528501925E025E02466F8120C0324
:100AD000EC540F4EFEEDFF120B9F120C718058125A
:100AE0000B892469F8E4F6804E120B9F120CE26920
:100AF0007045120CC1E528120BA6AA06752CFF8AB8
:100B00002DF52EE528120CCC120BB08E2FF530E50A
:100B100028120C3AF531E528120CD7120BB08E32A0
:100B2000F533E528120C49F534E528120C58F53553
:100B3000AF2812056E400C0528E528C3940F50031A
:100B4000020A6922C290E52925E025E02466F8E43E
:100B5000F608F6E52925E025E02468F8E4F6E5291D
:100B600025E025E022F583E493FF5408FE131313D8
:100B7000541F24FF9202AB29AA2AA92BEF54077510
:100B8000F002A4F58285F0832225E025E02466F8B2
:100B9000E4F608F6E52825E025E02468F8E4F6E523
:100BA0002825E025E022C454F024C2F582E4341A5A
:100BB000F583E493FE740193222466F8E6FC08E6CC
:100BC000FDECC4F854F0C8EDC4540F48540F22E5AE
:100BD00029252BF582E43528F583E0222468F8E600
:100BE00014131313541F2403F582E43400F58322F5
:100BF000C454F024C5F582E4341AF583E493FC74FC
:100C0000019322E6FC08E6FDECC4540F2401FFEF3B
:100C1000C454F0FE22E52E25E02487F582E434005A
:100C2000F58322900076E0C4540F22C454F024C708
:100C3000F582E4341AF583E49322C454F024CAF50F
:100C400082E4341AF583E49322C454F024CDF5826F
:100C5000E4341AF583E49322C454F024D1F582E4F9
:100C6000341AF583E493225408131313541F24FFFA
:100C7000222466F8A60608A60722A200E433C4339D
:100C800033335480222530F582E4352FF583E49305
:100C9000222466F8E6FC08E6FDEC540F222466F9EF
:100CA000E7C4F854F0C809E7222533F582E4353269
:100CB000F583E4932225E0247AF582E43400F58379
:100CC00022A200920185262A85272B22C454F024D3
:100CD000C8F582E4341A22C454F024CBF582E434FB
:100CE0001A222466F8E6FEEEC4540F228E268F27C1
:100CF000900084E024FE604324026003020E16C2CA
:100D000090200003020E16C3E527942CE5269401DB
:100D10005003020E16120C7A4526FFE52790007448
:100D2000CFF0A3EFF0E4900000F0900073F0C20465
:100D3000900003F09000847402F022C3E5279464CD
:100D4000E52694005003020DDF900073E0C3940881
:100D50004002D2907B007A007928AF27AE2612118C
:100D6000C1401E900000E0FF940740028071EF1226
:100D70000C17E526F0A3E527F08F28900000E0048B
:100D8000F0300423900073E0FFC394704002804F62
:100D9000120C7AFEE528C454F04EFE74032F120B99
:100DA000E8EEF0C2048020900073E0120BE6E0FF52
:100DB000A200E43333333354F84528FEEF4EF0906D
:100DC0000073E004F0D20420004CC3E52794E0E572
:100DD00026942E4041900073E094085008C290E49D
:100DE000900084F02253DAFE900003E0FD9000743E
:100DF000E05480FF900000E0C454F04FFFED4F90AE
:100E00000003F0900074E0547FF0900083E0448091
:100E1000F0C290E4A3F0228B298A2A892B8C2C8D96
:100E20002DE4F53D753E80F53BE53BC3952E501016
:100E3000E52D253BF582E4352C120EC7053B80E9F4
:100E4000E4F53BE53BC395385057E53A253DF5823F
:100E5000E43539F583E0553E7019F53CE53CC39522
:100E600031502DE530253CF582E4352F120EC705B3
:100E70003C80E9E4F53CE53CC395345013E533256B
:100E80003CF582E43532120B65120EF6053C80E625
:100E9000E53EC313F53E7005053D753E80053B807C
:100EA000A2E4F53BE53BC395375013E536253BF50A
:100EB00082E43535120B65120EF6053B80E6C290D2
:100EC0009000847403F022F583E493FF5408FE132A
:100ED0001313541F24FF9202AB29AA2AA92BEF5403
:100EE0000775F002A4F58285F083120817F5408596
:100EF000F03F12000322120817F54085F03F120060
:100F000003228E268F278C288D298B2AD200C2019E
:100F1000852982852883E05488D394004003D380B8
:100F200001C39201E4F52BE52BC3952A50593001FA
:100F30000D120BCFC4131313540124FF8002A2001F
:100F40009202852782852683C083C082120BCFFF41
:100F5000C45407D082D083120F9030010C120BCFF3
:100F6000FF131313541F138002A2009202852782DD
:100F7000852683C083C082120BCF5407D082D083D2
:100F8000120F90052B80A0C2909000847403F02271
:100F900075F00212091DE0F53FA3E0F540120003D1
:100FA000920022C0E0C0F0C083C082C0D075D000E3
:100FB000C000C001C002C003C004C005C006C00715
:100FC000E5985403F545F45298E54530E0171218BA
:100FD0001C9000D912163CEFF09000D9E004F0E02C
:100FE000B44002E4F0E54530E12E9000DCE0D3941B
:100FF00000401A9000D8E02446F8E6FF1218199035
:1010000000D8E004F09000DCE014F08002D20590FB
:1010100000D8E0B42002E4F0D007D006D005D00418
:10102000D003D002D001D000D0D0D082D083D0F075
:10103000D0E03212005A787FE4F6D8FD7581A10223
:10104000107D020076E493A3F8E493A34003F680B6
:1010500001F208DFF48029E493A3F85407240CC8B4
:10106000C333C4540F4420C8834004F4568001465F
:10107000F6DFE4800B010204081020408090123952
:10108000E47E019360BCA3FF543F30E509541FFE8A
:10109000E493A360010ECF54C025E060A840B8E4FB
:1010A00093A3FAE493A3F8E493A3C8C582C8CAC57E
:1010B00083CAF0A3C8C582C8CAC583CADFE9DEE710
:1010C00080BEC0E0C0F0C083C082C0D075D000C078
:1010D00000C001C002C003C004C005C006C007E5CF
:1010E000D85487F521F452D8E5F730E508E5F73014
:1010F000E60312182353F7DFE52130E708E5D9307E
:10110000E003121822E52130E008E5DA30E00312AE
:101110001574E52130E108E5DB30E003121824E521
:101120002130E208E5DC30E003121825D007D006B4
:10113000D005D004D003D002D001D000D0D0D082CE
:10114000D083D0F0D0E032AE07E4F5261216E3905B
:101150000000E004FF1216EA1211BA900000E0FF4E
:10116000E526C39F501412162EE0547FFF1216EA94
:1011700012162E121628052680E1900074E0547F86
:10118000FF1216EA9000741216281211BAE4F5261E
:10119000900073E0FFE526C39F50177403252612C5
:1011A000161C0526E526541F70E612181612180F95
:1011B00080DE7F551216EA02181612181612180F42
:1011C000228E298F2A8B2B8A2C892DE4F52E9000D4
:1011D00000E0FFE52EC39F505EE52AAE297803CEDE
:1011E000C313CE13D8F9FDAC06E52AAE297802CE9A
:1011F000C313CE13D8F92DFFEE3CAB07FA120C1532
:10120000E0FEA3E0FFC39BEE9A50028004AE02AF63
:1012100003AA06AB07120C15E0FCA3E0FDAF2AAE53
:10122000291216C0500DAB2BAA2CA92DE52E1207A2
:1012300088D322052E8097C3224200E1000042009D
:10124000DD00004200E300004200DF0000C18341F6
:1012500000EAA44100830041008400420001000034
:1012600042008500004200770000C1044100730085
:1012700041008200410079004100000048007A00EE
:1012800000000000000000410076004100D900414C
:1012900000DB004100D7004100D8004100DC0041E4
:1012A00000D600C1054100DA00410095A4008F2658
:1012B0008C278D28EF120BA6AA06F97BFFEF120BE5
:1012C000F0FDEF120C2BF52EEF120CCC120BB08EA2
:1012D0002FF530EF120C3AF531EF120CD7120BB09C
:1012E0008E32F533EF120C49F534EFC454F024CEAE
:1012F000F582E4341A120BB08E35F536EFC454F093
:1013000024D0F582E4341AF583E493F537EF120C18
:1013100058F53885273985283A020E17C0E0C08372
:10132000C082C0D075D000C004C005C006C007533D
:10133000C87F9000E1E0FEA3E0FF4E700353C8FBBE
:101340009000DD12152750099000E1E4F0A3F08031
:101350000DC39000E2E09DF09000E1E09CF0D0072A
:10136000D006D005D004D0D0D082D083D0E032C017
:10137000E0C083C082C0D075D000C004C005C006E4
:10138000C00753917F9000E3E0FEA3E0FF4E70039F
:101390005391FB9000DF12152750099000E3E4F011
:1013A000A3F0800DC39000E4E09DF09000E3E09C8A
:1013B000F0D007D006D005D004D0D0D082D083D0D2
:1013C000E032120817FDACF0AF2BAE2A8F828E836D
:1013D000AF05AE04121797AB07AA06D3EB94F4EA55
:1013E000940140067E017FF48004AE02AF03AA069A
:1013F000AB07C3EB9464EA940050067E007F6480E0
:1014000004AE02AF03AA06AB07AF82AE831216C0CA
:1014100022120C232401FDE433FCE0540F6D700113
:10142000EC603AE0540F7010E0C4540F2401FDE466
:1014300033FCED64044C6025120C23120CB5EEF065
:10144000A3EFF0120C2304C454F0FFE0540F4FF04C
:10145000E0C4540FC394044004E0540FF022AE05DE
:10146000AD07E4FCFB7FAA1216EAAF051216EAEEFE
:10147000C454F02497F582E4341CF583E493FFEC24
:10148000C39F500774082CFC0B80F4EB04FF12166A
:10149000E5E4FCECC39B500974032C12161C0C8071
:1014A000F27F551216EA021816AE07E4FDF5261271
:1014B00016E3900001E0FF1216EA900001121628D0
:1014C000900077E0FF1216EA90007712162890003D
:1014D00085E0FF1216EA90008512162874032D127B
:1014E000161C0DBD03F67F551216EA021816AB073F
:1014F000AA06E4F9F87F407E427D0FFC12088BA813
:1015000004A905AA06AB077F207ED77D757C011252
:10151000088BC3E49FFFE49EFE22AB07AA06E4F912
:10152000F87FE87E03FD22E0FCA3E0FDC3EF9DEE23
:101530009C22ADDA120C23FCE0540FB50402C32246
:1015400053DAFE900076E0540F120CB5E0FBA3E0F6
:101550008F828E83CBF0A3EBF0900076E054F0FF07
:10156000E0044FF0E0540FC394044004E054F0F062
:101570008DDAD322ABFBAAFCA9D9D3EB94CCEA94A5
:101580000C40067A7F7BFF800F7C007D0AAF03AEA4
:101590000212079AAA06AB0753D9BFE4F5FAF5F988
:1015A00089D97F002093027F01EF120C7E4AFEEB67
:1015B000FF0214119000D9E0FF9000D7E0B50705B5
:1015C0007E017F00229000D712163CE0FD7C009047
:1015D00000D7E004F0E0B44002E4F09000D6E0FE72
:1015E000EE4204E4F0AE04AF05227E007F3C7D00B5
:1015F0007B007A00796612094F7F0B12181F43DABD
:10160000011200707D0A7C007F017E0012167012AC
:10161000001DE4900084F0900083F022F582E43411
:1016200000F583E0FF0216EAA3E0FF0216EAE526D2
:1016300025E02487F582E43400F58322E02496F542
:1016400082E43400F583228E378F388C398D3A123C
:10165000151A1214FB1217739000E1E539F0A3E597
:101660003AF09000DDE537F0A3E538F043C80422F6
:101670008E268F278C288D2912151A1214FB12170B
:101680007F9000E3E528F0A3E529F09000DFE52650
:10169000F0A3E527F04391042212002A1217EB125F
:1016A00017F21217A312180712173F1217C11217B9
:1016B000AD1217B712178B1217F912180B02180078
:1016C000C3ED9BF582EC9AF583C3E5829FE5839E8B
:1016D000500FED2BFDEC3AFCC3EF9DEE9C500280C9
:1016E00001C3227FAA1216EAAF06C2059000DBE012
:1016F000B42002E4F09000DBE02446F8A607E00402
:10170000F0A3E004F022A3E493FE74019322E4909A
:1017100000E6F0A3F0225480C4131313540124FFF5
:1017200022900084E024FD227E1DE4FDEF30E706D8
:1017300025E06EFF8004EF25E0FF0DBD08EE22AF2F
:10174000885388AF758CA0758DCBEF5440FEEF5455
:10175000104E428822121766D2031215EA9000EA50
:10176000E0900095F022AE071216E37F551216EABC
:10177000021816AD07AC06ECF5CBAF058FCA22AD4B
:1017800007AC06ECF593AF058F9222C2DE75D90542
:1017900075F9FF75960122EF7802CEC313CE13D8E8
:1017A000F9FF2275E34075E10175E20122E59154EC
:1017B000045391FB429122758E54758922438850BF
:1017C00022E5C8540453C8FB42C82253984FEB4F3C
:1017D0004DF59822E5C8C320E201D322E591C3204C
:1017E000E201D32253C8FB53C87F2275A41175D4DC
:1017F000CF2275A54175D5772253F77F75DA302250
:1018000075E69075A8B022E4F5A92243981022301D
:1018100005FD22C2DE22D299228F9922AF99228F12
:101820008C2222222222015E041A2A620802080166
:101830000900019004B00BB81C520A03080109000A
:1018400001C20384286E020800090108014A0276D9
:101850002A4E020800090108028A1E82071C0F8C0A
:10186000080108020803016802D012C005DC0A035F
:1018700008010900024E05DC01AE348A0A030801A2
:101880000900012C0A00008C047E27F608010803D9
:10189000080208020803080401040A9A051428A093
:1018A0000801080008020802080008030172043851
:1018B0001982020801080009029407D00FA023280A
:1018C0000803080108020801061802D000D2080126
:1018D0000A0109020A0101D603FC0BFE02080108F5
:1018E0000009019002D0132E010A000901080230FC
:1018F00007760F322274030801080208182603181D
:101900002C02182E02183002000000181832041899
:101910003A02183C02183E02000000181840031852
:101920004602184802184A0200000018184C031812
:1019300052021854021856020000000C18580418DD
:101940006002186202186402000000281866041879
:101950006E02187002187202000000281874041831
:101960007C02187E021880020000001818820518F8
:101970008C02188E041892041896022018980418E5
:10198000A00218A20418A60418AA022018AC031872
:10199000B20218B40218B6020000001118B80418F8
:1019A000C00218C20218C40218C6022418C80318BC
:1019B000CE0218D00218D20218D4022818D6031862
:1019C000DC0218DE0218E0020000001418E203181E
:1019D000E80218EA0218EC020000002718EE0418CA
:1019E000F60218F80218FA0200000024015E041A38
:1019F0002A62080208010900019004B00BB81C52C9
:101A00000A030801090001C20384286E02080009C4
:101A10000108014A02762A4E020800090108028ADA
:101A20001E82071C0F8C080108020803016802D0FF
:101A300012C005DC0A0308010900024E05DC01AEF4
:101A4000348A0A0308010900012C0A00008C047E74
:101A500027F6080108030802080208030804010425
:101A60000A9A051428A008010800080208020800C4
:101A7000080301720438198202080108000902945F
:101A800007D00FA023280803080108020801061840
:101A900002D000D208010A0109020A0101D603FCA2
:101AA0000BFE020801080009019002D0132E010A62
:101AB00000090108023007760F322274030801087A
:101AC000020819EC0319F20219F40219F6020000D7
:101AD000001819F8041A00021A02021A040200007F
:101AE00000181A06031A0C021A0E021A100200003D
:101AF00000181A12031A18021A1A021A1C020000FD
:101B0000000C1A1E041A26021A28021A2A020000C1
:101B100000281A2C041A34021A36021A380200005D
:101B200000281A3A041A42021A44021A4602000015
:101B300000181A48051A52021A54041A58041A5C5A
:101B400002201A5E041A66021A68041A6C041A70DB
:101B500002201A72031A78021A7A021A7C02000012
:101B600000111A7E041A86021A88021A8A021A8C36
:101B700002241A8E031A94021A96021A98021A9ACA
:101B800002281A9C031AA2021AA4021AA602000032
:101B900000141AA8031AAE021AB0021AB202000008
:101BA00000271AB4041ABC021ABE021AC0020000AE
:101BB0000024015E041A2A6208020801090001904B
:101BC00004B00BB81C520A030801090001C20384C7
:101BD000286E020800090108014A02762A4E02080E
:101BE00000090108028A1E82071C0F8C08010802E6
:101BF0000803016802D012C005DC0A0308010900CD
:101C0000024E05DC01AE348A0A0308010900012CEA
:101C10000A00008C047E27F6080108030802080267
:101C20000803080401040A9A051428A00801080002
:101C30000802080208000803017204381982020829
:101C400001080009029407D00FA023280803080107
:101C500008020801061802D000D208010A01090290
:101C60000A0101D603FC0BFE0208010800090190DD
:101C700002D0132E010A00090108023007760F3244
:101C800022740308010802081BB2031BB8021BBA26
:101C9000021BBC02000000181BBE041BC6021BC8AE
:101CA000021BCA02000000181BCC031BD2021BD46B
:101CB000021BD602000000181BD8031BDE021BE02B
:101CC000021BE2020000000C1BE4041BEC021BEEF2
:101CD000021BF002000000281BF2041BFA021BFC8E
:101CE000021BFE02000000281C00041C08021C0A43
:101CF000021C0C02000000181C0E051C18021C1A05
:101D0000041C1E041C2202201C24041C2C021C2E59
:101D1000041C32041C3602201C38031C3E021C40EA
:101D2000021C4202000000111C44041C4C021C4E08
:101D3000021C50021C5202241C54031C5A021C5C3C
:101D4000021C5E021C6002281C62031C68021C6AE2
:101D5000021C6C02000000141C6E031C74021C7632
:101D6000021C7802000000271C7A041C82021C84DA
:081D7000021C860200000024A1
:00000001FF
