:020000040000FA
:100000000210C2A2029290A2029280AD40AC3F7F49
:100010000A7E0012002E12001DA202B322E59120DA
:10002000E2FB220210327597A522220213AB8E4109
:100030008F428C438D4412157D121849E54424BF2C
:100040009000E6F0E54334FF9000E5F09000E1E534
:1000500041F0A3E542F0439104222202115112180B
:10006000DD53D87853DAFE1218AEE4900086F02201
:10007000D2DE220213FE121755C290C296C280E44D
:10008000FBFD7F1012189512167CD2AF1217CAD240
:10009000969000E9E004F070069000E8E004F0902B
:1000A00000E8E0B427E9A3E0B410E4C29612002609
:1000B0003003091216468E228F23800675220175A1
:1000C0002300E5237004E522640170469000DCE023
:1000D00070061217CB0202739000E8E475F001126B
:1000E00007EEFED3E5F09410EE94274002D296D3AB
:1000F0009000E9E094309000E8E09475500302022B
:1001000073E4F0A3F09000DCF0900097F0C2960248
:1001100002731217CA9000DCE014602A1470030204
:1001200002301470030201EE14700302020724046B
:100130006003020273E52364AA6003020273900065
:10014000DC04F00202739000DC7402F0E523120973
:100150001601E5A00176A10178A50194A6019CA74E
:1001600001A9A801C2A901AFB001B7B10189C001BD
:10017000E5FF000001D7804A1205319000E77408BE
:10018000F0E4F525752409805C120531E4F5257548
:100190002402805112055474A6F08049120554744B
:1001A000A4F0752200F523803C9000E77408F090DD
:1001B00000DC7403F0802E12167C9000EC74B1F019
:1001C00080237D3212051412167C7D307C757F01F0
:1001D0007E0012172C800E900097E0752200F52308
:1001E000E49000DCF0E523900097F0020273E4F560
:1001F00025E523F524E524D39400402C12005E90DD
:1002000000DC7404F0806C74032525F582E434006E
:10021000F583E523F00525E525B52402800AE525CB
:10022000C39470404E7524709000DC7402F08043DB
:10023000E5236455703D9000DCF0C203900097E028
:100240002460601F24FC601224FE600E14600B24E6
:10025000F76017146004241070197FA0121830D2B0
:10026000038010120525D2038009900004E0049059
:1002700000E7F0900097E0120916029CA10315A474
:10028000036CA50315A60431A8029CA90466B0045A
:10029000CFB10413C0042CFF000000AD900085E036
:1002A00030E7387DC8120514900097E02457600E9F
:1002B0002408701A1205257FA31215388010121613
:1002C0007C9000ECE0900097F07FAB120563E49027
:1002D0000085F043DA01D2030200AD1218A65020C7
:1002E0007DE87C03120545900097E02457600C24BC
:1002F0000860030200AD7FA20204C17FAA0204C10C
:1003000012055B40030200AD900097E07F01B4A1AD
:10031000027F008039900085E030E71F900097E071
:10032000245A600F240260030204DB7FA4121538F4
:100330000204DB7FA61205630204DB12055B4003A7
:100340000200AD900097E07F01B4A4027F00C007D7
:100350009000EAE0FEA3E0FFEE547FFCAD07EE1252
:1003600017D29200D007120B390200AD9000DCE0EA
:1003700060030200AD1217DD70030204062405605D
:10038000030200AD12053B900005E0FFA3E09000E2
:1003900089CFF0A3EFF0900007E0FFA3E090008B7F
:1003A000CFF0A3EFF0900003E0FFA3E090008DCF2B
:1003B000F0A3EFF07B017A0079899019C9E493FCEE
:1003C000740193FD9019CBE493F52E1217C28E2F72
:1003D000F5309019CEE493F5311217C28E32F53311
:1003E0009019D1E493F5341217C28E35F536901971
:1003F000D4E493F537A3E493F538753900753A09D9
:10040000120EA60200AD9000E7E07058C2807FA0F7
:100410000204C19000DCE060030200AD900003E044
:10042000FCA3E0FD1205457FA00204C17F03020486
:10043000C19000DCE060030200AD1217DD601924FA
:100440000560030200AD12053B900003E0FF7C0055
:100450007D0412133D0200AD9000E7E07006C280FB
:100460007FA0805D80619000DCE060030200AD123F
:1004700017DD6043240560030200AD9000E7E0143F
:10048000F012005E7E007F05C006C007900003E00A
:10049000FB25E0FFE433FE74052FF58274003EADCA
:1004A00082FCEB25E0FFE52424FEC39FFBD007D0B0
:1004B00006120F910200AD9000E7E0700AC2807F43
:1004C000A01218110200ADE4900086F00200AD9079
:1004D0000085E030E7107FB11211D6E4900085F07E
:1004E00043DA010200AD7E007FEA121604400302E7
:1004F00000AD9000EAE0FCA3E0FDEC547FFEAF0508
:10050000C006C007EC1217D29200D007D006120D19
:10051000020200AD7C007F017E0012172CD29612E1
:10052000001DC2962212167C9000ECE0900097F01D
:100530002212005E9000DC7404F0229000E7E014C8
:10054000F012005E227F017E0012172CD29612005C
:100550001DC2962212167C9000EC227E007FEA12C9
:10056000160422900085E0547FFD1214ED228F299D
:10057000E4F536EF25E025E02468F8E6701EEF2567
:10058000E025E02469F876087E007F707D007B011D
:100590007A00790312093CE4900079F0AB2CAA2D83
:1005A000A92EC0011209822466F9E7540F120AC667
:1005B0001209A1D001121451503D1209822466F98A
:1005C000E7540FFF120AC6120AB3300101B34031DB
:1005D000EF700A900077E52AF0A3E52BF01209826C
:1005E000120AD22401FFEFFEEC54F04EFEEDFF1292
:1005F0000982120ABD800A1209822466F874F05634
:10060000F6AB2CAA2DA92EC001120982120ADE1205
:1006100009EC120AEA1209A1D00112145150521227
:100620000982120ADE1209ECFF120AEA5408FE12CD
:100630000AB5300101B34043EF700A900087E52A04
:10064000F0A3E52BF01209821209DD2401FFE43347
:10065000FEEFC4F8540FC868FFEEC454F048FEED36
:10066000540FFDEC4EFEED4FFF120982120ABD80C1
:100670000A1209822467F8740F56F6120982120AC8
:10068000D2FB700F1209E5700A1209682469F8E4B8
:10069000F6C3221209822468F8E5351466700375E2
:1006A0003601C3E53195366B7020D2901209822451
:1006B00066F874F056F6740F08561209812468F82B
:1006C000061209822469F816804C1209821209DD8B
:1006D000FFC3E53495366F703DD2901209822466CF
:1006E000F8EC54F0FEED540FA606081209812468B8
:1006F000F8061209822469F8161209821209F3E039
:10070000FF1209822469F8E6FE7401A80608800237
:10071000C333D8FC4FF01209822469F8E67017122F
:1007200009821209F3120A67FF1217E4EFF01209A7
:10073000822469F876081209822468F8E6C39535A0
:10074000403112189E5005E4900084F0120A646053
:10075000181218AE7D207C037F017E001217031251
:100760000AF6A3E529F04480F01209682469F8E448
:10077000F6D322C322BB010689828A83F02250026B
:10078000F722BBFE01F322EF8DF0A4A8F0CF8CF08E
:10079000A428CE8DF0A42EFE22BC000BBE0029EFB3
:1007A0008DF084FFADF022E4CCF875F008EF2FFF58
:1007B000EE33FEEC33FCEE9DEC984005FCEE9DFE26
:1007C0000FD5F0E9E4CEFD22EDF8F5F0EE8420D26D
:1007D0001CFEADF075F008EF2FFFED33FD400798DC
:1007E0005006D5F0F222C398FD0FD5F0EA22C5F0ED
:1007F000F8A3E028F0C5F0F8E582158270021583B1
:10080000E038F022BB0110E58229F582E5833AF554
:1008100083E0F5F0A3E0225009E92582F886F0088C
:10082000E622BBFE0AE92582F8E2F5F008E222E5BD
:10083000832AF583E993F5F0A3E9932275F008750F
:100840008200EF2FFFEE33FECD33CDCC33CCC5820B
:1008500033C5829BED9AEC99E58298400CF582EEC7
:100860009BFEED9AFDEC99FC0FD5F0D6E4CEFBE4AF
:10087000CDFAE4CCF9A88222B800C1B90059BA0077
:100880002DEC8BF084CFCECDFCE5F0CBF97818EFD2
:100890002FFFEE33FEED33FDEC33FCEB33FB10D7D3
:1008A00003994004EB99FB0FD8E5E4F9FA22781894
:1008B000EF2FFFEE33FEED33FDEC33FCC933C910EF
:1008C000D7059BE99A4007EC9BFCE99AF90FD8E021
:1008D000E4C9FAE4CCFB2275F010EF2FFFEE33FEF3
:1008E000ED33FDCC33CCC833C810D7079BEC9AE866
:1008F00099400AED9BFDEC9AFCE899F80FD5F0DAE7
:10090000E4CDFBE4CCFAE4C8F922A42582F582E523
:10091000F03583F58322D083D082F8E4937012748B
:100920000193700DA3A393F8740193F5828883E477
:10093000737402936860EFA3A3A380DFEF4E60128D
:10094000EF60010EEDBB010B89828A83F0A3DFFC0F
:10095000DEFA2289F05007F709DFFCA9F022BBFE7E
:10096000FCF309DFFCA9F022C290E52925E025E08F
:100970002466F8E4F608F6E52925E025E02468F881
:10098000E4F6E52925E025E022F583E493FF540809
:10099000FE131313541F24FF9202AB29AA2AA92B7A
:1009A000EF540775F002A4F58285F0832225E02537
:1009B000E02466F8E4F608F6E52825E025E024685A
:1009C000F8E4F6E52825E025E022C454F0248CF56F
:1009D00082E4341BF583E493FE740193222466F8C9
:1009E000E6FC08E6FDECC4F854F0C8EDC4540F482A
:1009F000540F222468F8E614131313541F2403F52C
:100A000082E43400F58322E529252BF582E435289C
:100A1000F583E022A200E433C43333335480452607
:100A2000FFE527900074CFF0A3EFF0E490007AF098
:100A300022C454F0248FF582E4341BF583E493FC44
:100A400074019322E6FC08E6FDECC4540F2401FF78
:100A5000EFC454F0FE22E52E25E02489F582E4342B
:100A600000F58322900084E0FF900079E06F2290EF
:100A70000076E0C4540F22C454F02491F582E4348B
:100A80001BF583E49322C454F02494F582E4341BD0
:100A9000F583E49322C454F02497F582E4341BF5E3
:100AA00083E49322C454F0249BF582E4341BF58341
:100AB000E493225408131313541F24FF222466F8CE
:100AC000A60608A607222530F582E4352FF583E433
:100AD00093222466F8E6FC08E6FDEC540F22246617
:100AE000F9E7C4F854F0C809E7222533F582E43564
:100AF00032F583E49322900079E0900084F053DA99
:100B0000FE2225E0247CF582E43400F58322A20055
:100B1000920185262A85272B22C454F02492F5823F
:100B2000E4341B22C454F02495F582E4341B2224BF
:100B300066F8E6FEEEC4540F228C268D27E4F528D5
:100B4000C3E5279464E52694005017E4F528E528CA
:100B50001209AD2469F8E4F60528E528B40FEFC2C0
:100B60009022EF147003020C24046003020D01783C
:100B700066E6C4540FF97065D3E5279494E526948E
:100B8000115003020D01300003020D01E9120A4D5C
:100B9000E6540FFC08E6FDEC4E18F6ED08F61812C8
:100BA0000A44EC540F4E18F6ED08F6900001E526C5
:100BB000F0A3E527F0AE26FF7C007D1F1207999079
:100BC0000089EEF0A3EFF07C007D03120787A3EE0F
:100BD000F0A3EFF0A3E526F0A3E527F0227866E680
:100BE000C4540F64026003020D01120B0E752C0138
:100BF000752D00752E89901B9293FE7401938E2F94
:100C0000F530901B94E493F531A31209D68E32F59A
:100C100033901B97E493F534901B9BE493F535E4F4
:100C2000FF02056EE4F5281209C3120B2FFFE52819
:100C3000120A77F9EFC399506EE528120A31F5824E
:100C40008C832FF582E43583F583E493FF120AB396
:100C5000300001B35003020CF5E528C454F0248C95
:100C6000F582E4341B120A3BF5828C83EF5407753E
:100C7000F00212090A120A3DFDAF27AE2612145BDC
:100C8000E528501925E025E02466F8120A44EC54C2
:100C90000F4EFEEDFF1209C3120ABD80581209ADB6
:100CA0002469F8E4F6804E1209C3120B2F697045CF
:100CB000120B0EE5281209CAAA06752CFF8A2DF51B
:100CC0002EE528120B191209D48E2FF530E52812C3
:100CD0000A86F531E528120B241209D48E32F53339
:100CE000E528120A95F534E528120AA4F535AF284F
:100CF00012056E400C0528E528C3940F5003020C22
:100D000027228E268F27C3E5279464E5269400507A
:100D100003020E94900086E024FE60251470030206
:100D20000DA324036003020E99C290AF27AE2612D2
:100D300018224003020E99120A149000867402F0E1
:100D400022120E9A503090007AE094044021D29002
:100D5000E4900000F0900073F0C20490007BF090EB
:100D60000079F0900003F09000867403F08025E491
:100D7000900086F0801E900074E0547FFEA3E0FF98
:100D8000D3E5279FE5269E4005120A1480069000B1
:100D90007AE004F090007AE0C394E05003020E99E8
:100DA000020E9490007BE004F090007AE0FFA3E054
:100DB000D39F4003020E427B007A007928AF27AE12
:100DC00026121250401F900000E0FF9407400302DB
:100DD0000E94EF120A58E526F0A3E527F08F28902D
:100DE0000000E004F0300429900073E0FFC3947029
:100DF0004003020E94A200E433C43333335480FE24
:100E0000E528C454F04EFE74032F1209FFEEF08063
:100E10002E900073E0FF1209FDE0FEA200E43333E0
:100E2000333354F84528FDEE4DF074032F1209FFBB
:100E3000120A67FF1217E4EFF0900073E004F0B2BB
:100E40000422120E9A504D12189E5005E490008410
:100E5000F0120A64603A1218AE7D207C037F017E96
:100E600000121703120AF6900003E0FD900074E0F0
:100E70005480FF900000E0C454F04FFFED4F90000D
:100E800003F0900074E0547FF0900085E04480F01F
:100E9000C2908000E4900086F022A2009201AF2769
:100EA000AE261216D9228B298A2A892B8C2C8D2DBD
:100EB000E4F53D753E80F53BE53BC3952E5010E5CE
:100EC0002D253BF582E4352C120F56053B80E9E4D5
:100ED000F53BE53BC395385057E53A253DF582E4AF
:100EE0003539F583E0553E7019F53CE53CC3953145
:100EF000502DE530253CF582E4352F120F56053C88
:100F000080E9E4F53CE53CC395345013E533253CDA
:100F1000F582E43532120989120F85053C80E6E539
:100F20003EC313F53E7005053D753E80053B80A22E
:100F3000E4F53BE53BC395375013E536253BF58299
:100F4000E43535120989120F85053B80E6C2909081
:100F500000867405F022F583E493FF5408FE131312
:100F600013541F24FF9202AB29AA2AA92BEF54077E
:100F700075F002A4F58285F083120804F54085F02F
:100F80003F12000322120804F54085F03F120003CF
:100F9000228E268F278C288D298B2AD200C201858C
:100FA0002982852883E05488D394004003D38001AC
:100FB000C39201E4F52BE52BC3952A505930010D5E
:100FC000120A07C4131313540124FF8002A20092D3
:100FD00002852782852683C083C082120A07FFC448
:100FE0005407D082D08312101F30010C120A07FF61
:100FF000131313541F138002A200920285278285C7
:101000002683C083C082120A075407D082D083127D
:10101000101F052B80A0C2909000867405F02275E9
:10102000F00212090AE0F53FA3E0F5401200039236
:101030000022C0E0C0F0C083C082C0D075D000C024
:1010400000C001C002C003C004C005C006C007E55F
:10105000985403F545F45298E54530E0171218E628
:101060009000DB1216CEEFF09000DBE004F0E0B46D
:101070004002E4F0E54530E12E9000DEE0D394003C
:10108000401A9000DAE02446F8E6FF1218E39000D8
:10109000DAE004F09000DEE014F08002D205900067
:1010A000DAE0B42002E4F0D007D006D005D004D0B6
:1010B00003D002D001D000D0D0D082D083D0F0D0E5
:1010C000E03212005A787FE4F6D8FD7581A1021152
:1010D0000C020076E493A3F8E493A34003F68001A6
:1010E000F208DFF48029E493A3F85407240CC8C362
:1010F00033C4540F4420C8834004F456800146F69C
:10110000DFE4800B01020408102040809012C8E444
:101110007E019360BCA3FF543F30E509541FFEE4F9
:1011200093A360010ECF54C025E060A840B8E493BB
:10113000A3FAE493A3F8E493A3C8C582C8CAC583FD
:10114000CAF0A3C8C582C8CAC583CADFE9DEE78082
:10115000BEC0E0C0F0C083C082C0D075D000C00067
:10116000C001C002C003C004C005C006C007E5D866
:101170005487F521F452D8E5F730E508E5F730E675
:10118000031218ED53F7DFE52130E708E5D930E029
:10119000031218ECE52130E008E5DA30E00312151F
:1011A000C1E52130E108E5DB30E0031218EEE5216E
:1011B00030E208E5DC30E0031218EFD007D006D0AB
:1011C00005D004D003D002D001D000D0D0D082D03E
:1011D00083D0F0D0E032AE07E4F52612179F9000DE
:1011E00000E004FF1217A6121249900000E0FFE58C
:1011F00026C39F50141216C0E0547FFF1217A61288
:1012000016C01216BA052680E1900074E0547FFFE4
:101210001217A69000741216BA121249E4F526901D
:101220000073E0FFE526C39F5017740325261216AE
:10123000AE0526E526541F70E61218E01218D98074
:10124000DE7F551217A60218E01218E01218D922F4
:101250008E298F2A8B2B8A2C892DE4F52E90000065
:10126000E0FFE52EC39F505EE52AAE297803CEC38A
:1012700013CE13D8F9FDAC06E52AAE297802CEC309
:1012800013CE13D8F92DFFEE3CAB07FA120A56E045
:10129000FEA3E0FFC39BEE9A50028004AE02AF03B0
:1012A000AA06AB07120A56E0FCA3E0FDAF2AAE295E
:1012B00012177C500DAB2BAA2CA92DE52E12077509
:1012C000D322052E8097C3224200E300004200DFB4
:1012D00000004200E500004200E10000C18341003F
:1012E000ECA441008500410086004200010000425C
:1012F000008700004200770000C1044100730041F4
:10130000008400410079004100000048007C00009A
:10131000000000000000410076004100DB004100B9
:10132000DD004100D9004100DA004100DE0041004B
:10133000D800C1054100DC00410097A4008F268C35
:10134000278D28EF1209CAAA06F97BFFEF120A318E
:10135000FDEF120A77F52EEF120B191209D48E2F1A
:10136000F530EF120A86F531EF120B241209D48EF4
:1013700032F533EF120A95F534EFC454F02498F5A2
:1013800082E4341B1209D48E35F536EFC454F024B0
:101390009AF582E4341BF583E493F537EF120AA43F
:1013A000F53885273985283A020EA6C0E0C083C0EB
:1013B00082C0D075D000C004C005C006C00753C8A5
:1013C0007F9000E3E0FEA3E0FF4E700353C8FB9064
:1013D00000DF1215B650099000E3E4F0A3F0800D91
:1013E000C39000E4E09DF09000E3E09CF0D007D0D3
:1013F00006D005D004D0D0D082D083D0E032C0E077
:10140000C083C082C0D075D000C004C005C006C073
:101410000753917F9000E5E0FEA3E0FF4E70035379
:1014200091FB9000E11215B650099000E5E4F0A39D
:10143000F0800DC39000E6E09DF09000E5E09CF0A8
:10144000D007D006D005D004D0D0D082D083D0E051
:1014500032120804FDACF0AF2BAE2A8F828E83AF20
:1014600005AE04121861AB07AA06D3EB94F4EA9414
:101470000140067E017FF48004AE02AF03AA06ABF2
:1014800007C3EB9464EA940050067E007F648004F6
:10149000AE02AF03AA06AB07AF82AE8312177C225F
:1014A000120A6F2401FDE433FCE0540F6D7001EC6F
:1014B000603AE0540F7010E0C4540F2401FDE4338F
:1014C000FCED64044C6025120A6F120B02EEF0A3CF
:1014D000EFF0120A6F04C454F0FFE0540F4FF0E035
:1014E000C4540FC394044004E0540FF022AE05AD81
:1014F00007E4FCFB7FAA1217A6AF051217A6EEC4DD
:1015000054F02461F582E4341DF583E493FFECC3C9
:101510009F500774082CFC0B80F4EB04FF1217A1FA
:10152000E4FCECC39B500974032C1216AE0C80F241
:101530007F551217A60218E0AE07E4FDF526121734
:101540009F900001E0FF1217A69000011216BA90BA
:101550000077E0FF1217A69000771216BA90008766
:10156000E0FF1217A69000871216BA74032D121608
:10157000AE0DBD03F67F551217A60218E0AB07AA01
:1015800006E4F9F87F407E427D0FFC120878A8043B
:10159000A905AA06AB077F207ED77D757C011208BE
:1015A00078C3E49FFFE49EFE22AB07AA06E4F9F8A5
:1015B0007FE87E03FD22E0FCA3E0FDC3EF9DEE9CEF
:1015C00022ABFBAAFCA9D9D3EB94CCEA940C40063D
:1015D0007A7F7BFF800F7C007D0AAF03AE0212078B
:1015E00087AA06AB0753D9BFE4F5FAF5F989D97F85
:1015F000002093027F01EFC433333354804AFEEB63
:10160000FF0214A0ADDA120A6FFCE0540FB5040219
:10161000C32253DAFE900076E0540F120B02E0FB77
:10162000A3E08F828E83CBF0A3EBF0900076E054A2
:10163000F0FFE0044FF0E0540FC394044004E05482
:10164000F0F08DDAD3229000DBE0FF9000D9E0B516
:1016500007057E017F00229000D91216CEE0FD7CA6
:10166000009000D9E004F0E0B44002E4F09000D82B
:10167000E0FEEE4204E4F0AE04AF05227E007F3CC3
:101680007D007B007A00796612093C7F0B1218E915
:1016900043DA011200707D0A7C007F017E00121780
:1016A0002C12001DE4900086F0900085F022F58257
:1016B000E43400F583E0FF0217A6A3E0FF0217A6BB
:1016C000E52625E02489F582E43400F58322E02430
:1016D00098F582E43400F58322AD07AC06900074DF
:1016E000E0FAA3E0FBEA5480C4131313540170051D
:1016F000300102C322AF05AE04EA547FFCAD0312F1
:10170000145B228E378F388C398D3A1215A9121539
:101710008A12183D9000E3E539F0A3E53AF0900015
:10172000DFE537F0A3E538F043C804228E268F2783
:101730008C288D291215A912158A1218499000E5D6
:10174000E528F0A3E529F09000E1E526F0A3E527E0
:10175000F04391042212002A1218B51218BC121874
:101760006D1218D11217FB12188B121877121881EC
:101770001218551218C31218D50218CAC3ED9BF5DA
:1017800082EC9AF583C3E5829FE5839E500FED2B93
:10179000FDEC3AFCC3EF9DEE9C50028001C3227F1A
:1017A000AA1217A6AF06C2059000DDE0B42002E43D
:1017B000F09000DDE02446F8A607E004F0A3E00482
:1017C000F022A3E493FE74019322E49000E8F0A3D6
:1017D000F0225480C4131313540124FF2290008676
:1017E000E024FB227E1DE4FDEF30E70625E06EFFDE
:1017F0008004EF25E0FF0DBD08EE22AF885388AFCF
:10180000758CA0758DCBEF5440FEEF54104E42887E
:1018100022121830D20312167C9000ECE090009750
:10182000F022C3EF942CEE94014003D38001C32235
:10183000AE0712179F7F551217A60218E0AD07AC2E
:1018400006ECF5CBAF058FCA22AD07AC06ECF593DD
:10185000AF058F9222C2DE75D90575F9FF75960125
:1018600022EF7802CEC313CE13D8F9FF2275E340DE
:1018700075E10175E20122E59154045391FB429117
:1018800022758E5475892243885022E5C85404532A
:10189000C8FB42C82253984FEB4F4DF59822E5C83C
:1018A000C320E201D322E591C320E201D32253C831
:1018B000FB53C87F2275A41175D4CF2275A541753D
:1018C000D5772253F77F75DA302275E69075A8B088
:1018D00022E4F5A922439810223005FD22C2DE221F
:1018E000D299228F9922AF99228F8C2222222222F2
:1018F000015E041A2A62080208010900019004B07E
:101900000BB81C520A030801090001C20384286EA7
:10191000020800090108014A02762A4E020800095D
:101920000108028A1E82071C0F8C080108020803A6
:10193000016802D012C005DC0A0308010900024E4A
:1019400005DC01AE348A0A0308010900012C0A00F3
:10195000008C047E27F60801080308020802080329
:10196000080401040A9A051428A0080108000802C6
:1019700008020800080301720438198202080108ED
:101980000009029407D00FA02328080308010802C9
:101990000801061802D000D208010A0109020A0152
:1019A00001D603FC0BFE020801080009019002D0D9
:1019B000132E010A00090108023007760F32227443
:1019C00003080108020818F00318F60218F80218B4
:1019D000FA020000001818FC041904021906021982
:1019E000080200000018190A03191002191202193E
:1019F000140200000018191603191C02191E0219FE
:101A000020020000000C192204192A02192C0219C4
:101A10002E0200000028193004193802193A021960
:101A20003C0200000028193E041946021948021918
:101A30004A0200000018194C0519560219580419D9
:101A40005C0419600220196204196A02196C0419F5
:101A5000700419740220197603197C02197E021988
:101A6000800200000011198204198A02198C0219DF
:101A70008E0219900224199203199802199A0219D8
:101A80009C02199E022819A00319A60219A802197E
:101A9000AA020000001419AC0319B20219B4021909
:101AA000B6020000002719B80419C00219C20219B1
:101AB000C40200000024015E041A2A620802080120
:101AC0000900019004B00BB81C520A030801090078
:101AD00001C20384286E020800090108014A027647
:101AE0002A4E020800090108028A1E82071C0F8C78
:101AF000080108020803016802D012C005DC0A03CD
:101B000008010900024E05DC01AE348A0A0308010F
:101B10000900012C0A00008C047E27F60801080346
:101B2000080208020803080401040A9A051428A000
:101B300008010800080208020800080301720438BE
:101B40001982020801080009029407D00FA0232877
:101B50000803080108020801061802D000D2080193
:101B60000A0109020A0101D603FC0BFE0208010862
:101B70000009019002D0132E010A00090108023069
:101B800007760F3222740308010802081AB6031AF6
:101B9000BC021ABE021AC002000000181AC2041ABF
:101BA000CA021ACC021ACE02000000181AD0031A78
:101BB000D6021AD8021ADA02000000181ADC031A38
:101BC000E2021AE4021AE6020000000C1AE8041A03
:101BD000F0021AF2021AF402000000281AF6041A9F
:101BE000FE021B00021B0202000000281B04041B53
:101BF0000C021B0E021B1002000000181B12051B1A
:101C00001C021B1E041B22041B2602201B28041B73
:101C100030021B32041B36041B3A02201B3C031B00
:101C200042021B44021B4602000000111B48041B19
:101C300050021B52021B54021B5602241B58031B4A
:101C40005E021B60021B62021B6402281B66031BF0
:101C50006C021B6E021B7002000000141B72031B3F
:101C600078021B7A021B7C02000000271B7E041BEB
:101C700086021B88021B8A0200000024015E041AEF
:101C80002A62080208010900019004B00BB81C5236
:101C90000A030801090001C20384286E0208000932
:101CA0000108014A02762A4E020800090108028A48
:101CB0001E82071C0F8C080108020803016802D06D
:101CC00012C005DC0A0308010900024E05DC01AE62
:101CD000348A0A0308010900012C0A00008C047EE2
:101CE00027F6080108030802080208030804010493
:101CF0000A9A051428A00801080008020802080032
:101D000008030172043819820208010800090294CC
:101D100007D00FA0232808030801080208010618AD
:101D200002D000D208010A0109020A0101D603FC0F
:101D30000BFE020801080009019002D0132E010ACF
:101D400000090108023007760F32227403080108E7
:101D500002081C7C031C82021C84021C86020000F8
:101D600000181C88041C90021C92021C94020000A3
:101D700000181C96031C9C021C9E021CA002000062
:101D800000181CA2031CA8021CAA021CAC02000022
:101D9000000C1CAE041CB6021CB8021CBA020000E7
:101DA00000281CBC041CC4021CC6021CC802000083
:101DB00000281CCA041CD2021CD4021CD60200003B
:101DC00000181CD8051CE2021CE4041CE8041CECEE
:101DD00002201CEE041CF6021CF8041CFC041D006E
:101DE00002201D02031D08021D0A021D0C02000034
:101DF00000111D0E041D16021D18021D1A021D1CC5
:101E000002241D1E031D24021D26021D28021D2A58
:101E100002281D2C031D32021D34021D3602000053
:101E200000141D38031D3E021D40021D4202000029
:101E300000271D44041D4C021D4E021D50020000CF
:021E400000247C
:00000001FF
