:020000040000FA
:10000000021033A2029290A2029280AD40AC3F7FD8
:100010000A7E0012002E12001DA202B322E59120DA
:10002000E2FB22020FA37597A5222202131C8E4128
:100030008F428C438D441214EF121774E54424BF91
:100040009000E4F0E54334FF9000E3F09000DFE53A
:1000500041F0A3E542F043910422220210C212189B
:100060000853D87853DAFE1217D9E4900084F022AE
:10007000D2DE2202136F12168EC290C296C280E4A4
:10008000FBFD7F101217C01215DFD2AF121703D27B
:10009000969000E7E004F070069000E6E004F0902F
:1000A00000E6E0B427E9A3E0B410E4C2961200260B
:1000B0003003091215A98E228F238006752201753F
:1000C0002300E5237004E522640170469000DAE025
:1000D00070061217040202739000E6E475F0011234
:1000E00007F8FED3E5F09410EE94274002D296D3A1
:1000F0009000E7E094309000E6E09475500302022F
:1001000073E4F0A3F09000DAF0900095F0C296024C
:1001100002731217039000DAE014602A14700302CD
:1001200002301470030201EE14700302020724046B
:100130006003020273E52364AA6003020273900065
:10014000DA04F00202739000DA7402F0E523120977
:100150002001E5A00176A10178A50194A6019CA744
:1001600001A9A801C2A901AFB001B7B10189C001BD
:10017000E5FF000001D7804A12052B9000E57408C6
:10018000F0E4F525752409805C12052BE4F525754E
:100190002402805112054E74A6F0804912054E7457
:1001A000A4F0752200F523803C9000E57408F090DF
:1001B00000DA7403F0802E1215DF9000EA74B1F0BB
:1001C00080237D3212050E1215DF7D307C757F0194
:1001D0007E00121665800E900095E0752200F523D2
:1001E000E49000DAF0E523900095F0020273E4F564
:1001F00025E523F524E524D39400402C12005E90DD
:1002000000DA7404F0806C74032525F582E4340070
:10021000F583E523F00525E525B52402800AE525CB
:10022000C39470404E7524709000DA7402F08043DD
:10023000E5236455703D9000DAF0C203900095E02C
:100240002460601F24FC601224FE600E14600B24E6
:10025000F76017146004241070197FA012175BD286
:1002600003801012051FD2038009900004E004905F
:1002700000E5F0900095E0120920029CA10312A471
:100280000369A50312A6042EA8029CA90463B00466
:10029000CCB10410C00429FF000000AD900083E041
:1002A00030E7357DC812050E900095E02457600EAA
:1002B0002408701A12051F7FA31214AA80101215A9
:1002C000DF9000EAE0900095F07FAB12055DE490CE
:1002D0000083F0D2030200AD1217D150207DE87CDC
:1002E0000312053F900095E02457600C240860033A
:1002F0000200AD7FA20204BE7FAA0204BE12055511
:1003000040030200AD900095E07F01B4A1027F00A0
:100310008039900083E030E71F900095E0245A6018
:100320000F240260030204D87FA41214AA0204D886
:100330007FA612055D0204D812055540030200ADE8
:10034000900095E07F01B4A4027F00C0079000E810
:10035000E0FEA3E0FFEE547FFCAD07EE12170B9218
:1003600000D0071209720200AD9000DAE0600302CB
:1003700000AD121716700302040324036003020089
:10038000AD120535900005E0FFA3E0900087CFF0A7
:10039000A3EFF0900007E0FFA3E0900089CFF0A367
:1003A000EFF0900003E0FFA3E090008BCFF0A3EF0D
:1003B000F07B017A0079879018F4E493FC74019340
:1003C000FD9018F6E493F52E1216FB8E2FF5309063
:1003D00018F9E493F5311216FB8E32F5339018FCC0
:1003E000E493F5341216FB8E35F5369018FFE4933E
:1003F000F537A3E493F538753900753A09120E17ED
:100400000200AD9000E5E07058C2807FA00204BEFB
:100410009000DAE060030200AD900003E0FCA3E08E
:10042000FD12053F7FA00204BE7F030204BE9000C0
:10043000DAE060030200AD121716601924036003AE
:100440000200AD120535900003E0FF7C007D041230
:1004500012AE0200AD9000E5E07006C2807FA08081
:100460005D80619000DAE060030200AD1217166053
:1004700043240360030200AD9000E5E014F0120095
:100480005E7E007F05C006C007900003E0FB25E00C
:10049000FFE433FE74052FF58274003EAD82FCEB61
:1004A00025E0FFE52424FEC39FFBD007D006120FF2
:1004B000020200AD9000E5E0700AC2807FA0121732
:1004C0004A0200ADE4900084F00200AD900083E0A9
:1004D00030E70D7FB1121147E4900083F00200ADC8
:1004E0007E007FE812141140030200AD9000E8E0A6
:1004F000FCA3E0FDEC547FFEAF05C006C007EC1284
:10050000170B9200D007D006120CEF0200AD7C0052
:100510007F017E00121665D29612001DC29622122D
:1005200015DF9000EAE0900095F02212005E900046
:10053000DA7404F0229000E5E014F012005E227FED
:10054000017E00121665D29612001DC29622121567
:10055000DF9000EA227E007FE812141122900083CF
:10056000E0547FFD12145F228F29E4F536EF25E079
:1005700025E02468F8E6701EEF25E025E02469F800
:1005800076087E007F707D007B017A007903120976
:1005900046E4900079F0AB2CAA2DA92EC001120BD5
:1005A000552466F9E7540F120C7E120B74D0011219
:1005B00013C2503D120B552466F9E7540FFF120C7D
:1005C0007E120C60300101B34031EF700A90007769
:1005D000E52AF0A3E52BF0120B55120C8A2401FF3B
:1005E000EFFEEC54F04EFEEDFF120B55120C6A803C
:1005F0000A120B552466F874F056F6AB2CAA2DA9F6
:100600002EC001120B55120C96120BBF120CA21227
:100610000B74D0011213C25052120B55120C9612C9
:100620000BBFFF120CA25408FE120C62300101B382
:100630004043EF700A900085E52AF0A3E52BF01205
:100640000B55120BB02401FFE433FEEFC4F8540F36
:10065000C868FFEEC454F048FEED540FFDEC4EFEAA
:10066000ED4FFF120B55120C6A800A120B552467CE
:10067000F8740F56F6120B55120C8AFB700F120B02
:10068000B8700A120B3B2469F8E4F6C322120B552A
:100690002468F8E53514667003753601C3E53195B5
:1006A000366B7020D290120B552466F874F056F613
:1006B000740F0856120B542468F806120B5524695F
:1006C000F816804C120B55120BB0FFC3E53495366B
:1006D0006F703DD290120B552466F8EC54F0FEED8D
:1006E000540FA60608120B542468F806120B552462
:1006F00069F816120B55120BD3E0FF120B55246943
:10070000F8E6FE7401A806088002C333D8FC4FF057
:10071000120B552469F8E6701B120B55120BD3E02F
:10072000FF900079E06FFF12171DEFF0120B5524B8
:1007300069F87608120B552468F8E6C39535403DF4
:100740001217C95005E4900082F0900082E0FF90FB
:100750000079E06F601D1217D97D207C037F017E38
:100760000012163C900079E0900082F0A3E529F099
:100770004480F0120B3B2469F8E4F6D322C322BB79
:10078000010689828A83F0225002F722BBFE01F320
:1007900022EF8DF0A4A8F0CF8CF0A428CE8DF0A489
:1007A0002EFE22BC000BBE0029EF8DF084FFADF0C1
:1007B00022E4CCF875F008EF2FFFEE33FEEC33FCAB
:1007C000EE9DEC984005FCEE9DFE0FD5F0E9E4CEE1
:1007D000FD22EDF8F5F0EE8420D21CFEADF075F0B0
:1007E00008EF2FFFED33FD4007985006D5F0F222B9
:1007F000C398FD0FD5F0EA22C5F0F8A3E028F0C5B4
:10080000F0F8E582158270021583E038F022BB0112
:1008100010E58229F582E5833AF583E0F5F0A3E05F
:10082000225009E92582F886F008E622BBFE0AE993
:100830002582F8E2F5F008E222E5832AF583E993C0
:10084000F5F0A3E9932275F008758200EF2FFFEE13
:1008500033FECD33CDCC33CCC58233C5829BED9AEC
:10086000EC99E58298400CF582EE9BFEED9AFDEC4A
:1008700099FC0FD5F0D6E4CEFBE4CDFAE4CCF9A890
:100880008222B800C1B90059BA002DEC8BF084CF98
:10089000CECDFCE5F0CBF97818EF2FFFEE33FEED6F
:1008A00033FDEC33FCEB33FB10D703994004EB9999
:1008B000FB0FD8E5E4F9FA227818EF2FFFEE33FEAC
:1008C000ED33FDEC33FCC933C910D7059BE99A40E1
:1008D00007EC9BFCE99AF90FD8E0E4C9FAE4CCFBF9
:1008E0002275F010EF2FFFEE33FEED33FDCC33CC4D
:1008F000C833C810D7079BEC9AE899400AED9BFDD6
:10090000EC9AFCE899F80FD5F0DAE4CDFBE4CCFAE8
:10091000E4C8F922A42582F582E5F03583F5832227
:10092000D083D082F8E4937012740193700DA3A366
:1009300093F8740193F5828883E47374029368607A
:10094000EFA3A3A380DFEF4E6012EF60010EEDBBBB
:10095000010B89828A83F0A3DFFCDEFA2289F05042
:1009600007F709DFFCA9F022BBFEFCF309DFFCA9B5
:10097000F0228C268D27E4F528C3E5279464E5262C
:1009800094005017E4F528E528120B802469F8E458
:10099000F60528E528B40FEFC29022EF1470030289
:1009A0000A5D046003020B3A7866E6C4540FF970DE
:1009B00065D3E5279494E52694115003020B3A3051
:1009C0000003020B3AE9120C0DE6540FFC08E6FD99
:1009D000EC4E18F6ED08F618120C04EC540F4E18F5
:1009E000F6ED08F6900001E526F0A3E527F0AE2627
:1009F000FF7C007D1F1207A3900087EEF0A3EFF0AD
:100A00007C007D03120791A3EEF0A3EFF0A3E5268F
:100A1000F0A3E527F0227866E6C4540F6402600371
:100A2000020B3A120CBA752C01752D00752E8790A9
:100A30001ABD93FE7401938E2FF530901ABFE49384
:100A4000F531A3120BA98E32F533901AC2E493F557
:100A500034901AC6E493F535E4FF020568E4F528FE
:100A6000120B96120CDBFFE528120C24F9EFC39948
:100A7000506EE528120BE7F5828C832FF582E43562
:100A800083F583E493FF120C60300001B35003023E
:100A90000B2EE528C454F024B7F582E4341A120B67
:100AA000F1F5828C83EF540775F002120914120BD2
:100AB000F3FDAF27AE261213CCE528501925E0250B
:100AC000E02466F8120C04EC540F4EFEEDFF120BFE
:100AD00096120C6A8058120B802469F8E4F6804E56
:100AE000120B96120CDB697045120CBAE528120B3A
:100AF0009DAA06752CFF8A2DF52EE528120CC5122D
:100B00000BA78E2FF530E528120C33F531E52812AE
:100B10000CD0120BA78E32F533E528120C42F534B7
:100B2000E528120C51F535AF28120568400C052850
:100B3000E528C3940F5003020A6022C290E52925DC
:100B4000E025E02466F8E4F608F6E52925E025E04E
:100B50002468F8E4F6E52925E025E022F583E4930E
:100B6000FF5408FE131313541F24FF9202AB29AA4B
:100B70002AA92BEF540775F002A4F58285F0832291
:100B800025E025E02466F8E4F608F6E52825E025CA
:100B9000E02468F8E4F6E52825E025E022C454F0D6
:100BA00024B7F582E4341AF583E493FE74019322AA
:100BB0002466F8E6FC08E6FDECC4F854F0C8EDC481
:100BC000540F48540F22E529252BF582E43528F5EA
:100BD00083E0222468F8E614131313541F2403F54A
:100BE00082E43400F58322C454F024BAF582E4345C
:100BF0001AF583E493FC74019322A3F0900076E04D
:100C0000C4540F22E6FC08E6FDECC4540F2401FF97
:100C1000EFC454F0FE22E52E25E02487F582E4346B
:100C200000F58322C454F024BCF582E4341AF58321
:100C3000E49322C454F024BFF582E4341AF583E42B
:100C40009322C454F024C2F582E4341AF583E49369
:100C500022C454F024C6F582E4341AF583E49322C6
:100C60005408131313541F24FF222466F8A6060801
:100C7000A60722A200E433C4333333548022253044
:100C8000F582E4352FF583E493222466F8E6FC0828
:100C9000E6FDEC540F222466F9E7C4F854F0C809C5
:100CA000E7222533F582E43532F583E4932225E00B
:100CB000247AF582E43400F58322A200920185268D
:100CC0002A85272B22C454F024BDF582E4341A224D
:100CD000C454F024C0F582E4341A222466F8E6FEF7
:100CE000EEC4540F22C454F0FFE0540F4FF0228E94
:100CF000268F27900084E024FE60432402600302D4
:100D00000E16C290200003020E16C3E527942CE5B0
:100D10002694015003020E16120C734526FFE52798
:100D2000900074CFF0A3EFF0E4900000F090007317
:100D3000F0C204900003F09000847402F022C3E536
:100D4000279464E52694005003020DE2900073E0BE
:100D5000C394084002D2907B007A007928AF27AE76
:100D6000261211C1401E900000E0FF94074002804F
:100D700071EF120C18E526F0A3E527F08F289000FC
:100D800000E004F0300423900073E0FFC39470404F
:100D900002804F120C73FEE528C454F04EFE74031B
:100DA0002F120BDFEEF0C2048020900073E0120BD4
:100DB000DDE0FFA200E43333333354F84528FEEF7F
:100DC0004EF0900073E004F0D204200049C3E52700
:100DD00094E0E526942E403E900073E0940850087D
:100DE000C290E4900084F022900003E0FD90007433
:100DF000E05480FF900000E0C454F04FFFED4F90AE
:100E00000003F0900074E0547FF0900083E0448091
:100E1000F0C290E4A3F0228B298A2A892B8C2C8D96
:100E20002DE4F53D753E80F53BE53BC3952E501016
:100E3000E52D253BF582E4352C120EC7053B80E9F4
:100E4000E4F53BE53BC395385057E53A253DF5823F
:100E5000E43539F583E0553E7019F53CE53CC39522
:100E600031502DE530253CF582E4352F120EC705B3
:100E70003C80E9E4F53CE53CC395345013E533256B
:100E80003CF582E43532120B5C120EF6053C80E62E
:100E9000E53EC313F53E7005053D753E80053B807C
:100EA000A2E4F53BE53BC395375013E536253BF50A
:100EB00082E43535120B5C120EF6053B80E6C290DB
:100EC0009000847403F022F583E493FF5408FE132A
:100ED0001313541F24FF9202AB29AA2AA92BEF5403
:100EE0000775F002A4F58285F08312080EF540859F
:100EF000F03F1200032212080EF54085F03F120069
:100F000003228E268F278C288D298B2AD200C2019E
:100F1000852982852883E05488D394004003D380B8
:100F200001C39201E4F52BE52BC3952A50593001FA
:100F30000D120BC6C4131313540124FF8002A20028
:100F40009202852782852683C083C082120BC6FF4A
:100F5000C45407D082D083120F9030010C120BC6FC
:100F6000FF131313541F138002A2009202852782DD
:100F7000852683C083C082120BC65407D082D083DB
:100F8000120F90052B80A0C2909000847403F02271
:100F900075F002120914E0F53FA3E0F540120003DA
:100FA000920022C0E0C0F0C083C082C0D075D000E3
:100FB000C000C001C002C003C004C005C006C00715
:100FC000E5985403F545F45298E54530E0171218BA
:100FD000119000D9121631EFF09000D9E004F0E042
:100FE000B44002E4F0E54530E12E9000DCE0D3941B
:100FF00000401A9000D8E02446F8E6FF12180E9040
:1010000000D8E004F09000DCE014F08002D20590FB
:1010100000D8E0B42002E4F0D007D006D005D00418
:10102000D003D002D001D000D0D0D082D083D0F075
:10103000D0E03212005A787FE4F6D8FD7581A10223
:10104000107D020076E493A3F8E493A34003F680B6
:1010500001F208DFF48029E493A3F85407240CC8B4
:10106000C333C4540F4420C8834004F4568001465F
:10107000F6DFE4800B010204081020408090123952
:10108000E47E019360BCA3FF543F30E509541FFE8A
:10109000E493A360010ECF54C025E060A840B8E4FB
:1010A00093A3FAE493A3F8E493A3C8C582C8CAC57E
:1010B00083CAF0A3C8C582C8CAC583CADFE9DEE710
:1010C00080BEC0E0C0F0C083C082C0D075D000C078
:1010D00000C001C002C003C004C005C006C007E5CF
:1010E000D85487F521F452D8E5F730E508E5F73014
:1010F000E60312181853F7DFE52130E708E5D93089
:10110000E003121817E52130E008E5DA30E00312B9
:101110001533E52130E108E5DB30E003121819E56D
:101120002130E208E5DC30E00312181AD007D006BF
:10113000D005D004D003D002D001D000D0D0D082CE
:10114000D083D0F0D0E032AE07E4F5261216D89066
:101150000000E004FF1216DF1211BA900000E0FF59
:10116000E526C39F5014121623E0547FFF1216DFAA
:1011700012162312161D052680E1900074E0547F9C
:10118000FF1216DF90007412161D1211BAE4F52634
:10119000900073E0FFE526C39F50177403252612C5
:1011A00016110526E526541F70E612180B121804B6
:1011B00080DE7F551216DF02180B12180B1218046E
:1011C000228E298F2A8B2B8A2C892DE4F52E9000D4
:1011D00000E0FFE52EC39F505EE52AAE297803CEDE
:1011E000C313CE13D8F9FDAC06E52AAE297802CE9A
:1011F000C313CE13D8F92DFFEE3CAB07FA120C1631
:10120000E0FEA3E0FFC39BEE9A50028004AE02AF63
:1012100003AA06AB07120C16E0FCA3E0FDAF2AAE52
:10122000291216B5500DAB2BAA2CA92DE52E1207AD
:101230007FD322052E8097C3224200E100004200A6
:10124000DD00004200E300004200DF0000C18341F6
:1012500000EAA44100830041008400420001000034
:1012600042008500004200770000C1044100730085
:1012700041008200410079004100000048007A00EE
:1012800000000000000000410076004100D900414C
:1012900000DB004100D7004100D8004100DC0041E4
:1012A00000D600C1054100DA00410095A4008F2658
:1012B0008C278D28EF120B9DAA06F97BFFEF120BEE
:1012C000E7FDEF120C24F52EEF120CC5120BA78EC2
:1012D0002FF530EF120C33F531EF120CD0120BA7B3
:1012E0008E32F533EF120C42F534EFC454F024C3C0
:1012F000F582E4341A120BA78E35F536EFC454F09C
:1013000024C5F582E4341AF583E493F537EF120C23
:1013100051F53885273985283A020E17C0E0C08379
:10132000C082C0D075D000C004C005C006C007533D
:10133000C87F9000E1E0FEA3E0FF4E700353C8FBBE
:101340009000DD12152850099000E1E4F0A3F08030
:101350000DC39000E2E09DF09000E1E09CF0D0072A
:10136000D006D005D004D0D0D082D083D0E032C017
:10137000E0C083C082C0D075D000C004C005C006E4
:10138000C00753917F9000E3E0FEA3E0FF4E70039F
:101390005391FB9000DF12152850099000E3E4F010
:1013A000A3F0800DC39000E4E09DF09000E3E09C8A
:1013B000F0D007D006D005D004D0D0D082D083D0D2
:1013C000E03212080EFDACF0AF2BAE2A8F828E8376
:1013D000AF05AE0412178CAB07AA06D3EB94F4EA60
:1013E000940140067E017FF48004AE02AF03AA069A
:1013F000AB07C3EB9464EA940050067E007F6480E0
:1014000004AE02AF03AA06AB07AF82AE831216B5D5
:1014100022ADDA120BFCFCE0540FB50402C32253D8
:10142000DAFE900076E0540F120CAEE0FBA3E08FE2
:10143000828E83CBF0EB120BFAC394044006E05487
:101440000F120CE5900076E054F0FFE0044FF0E05E
:10145000540FC394044004E054F0F08DDAD322AE6C
:1014600005AD07E4FCFB7FAA1216DFAF051216DFFD
:10147000EEC454F0248CF582E4341CF583E493FF2D
:10148000ECC39F500774082CFC0B80F4EB04FF1294
:1014900016DAE4FCECC39B500974032C1216110CF1
:1014A00080F27F551216DF02180BAE07E4FDF52619
:1014B0001216D8900001E0FF1216DF9000011216FC
:1014C0001D900077E0FF1216DF90007712161D9036
:1014D0000085E0FF1216DF90008512161D74032DA3
:1014E0001216110DBD03F67F551216DF02180BAB55
:1014F00007AA06E4F9F87F407E427D0FFC120882BD
:10150000A804A905AA06AB077F207ED77D757C01BC
:10151000120882C3E49FFFE49EFE22AB07AA06E402
:10152000F9F87FE87E03FD22E0FCA3E0FDC3EF9D18
:10153000EE9C22ABFBAAFCA9D9D3EB94CCEA940C89
:1015400040067A7F7BFF800F7C007D0AAF03AE02EE
:10155000120791AA06AB0753D9BFE4F5FAF5F9894A
:10156000D97F002093027F01EF120C774AFEEBFF38
:10157000021573120BFCC39404502D120BFC120CB9
:10158000AEEEF0EF120BFA04120CE5E0C4540FC3F8
:1015900094044004E0540FF0120BFCFFE0540FB52C
:1015A0000706E0540F4440F0229000D9E0FF90007D
:1015B000D7E0B507057E017F00229000D7121631D3
:1015C000E0FD7C009000D7E004F0E0B44002E4F0DD
:1015D0009000D6E0FEEE4204E4F0AE04AF05227EB9
:1015E000007F3C7D007B007A0079661209467F0B04
:1015F00012181443DA011200707D0A7C007F017E0C
:101600000012166512001DE4900084F0900083F033
:1016100022F582E43400F583E0FF0216DFA3E0FF49
:101620000216DFE52625E02487F582E43400F58301
:1016300022E02496F582E43400F583228E378F3839
:101640008C398D3A12151B1214FC1217689000E1A8
:10165000E539F0A3E53AF09000DDE537F0A3E53891
:10166000F043C804228E268F278C288D2912151B43
:101670001214FC1217749000E3E528F0A3E529F09A
:101680009000DFE526F0A3E527F043910422120045
:101690002A1217E01217E71217981217FC121734C4
:1016A0001217B61217A21217AC1217801217EE12E9
:1016B00018000217F5C3ED9BF582EC9AF583C3E59C
:1016C000829FE5839E500FED2BFDEC3AFCC3EF9D0E
:1016D000EE9C50028001C3227FAA1216DFAF06C221
:1016E000059000DBE0B42002E4F09000DBE024464B
:1016F000F8A607E004F0A3E004F022A3E493FE744C
:10170000019322E49000E6F0A3F0225480C4131366
:1017100013540124FF22900084E024FD227E1DE466
:10172000FDEF30E70625E06EFF8004EF25E0FF0DBA
:10173000BD08EE22AF885388AF758CA0758DCBEFB6
:101740005440FEEF54104E42882212175BD203120F
:1017500015DF9000EAE0900095F022AE071216D84F
:101760007F551216DF02180BAD07AC06ECF5CBAFB8
:10177000058FCA22AD07AC06ECF593AF058F922218
:10178000C2DE75D90575F9FF75960122EF7802CE94
:10179000C313CE13D8F9FF2275E34075E10175E25A
:1017A0000122E59154045391FB429122758E5475A8
:1017B000892243885022E5C8540453C8FB42C822FA
:1017C00053984FEB4F4DF59822E5C8C320E201D363
:1017D00022E591C320E201D32253C8FB53C87F22E4
:1017E00075A41175D4CF2275A54175D5772253F70D
:1017F0007F75DA302275E69075A8B022E4F5A9224B
:10180000439810223005FD22C2DE22D299228F9900
:1018100022AF99228F8C2222222222015E041A2AD0
:1018200062080208010900019004B00BB81C520ABA
:10183000030801090001C20384286E02080009019F
:1018400008014A02762A4E020800090108028A1E8F
:1018500082071C0F8C080108020803016802D012DD
:10186000C005DC0A0308010900024E05DC01AE34A4
:101870008A0A0308010900012C0A00008C047E2753
:10188000F608010803080208020803080401040A14
:101890009A051428A0080108000802080208000898
:1018A0000301720438198202080108000902940732
:1018B000D00FA02328080308010802080106180217
:1018C000D000D208010A0109020A0101D603FC0B6B
:1018D000FE020801080009019002D0132E010A003F
:1018E000090108023007760F32227403080108024A
:1018F00008181B03182102182302182502000000F3
:1019000018182704182F021831021833020000009B
:1019100018183503183B02183D02183F020000005A
:1019200018184103184702184902184B020000001A
:101930000C184D04185502185702185902000000DF
:1019400028185B041863021865021867020000007B
:101950002818690418710218730218750200000033
:1019600018187705188102188304188704188B0249
:1019700020188D04189502189704189B04189F02CC
:101980002018A10318A70218A90218AB0200000032
:101990001118AD0418B50218B70218B90218BB0225
:1019A0002418BD0318C30218C50218C70218C902BB
:1019B0002818CB0318D10218D30218D50200000052
:1019C0001418D70318DD0218DF0218E10200000026
:1019D0002718E30418EB0218ED0218EF02000000CC
:1019E00024015E041A2A6208020801090001900419
:1019F000B00BB81C520A030801090001C203842875
:101A00006E020800090108014A02762A4E02080007
:101A1000090108028A1E82071C0F8C0801080208AF
:101A200003016802D012C005DC0A030801090002A4
:101A30004E05DC01AE348A0A0308010900012C0AB4
:101A400000008C047E27F60801080308020802083B
:101A500003080401040A9A051428A00801080008D4
:101A60000208020800080301720438198202080102
:101A7000080009029407D00FA023280803080108D2
:101A8000020801061802D000D208010A0109020A60
:101A90000101D603FC0BFE020801080009019002B7
:101AA000D0132E010A00090108023007760F3222F6
:101AB0007403080108020819E10319E70219E90291
:101AC00019EB020000001819ED0419F50219F702CC
:101AD00019F9020000001819FB031A01021A030287
:101AE0001A0502000000181A07031A0D021A0F0245
:101AF0001A11020000000C1A13041A1B021A1D020C
:101B00001A1F02000000281A21041A29021A2B02A7
:101B10001A2D02000000281A2F041A37021A39025F
:101B20001A3B02000000181A3D051A47021A490420
:101B30001A4D041A5102201A53041A5B021A5D044A
:101B40001A61041A6502201A67031A6D021A6F02DD
:101B50001A7102000000111A73041A7B021A7D0226
:101B60001A7F021A8102241A83031A89021A8B022D
:101B70001A8D021A8F02281A91031A97021A9902D3
:101B80001A9B02000000141A9D031AA3021AA50250
:101B90001AA702000000271AA9041AB1021AB302F8
:101BA0001AB50200000024015E041A2A6208020825
:101BB000010900019004B00BB81C520A0308010986
:101BC0000001C20384286E020800090108014A02CC
:101BD000762A4E020800090108028A1E82071C0F9D
:101BE0008C080108020803016802D012C005DC0A53
:101BF0000308010900024E05DC01AE348A0A03081D
:101C0000010900012C0A00008C047E27F608010857
:101C100003080208020803080401040A9A051428AC
:101C2000A008010800080208020800080301720465
:101C3000381982020801080009029407D00FA02376
:101C4000280803080108020801061802D000D2087B
:101C5000010A0109020A0101D603FC0BFE02080178
:101C6000080009019002D0132E010A0009010802A0
:101C70003007760F3222740308010802081BA703FD
:101C80001BAD021BAF021BB102000000181BB30406
:101C90001BBB021BBD021BBF02000000181BC103BF
:101CA0001BC7021BC9021BCB02000000181BCD037F
:101CB0001BD3021BD5021BD7020000000C1BD9044A
:101CC0001BE1021BE3021BE502000000281BE704E6
:101CD0001BEF021BF1021BF302000000281BF5049E
:101CE0001BFD021BFF021C0102000000181C030563
:101CF0001C0D021C0F041C13041C1702201C1904C9
:101D00001C21021C23041C27041C2B02201C2D0355
:101D10001C33021C35021C3702000000111C390460
:101D20001C41021C43021C45021C4702241C49039F
:101D30001C4F021C51021C53021C5502281C570345
:101D40001C5D021C5F021C6102000000141C630386
:101D50001C69021C6B021C6D02000000271C6F0432
:0D1D60001C77021C79021C7B02000000248D
:00000001FF
