:020000040000FA
:1000000002102BA2029290A2029280AD40AC3F7FE0
:100010000A7E0012002E12001DA202B322E59120DA
:10002000E2FB22020EDA7597A522220213968E4178
:100030008F428C438D4412151F12177EE54424BF56
:100040009000E4F0E54334FF9000E3F09000DFE53A
:1000500041F0A3E542F043910422220210BA1218A3
:100060000E53D87853DAFE1217E3E4900082F022A0
:10007000D2DE220213E9121694C290C296C280E424
:10008000FBFD7F101217CA121610D2AF121709D239
:10009000969000E7E004F070069000E6E004F0902F
:1000A00000E6E0B427E9A3E0B410E4C2961200260B
:1000B0003003091214D98E228F2380067522017510
:1000C0002300E5237004E522640170469000DAE025
:1000D000700612170A0202739000E6E475F001122E
:1000E00007F8FED3E5F09410EE94274002D296D3A1
:1000F0009000E7E094309000E6E09475500302022F
:1001000073E4F0A3F09000DAF0900095F0C296024C
:1001100002731217099000DAE014602A14700302C7
:1001200002301470030201EE14700302020724046B
:100130006003020273E52364AA6003020273900065
:10014000DA04F00202739000DA7402F0E523120977
:100150002001E5A00176A10178A50194A6019CA744
:1001600001A9A801C2A901AFB001B7B10189C001BD
:10017000E5FF000001D7804A12052B9000E57408C6
:10018000F0E4F525752409805C12052BE4F525754E
:100190002402805112054E74A6F0804912054E7457
:1001A000A4F0752200F523803C9000E57408F090DF
:1001B00000DA7403F0802E1216109000EA74B1F089
:1001C00080237D3212050E1216107D307C757F0162
:1001D0007E0012166B800E900095E0752200F523CC
:1001E000E49000DAF0E523900095F0020273E4F564
:1001F00025E523F524E524D39400402C12005E90DD
:1002000000DA7404F0806C74032525F582E4340070
:10021000F583E523F00525E525B52402800AE525CB
:10022000C39470404E7524709000DA7402F08043DD
:10023000E5236455703D9000DAF0C203900095E02C
:100240002460601F24FC601224FE600E14600B24E6
:10025000F76017146004241070197FA0121761D280
:1002600003801012051FD2038009900004E004905F
:1002700000E5F0900095E0120920029CA10312A471
:100280000369A50312A6042EA8029CA90463B00466
:10029000CCB10410C00429FF000000AD900081E043
:1002A00030E7357DC812050E900095E02457600EAA
:1002B0002408701A12051F7FA31212208010121634
:1002C000109000EAE0900095F07FAB12055DE4909D
:1002D0000081F0D2030200AD1217DB50207DE87CD4
:1002E0000312053F900095E02457600C240860033A
:1002F0000200AD7FA20204BE7FAA0204BE12055511
:1003000040030200AD900095E07F01B4A1027F00A0
:100310008039900081E030E71F900095E0245A601A
:100320000F240260030204D87FA41212200204D812
:100330007FA612055D0204D812055540030200ADE8
:10034000900095E07F01B4A4027F00C0079000E810
:10035000E0FEA3E0FFEE547FFCAD07EE1217119212
:1003600000D0071209720200AD9000DAE0600302CB
:1003700000AD12171C700302040324036003020083
:10038000AD120535900005E0FFA3E0900085CFF0A9
:10039000A3EFF0900007E0FFA3E0900087CFF0A369
:1003A000EFF0900003E0FFA3E0900089CFF0A3EF0F
:1003B000F07B017A0079859018F7E493FC7401933F
:1003C000FD9018F9E493F52E1217018E2FF5309059
:1003D00018FCE493F5311217018E32F5339018FFB3
:1003E000E493F5341217018E35F536901902E49333
:1003F000F537A3E493F538753900753A09120DEF16
:100400000200AD9000E5E07058C2807FA00204BEFB
:100410009000DAE060030200AD900003E0FCA3E08E
:10042000FD12053F7FA00204BE7F030204BE9000C0
:10043000DAE060030200AD12171C601924036003A8
:100440000200AD120535900003E0FF7C007D041230
:1004500011B20200AD9000E5E07006C2807FA0807E
:100460005D80619000DAE060030200AD12171C604D
:1004700043240360030200AD9000E5E014F0120095
:100480005E7E007F05C006C007900003E0FB25E00C
:10049000FFE433FE74052FF58274003EAD82FCEB61
:1004A00025E0FFE52424FEC39FFBD007D006120FF2
:1004B0008A0200AD9000E5E0700AC2807FA01217AA
:1004C000500200ADE4900082F00200AD900081E0A7
:1004D00030E70D7FB112133CE4900081F00200ADD3
:1004E0007E007FE812148B40030200AD9000E8E02C
:1004F000FCA3E0FDEC547FFEAF05C006C007EC1284
:1005000017119200D007D006120CE40200AD7C0057
:100510007F017E0012166BD29612001DC296221227
:1005200016109000EAE0900095F02212005E900014
:10053000DA7404F0229000E5E014F012005E227FED
:10054000017E0012166BD29612001DC29622121660
:10055000109000EA227E007FE812148B2290008126
:10056000E0547FFD1212DF228F29E4F536EF25E0FB
:1005700025E02468F8E6701EEF25E025E02469F800
:1005800076087E007F707D007B017A007903120976
:1005900046E4900077F0AB2CAA2DA92EC001120BD7
:1005A000552466F9E7540F120C73120B74D0011224
:1005B000143C503D120B552466F9E7540FFF120C02
:1005C00073120C60300101B34031EF700A90007576
:1005D000E52AF0A3E52BF0120B55120C7F2401FF46
:1005E000EFFEEC54F04EFEEDFF120B55120C6A803C
:1005F0000A120B552466F874F056F6AB2CAA2DA9F6
:100600002EC001120B55120C8B120BBF120C97123D
:100610000B74D00112143C5052120B55120C8B1259
:100620000BBFFF120C975408FE120C62300101B38D
:100630004043EF700A900083E52AF0A3E52BF01207
:100640000B55120BB02401FFE433FEEFC4F8540F36
:10065000C868FFEEC454F048FEED540FFDEC4EFEAA
:10066000ED4FFF120B55120C6A800A120B552467CE
:10067000F8740F56F6120B55120C7FFB700F120B0D
:10068000B8700A120B3B2469F8E4F6C322120B552A
:100690002468F8E53514667003753601C3E53195B5
:1006A000366B7020D290120B552466F874F056F613
:1006B000740F0856120B542468F806120B5524695F
:1006C000F816804C120B55120BB0FFC3E53495366B
:1006D0006F703DD290120B552466F8EC54F0FEED8D
:1006E000540FA60608120B542468F806120B552462
:1006F00069F816120B55120BD3E0FF120B55246943
:10070000F8E6FE7401A806088002C333D8FC4FF057
:10071000120B552469F8E6701B120B55120BD3E02F
:10072000FF900077E06FFF121723EFF0120B5524B4
:1007300069F87608120B552468F8E6C39535403DF4
:100740001217D35005E4900080F0900080E0FF90F5
:100750000077E06F601D1217E37D207C037F017E30
:1007600000121642900077E0900080F0A3E529F097
:100770004480F0120B3B2469F8E4F6D322C322BB79
:10078000010689828A83F0225002F722BBFE01F320
:1007900022EF8DF0A4A8F0CF8CF0A428CE8DF0A489
:1007A0002EFE22BC000BBE0029EF8DF084FFADF0C1
:1007B00022E4CCF875F008EF2FFFEE33FEEC33FCAB
:1007C000EE9DEC984005FCEE9DFE0FD5F0E9E4CEE1
:1007D000FD22EDF8F5F0EE8420D21CFEADF075F0B0
:1007E00008EF2FFFED33FD4007985006D5F0F222B9
:1007F000C398FD0FD5F0EA22C5F0F8A3E028F0C5B4
:10080000F0F8E582158270021583E038F022BB0112
:1008100010E58229F582E5833AF583E0F5F0A3E05F
:10082000225009E92582F886F008E622BBFE0AE993
:100830002582F8E2F5F008E222E5832AF583E993C0
:10084000F5F0A3E9932275F008758200EF2FFFEE13
:1008500033FECD33CDCC33CCC58233C5829BED9AEC
:10086000EC99E58298400CF582EE9BFEED9AFDEC4A
:1008700099FC0FD5F0D6E4CEFBE4CDFAE4CCF9A890
:100880008222B800C1B90059BA002DEC8BF084CF98
:10089000CECDFCE5F0CBF97818EF2FFFEE33FEED6F
:1008A00033FDEC33FCEB33FB10D703994004EB9999
:1008B000FB0FD8E5E4F9FA227818EF2FFFEE33FEAC
:1008C000ED33FDEC33FCC933C910D7059BE99A40E1
:1008D00007EC9BFCE99AF90FD8E0E4C9FAE4CCFBF9
:1008E0002275F010EF2FFFEE33FEED33FDCC33CC4D
:1008F000C833C810D7079BEC9AE899400AED9BFDD6
:10090000EC9AFCE899F80FD5F0DAE4CDFBE4CCFAE8
:10091000E4C8F922A42582F582E5F03583F5832227
:10092000D083D082F8E4937012740193700DA3A366
:1009300093F8740193F5828883E47374029368607A
:10094000EFA3A3A380DFEF4E6012EF60010EEDBBBB
:10095000010B89828A83F0A3DFFCDEFA2289F05042
:1009600007F709DFFCA9F022BBFEFCF309DFFCA9B5
:10097000F0228C268D27E4F528C3E5279464E5262C
:1009800094005017E4F528E528120B802469F8E458
:10099000F60528E528B40FEFC29022EF1470030289
:1009A0000A5D046003020B3A7866E6C4540FF970DE
:1009B00065D3E5279494E52694115003020B3A3051
:1009C0000003020B3AE9120C0DE6540FFC08E6FD99
:1009D000EC4E18F6ED08F618120C04EC540F4E18F5
:1009E000F6ED08F6900001E526F0A3E527F0AE2627
:1009F000FF7C007D1F1207A3900085EEF0A3EFF0AF
:100A00007C007D03120791A3EEF0A3EFF0A3E5268F
:100A1000F0A3E527F0227866E6C4540F6402600371
:100A2000020B3A120CAF752C01752D00752E8590B6
:100A30001AC093FE7401938E2FF530901AC2E4937E
:100A4000F531A3120BA98E32F533901AC5E493F554
:100A500034901AC9E493F535E4FF020568E4F528FB
:100A6000120B96120CD0FFE528120C24F9EFC39953
:100A7000506EE528120BE7F5828C832FF582E43562
:100A800083F583E493FF120C60300001B35003023E
:100A90000B2EE528C454F024BAF582E4341A120B64
:100AA000F1F5828C83EF540775F002120914120BD2
:100AB000F3FDAF27AE26121446E528501925E02590
:100AC000E02466F8120C04EC540F4EFEEDFF120BFE
:100AD00096120C6A8058120B802469F8E4F6804E56
:100AE000120B96120CD0697045120CAFE528120B50
:100AF0009DAA06752CFF8A2DF52EE528120CBA1238
:100B00000BA78E2FF530E528120C33F531E52812AE
:100B10000CC5120BA78E32F533E528120C42F534C2
:100B2000E528120C51F535AF28120568400C052850
:100B3000E528C3940F5003020A6022C290E52925DC
:100B4000E025E02466F8E4F608F6E52925E025E04E
:100B50002468F8E4F6E52925E025E022F583E4930E
:100B6000FF5408FE131313541F24FF9202AB29AA4B
:100B70002AA92BEF540775F002A4F58285F0832291
:100B800025E025E02466F8E4F608F6E52825E025CA
:100B9000E02468F8E4F6E52825E025E022C454F0D6
:100BA00024BAF582E4341AF583E493FE74019322A7
:100BB0002466F8E6FC08E6FDECC4F854F0C8EDC481
:100BC000540F48540F22E529252BF582E43528F5EA
:100BD00083E0222468F8E614131313541F2403F54A
:100BE00082E43400F58322C454F024BDF582E43459
:100BF0001AF583E493FC74019322A3F0900074E04F
:100C0000C4540F22E6FC08E6FDECC4540F2401FF97
:100C1000EFC454F0FE22E52E25E02485F582E4346D
:100C200000F58322C454F024BFF582E4341AF5831E
:100C3000E49322C454F024C2F582E4341AF583E428
:100C40009322C454F024C5F582E4341AF583E49366
:100C500022C454F024C9F582E4341AF583E49322C3
:100C60005408131313541F24FF222466F8A6060801
:100C7000A607222530F582E4352FF583E49322245C
:100C800066F8E6FC08E6FDEC540F222466F9E7C49A
:100C9000F854F0C809E7222533F582E43532F583AC
:100CA000E4932225E02478F582E43400F58322A23F
:100CB00000920185262A85272B22C454F024C0F5F2
:100CC00082E4341A22C454F024C3F582E4341A2294
:100CD0002466F8E6FEEEC4540F22C454F0FFE0543C
:100CE0000F4FF0228E268F27900082E024FE604175
:100CF00024026003020DEEC290200003020DEEC339
:100D0000E527942CE52694015003020DEE90008512
:100D1000E526F0A3E527F09000007401F0E49000D0
:100D200073F0C2049000037480F09000827402F0AB
:100D300022C3E5279464E52694005003020DDC905D
:100D40000073E0C394084002D2907B007A007928B7
:100D5000AF27AE26121280401E900000E0FF9408DC
:100D600040028078EF120C18E526F0A3E527F08FFB
:100D700028900000E004F030042A900073E0FFC3E4
:100D8000947040028056A200E433C433333354805D
:100D9000FEE528C454F04EFE74032F120BDFEEF074
:100DA000C2048020900073E0120BDDE0FFA200E49B
:100DB0003333333354F84528FEEF4EF0900073E0A0
:100DC00004F0D204200027C3E52794E0E526942E02
:100DD000401C900073E094085008C290E490008298
:100DE000F022900081E04480F0C290E4A3F0228BD6
:100DF000298A2A892B8C2C8D2DE4F53D753E80F5B2
:100E00003BE53BC3952E5010E52D253BF582E4359F
:100E10002C120E9F053B80E9E4F53BE53BC395387A
:100E20005057E53A253DF582E43539F583E0553EE6
:100E30007019F53CE53CC39531502DE530253CF566
:100E400082E4352F120E9F053C80E9E4F53CE53C39
:100E5000C395345013E533253CF582E43532120B4B
:100E60005C120ECE053C80E6E53EC313F53E7005F0
:100E7000053D753E80053B80A2E4F53BE53BC3950F
:100E8000375013E536253BF582E43535120B5C12FD
:100E90000ECE053B80E6C2909000827403F022F5EE
:100EA00083E493FF5408FE131313541F24FF92028C
:100EB000AB29AA2AA92BEF540775F002A4F5828565
:100EC000F08312080EF54085F03F1200032212084D
:100ED0000EF54085F03F12000322C0E0C0F0C08351
:100EE000C082C0D075D000C000C001C002C003C025
:100EF00004C005C006C007E5985403F545F45298B0
:100F0000E54530E02F9000D9E0C3944050261218F8
:100F1000149000D91216F6EFF09000D9E004F0E03A
:100F2000B44002E4F09000D7E0FF9000D9E0B507AC
:100F3000037440F0E54530E1369000DCE0D39400E6
:100F40004027E0F460239000D8E02446F8E6FF1242
:100F500018119000D8E004F09000DCE014F090004C
:100F6000D8E0B4200AE4F080069000DC74FFF0D0F2
:100F700007D006D005D004D003D002D001D000D0D5
:100F8000D0D082D083D0F0D0E0328E268F278C282C
:100F90008D298B2AD200C201852982852883E054BD
:100FA00088D394004003D38001C39201E4F52BE57C
:100FB0002BC3952A505930010D120BC6C4131313BD
:100FC000540124FF8002A200920285278285268395
:100FD000C083C082120BC6FFC45407D082D08312D4
:100FE000101830010C120BC6FF131313541F13807B
:100FF00002A2009202852782852683C083C08212C6
:101000000BC65407D082D083121018052B80A0C2C3
:10101000909000827403F02275F002120914E0F53A
:101020003FA3E0F54012000392002212005A787F9D
:10103000E4F6D8FD7581A1021075020076E493A351
:10104000F8E493A34003F68001F208DFF48029E47A
:1010500093A3F85407240CC8C333C4540F4420C8C6
:10106000834004F456800146F6DFE4800B0102045D
:10107000081020408090113FE47E019360BCA3FFE4
:10108000543F30E509541FFEE493A360010ECF5492
:10109000C025E060A840B8E493A3FAE493A3F8E481
:1010A00093A3C8C582C8CAC583CAF0A3C8C582C8ED
:1010B000CAC583CADFE9DEE780BEC0E0C0F0C083F6
:1010C000C082C0D075D000C000C001C002C003C043
:1010D00004C005C006C007E5D85487F521F452D8EE
:1010E000E5F730E508E5F730E60312181B53F7DFA4
:1010F000E52130E708E5D930E00312181AE5213080
:10110000E008E5DA30E003121563E52130E108E597
:10111000DB30E00312181CE52130E208E5DC30E0AA
:101120000312181DD007D006D005D004D003D0027A
:10113000D001D000D0D0D082D083D0F0D0E03242E5
:1011400000E100004200DD00004200E30000420038
:10115000DF0000C1834100EAA44100810041008218
:1011600000420001000042008300004200750000C0
:10117000C10441007300410080004100770041003C
:1011800000004800780000000000000000410074EA
:10119000004100D9004100DB004100D7004100D8E8
:1011A000004100DCFF4100D6004100DA004100951B
:1011B000A4008F268C278D28EF120B9DAA06F97BA1
:1011C000FFEF120BE7FDEF120C24F52EEF120CBA15
:1011D000120BA78E2FF530EF120C33F531EF120CF6
:1011E000C5120BA78E32F533EF120C42F534EFC463
:1011F00054F024C6F582E4341A120BA78E35F53666
:10120000EFC454F024C8F582E4341AF583E493F56E
:1012100037EF120C51F53885273985283A020DEF42
:101220008F26E4F527F5287FAA1215DCAF261215C4
:10123000DC900001E0FF1215DC90000112127990A1
:101240000075E0FF1215DC90007512127990008392
:10125000E0FF1215DC900083A3E0FF1215DCE4F53B
:1012600027740325271216DE1215DC0527E527C390
:10127000940340ED7F550215DCA3E0FF1215DC223C
:101280008E298F2A8B2B8A2C892DE4F52E90000035
:10129000E0FFE52EC39F5045AF2AAE29121796AB4B
:1012A00007AA06120C16E0FEA3E0FFC39BEE9A50BD
:1012B000028004AE02AF03AA06AB07120C16E0FCD4
:1012C000A3E0FDAF2AAE291216BB500DAB2BAA2C02
:1012D000A92DE52E12077FD322052E80B0C3228FC1
:1012E000268D27E4F528F5297FAA1215DCAF2612F2
:1012F00015DCE527C454F0248FF582E4341CF58313
:10130000E493FFE528C39F500A74082528F52805B3
:101310002980F0E52904FF1215DCAF271215DCE463
:10132000F528E528C39529500E740325281216DEEA
:101330001215DC052880EB7F550215DC8F26E4F5BD
:10134000277FAA1215DCAF261215DC900000E0FF03
:101350001215DC900000E0FFE527C39F501712161E
:10136000E8E0547FFF1215DC1216E8A3E0FF121527
:10137000DC052780DEE4F527900073E0FFE527C356
:101380009F500E740325271216DE1215DC052780E8
:10139000E77F550215DCC0E0C083C082C0D075D0A5
:1013A00000C004C005C006C00753C87F9000E1E03C
:1013B000FEA3E0FF4E700353C8FB9000DD121558EA
:1013C00050099000E1E4F0A3F0800DC39000E2E04A
:1013D0009DF09000E1E09CF0D007D006D005D0044D
:1013E000D0D0D082D083D0E032C0E0C083C082C0F1
:1013F000D075D000C004C005C006C00753917F90CF
:1014000000E3E0FEA3E0FF4E70035391FB9000DF8A
:1014100012155850099000E3E4F0A3F0800DC3903A
:1014200000E4E09DF09000E3E09CF0D007D006D00F
:1014300005D004D0D0D082D083D0E03212080EFD87
:10144000ACF0AF2BAE2A8F828E83AF05AE0412179D
:1014500096AB07AA06D3EB94F4EA940140067E010A
:101460007FF48004AE02AF03AA06AB07C3EB94641B
:10147000EA940050067E007F648004AE02AF03AAA7
:1014800006AB07AF82AE831216BB22ADDA120BFC9D
:10149000FCE0540FB50402C32253DAFE900074E05E
:1014A000540F120CA3E0FBA3E08F828E83CBF0EBF2
:1014B000120BFAC394044006E0540F120CDA9000A9
:1014C00074E054F0FFE0044FF0E0540FC394044084
:1014D00004E054F0F08DDAD3229000D7E0FD9000C4
:1014E000D9E0FF9000D7E0B507057E017F0022908C
:1014F00000D71216F6E0FB7A009000D7E004F0E087
:10150000B44002E4F09000D6E0FEEE4202E4F09037
:1015100000D9E0C394404002EDF0AE02AF0322AB2D
:1015200007AA06E4F9F87F407E427D0FFC1208828C
:10153000A804A905AA06AB077F207ED77D757C018C
:10154000120882C3E49FFFE49EFE22AB07AA06E4D2
:10155000F9F87FE87E03FD22E0FCA3E0FDC3EF9DE8
:10156000EE9C22ABFBAAFCA9D9D3EB94CCEA940C59
:1015700040067A7F7BFF800F7C007D0AAF03AE02BE
:10158000120791AA06AB0753D9BFE4F5FAF5F9891A
:10159000D97F002093027F01EFC433333354804A54
:1015A000FEEBFF0215A6120BFCC39404502D120B88
:1015B000FC120CA3EEF0EF120BFA04120CDAE0C4EA
:1015C000540FC394044004E0540FF0120BFCFFE0EE
:1015D000540FB50706E0540F4440F0228F2A9000C4
:1015E000DCE0B4FF07E4F0C2990218119000DCE0DF
:1015F000C3942050F79000DBE02446F8A62AE004CC
:10160000F0E0C394204002E4F09000DCE004F0221B
:101610007E007F3C7D007B007A0079661209467F60
:101620000B12181743DA011200707D0A7C007F014B
:101630007E0012166B12001DE4900082F090008173
:10164000F0228E378F388C398D3A12154B12152CAB
:101650001217729000E1E539F0A3E53AF09000DD51
:10166000E537F0A3E538F043C804228E268F278C97
:10167000288D2912154B12152C12177E9000E3E5C8
:1016800028F0A3E529F09000DFE526F0A3E527F098
:101690004391042212002A1217EA1217F11217A21C
:1016A00012180612173A1217C01217AC1217B612F8
:1016B000178A1217F812180A0217FFC3ED9BF5825A
:1016C000EC9AF583C3E5829FE5839E500FED2BFDD9
:1016D000EC3AFCC3EF9DEE9C50028001C322F582E0
:1016E000E43400F583E0FF22E52725E02485F58238
:1016F000E43400F58322E02496F582E43400F58397
:1017000022A3E493FE74019322E49000E6F0A3F098
:10171000225480C4131313540124FF22900082E04A
:1017200024FD227E1DE4FDEF30E70625E06EFF80FC
:1017300004EF25E0FF0DBD08EE22AF885388AF759A
:101740008CA0758DCBEF5440FEEF54104E42882292
:10175000121761D2031216109000EAE0900095F083
:10176000228F267FAA1215DCAF261215DC7F5502C8
:1017700015DCAD07AC06ECF5CBAF058FCA22AD0783
:10178000AC06ECF593AF058F9222C2DE75D90575D4
:10179000F9FF75960122EF7802CEC313CE13D8F964
:1017A000FF2275E34075E10175E20122E5915404E1
:1017B0005391FB429122758E5475892243885022A1
:1017C000E5C8540453C8FB42C82253984FEB4F4D11
:1017D000F59822E5C8C320E201D322E591C320E2B7
:1017E00001D32253C8FB53C87F2275A41175D4CFEF
:1017F0002275A54175D5772253F77F75DA302275AA
:10180000E69075A8B022E4F5A92243981022C2DE22
:10181000228F9922AF99228F8C2222222222015ECE
:10182000041A2A62080208010900019004B00BB8EA
:101830001C520A030801090001C20384286E020831
:1018400000090108014A02762A4E0208000901082F
:10185000028A1E82071C0F8C080108020803016817
:1018600002D012C005DC0A0308010900024E05DCA3
:1018700001AE348A0A0308010900012C0A00008C19
:10188000047E27F60801080308020802080308047A
:1018900001040A9A051428A0080108000802080299
:1018A00008000803017204381982020801080009BF
:1018B000029407D00FA0232808030801080208019A
:1018C000061802D000D208010A0109020A0101D655
:1018D00003FC0BFE020801080009019002D0132E40
:1018E000010A00090108023007760F32227403084A
:1018F00001080208181E03182402182602182802DC
:1019000000000018182A041832021834021836028F
:1019100000000018183803183E021840021842024E
:1019200000000018184403184A02184C02184E020E
:101930000000000C185004185802185A02185C02D3
:1019400000000028185E04186602186802186A026F
:1019500000000028186C0418740218760218780227
:1019600000000018187A05188402188604188A04E2
:10197000188E0220189004189802189A04189E04D1
:1019800018A2022018A40318AA0218AC0218AE026A
:101990000000001118B00418B80218BA0218BC02EE
:1019A00018BE022418C00318C60218C80218CA02BA
:1019B00018CC022818CE0318D40218D60218D80260
:1019C0000000001418DA0318E00218E20218E4021A
:1019D0000000002718E60418EE0218F00218F202C0
:1019E00000000024015E041A2A62080208010900AE
:1019F000019004B00BB81C520A030801090001C28F
:101A00000384286E020800090108014A02762A4E62
:101A1000020800090108028A1E82071C0F8C0801B7
:101A200008020803016802D012C005DC0A0308019D
:101A30000900024E05DC01AE348A0A0308010900E0
:101A4000012C0A00008C047E27F608010803080216
:101A500008020803080401040A9A051428A00801D2
:101A600008000802080208000803017204381982FD
:101A7000020801080009029407D00FA023280803D8
:101A8000080108020801061802D000D208010A0164
:101A900009020A0101D603FC0BFE02080108000935
:101AA000019002D0132E010A0009010802300776C6
:101AB0000F32227403080108020819E40319EA022C
:101AC00019EC0219EE020000001819F00419F802CE
:101AD00019FA0219FC020000001819FE031A040288
:101AE0001A06021A0802000000181A0A031A100245
:101AF0001A12021A14020000000C1A16041A1E020E
:101B00001A20021A2202000000281A24041A2C02A9
:101B10001A2E021A3002000000281A32041A3A0261
:101B20001A3C021A3E02000000181A40051A4A0226
:101B30001A4C041A50041A5402201A56041A5E024F
:101B40001A60041A64041A6802201A6A031A7002DE
:101B50001A72021A7402000000111A76041A7E0228
:101B60001A80021A82021A8402241A86031A8C022C
:101B70001A8E021A90021A9202281A94031A9A02D2
:101B80001A9C021A9E02000000141AA0031AA60250
:101B90001AA8021AAA02000000271AAC041AB402FA
:101BA0001AB6021AB80200000024015E041A2A6262
:101BB000080208010900019004B00BB81C520A0386
:101BC0000801090001C20384286E02080009010807
:101BD000014A02762A4E020800090108028A1E8282
:101BE000071C0F8C080108020803016802D012C00C
:101BF00005DC0A0308010900024E05DC01AE348A47
:101C00000A0308010900012C0A00008C047E27F653
:101C100008010803080208020803080401040A9ADC
:101C2000051428A00801080008020802080008039B
:101C3000017204381982020801080009029407D0D1
:101C40000FA023280803080108020801061802D083
:101C500000D208010A0109020A0101D603FC0BFEA9
:101C6000020801080009019002D0132E010A0009A0
:101C70000108023007760F322274030801080208B7
:101C80001BAA031BB0021BB2021BB4020000001807
:101C90001BB6041BBE021BC0021BC20200000018C0
:101CA0001BC4031BCA021BCC021BCE02000000187F
:101CB0001BD0031BD6021BD8021BDA020000000C4B
:101CC0001BDC041BE4021BE6021BE80200000028E8
:101CD0001BEA041BF2021BF4021BF60200000028A0
:101CE0001BF8041C00021C02021C04020000001865
:101CF0001C06051C10021C12041C16041C1A0220CF
:101D00001C1C041C24021C26041C2A041C2E022059
:101D10001C30031C36021C38021C3A020000001161
:101D20001C3C041C44021C46021C48021C4A02249F
:101D30001C4C031C52021C54021C56021C58022844
:101D40001C5A031C60021C62021C64020000001486
:101D50001C66031C6C021C6E021C70020000002733
:101D60001C72041C7A021C7C021C7E0200000024EF
:00000001FF
