:020000040000FA
:10000000020FD5A2029290A2029280AD40AC3F7F37
:100010000A7E0012158612001DA202B322E591206D
:10002000E2FB22020F3E7597A522220214BB1200AA
:100030002A12170E1217151216C612005512166044
:100040001216E41216D01216DA1216AE12171C127D
:10005000172A021723E4F5A922222202106412179C
:100060002E53D87853DAFE121707E49000DAF02204
:10007000D2DE220214F012002EC290C296C280E498
:10008000FBFD7F101216EE121525D2AF1215D5D238
:10009000969000EFE004F070069000EEE004F0901F
:1000A00000EEE0B427E9A3E0B410E4C29612002603
:1000B00030030912144D8E228F238006752201759C
:1000C0002300E5237004E52264017040E515700605
:1000D0001215D60202519000EEE475F0011207BB32
:1000E000FED3E5F09410EE94274002D296D3900010
:1000F000EFE094309000EEE094755003020251E47A
:10010000F0A3F0F515F510C2960202511215D5E5CF
:10011000151460281470030202121470030201D631
:100120001470030201EC24046003020251E523640D
:10013000AA6003020251751501020251751502E50C
:10014000231208E301D0A00169A1016BA50187A6D4
:10015000018FA7019CA801B2A901A2B001A7B1011A
:100160007CC001D0FF000001C78047120524900029
:10017000ED7408F0E4F5257524098054120524E493
:10018000F52575240280491204E774A6F080411217
:1001900004E774A4F0752200F52380349000ED7418
:1001A00008F075150380291215259000F274B1F03E
:1001B000801E7D321204D61215257D307C757F019C
:1001C0007E001216108009752200851023E4F515B3
:1001D000E523F510807BE4F525E523F524E524D31C
:1001E0009400402912005E7515048065740325256E
:1001F000F582E43400F583E523F00525E525B524F3
:1002000002800AE525C394C840477524C8751502C5
:10021000803FE52364557039F515C203E51024606D
:10022000601F24FC601224FE600E14600B24F76033
:1002300017146004241070197FA0121676D2038060
:10024000101204EED2038009900004E0049000ED47
:10025000F0E5101208E30278A102E6A40339A50232
:10026000E6A603FAA80278A9042DB00494B103DE2F
:10027000C003F5FF000000AD9000D9E030E7317D0C
:10028000C81204D6E5102457600E24087018120412
:10029000EE7FA31211BE800E1215259000F2E0F53C
:1002A000107FAB120519E49000D9F0D2030200AD23
:1002B0001216FF501E7DE87C03120502E51024573C
:1002C000600C240860030200AD7FA20204867FAAAE
:1002D00002048612051140030200ADE5107F01B44F
:1002E000A1027F0080359000D9E030E71DE51024A1
:1002F0005A600F240260030204A07FA41211BE0200
:1003000004A07FA61205190204A0120511400302E1
:1003100000ADE5107F01B4A4027F00C0079000F09B
:10032000E0FEA3E0FFEE547FFCAD07EE1215DD9278
:1003300000D0071209350200ADE51560030200ADDB
:100340001215E870030203D1240360030200AD120A
:1003500004F8900005E0FFA3E09000DDCFF0A3EFEC
:10036000F0900007E0FFA3E09000DFCFF0A3EFF0F4
:10037000900003E0FFA3E09000E1CFF0A3EFF07B5B
:10038000017A0079DD901816E493FC740193FD90D6
:100390001818E493F52E1215CD8E2FF53090181BFA
:1003A000E493F5311215CD8E32F53390181EE49397
:1003B000F5341215CD8E35F536901821E493F537C6
:1003C000A3E493F538753900753A09120DB20200AD
:1003D000AD9000EDE07054C2807FA0020486E51568
:1003E00060030200AD900003E0FCA3E0FD120502F3
:1003F0007FA00204867F03020486E51560030200E5
:10040000AD1215E86019240360030200AD1204F870
:10041000900003E0FF7C007D041210E90200AD9023
:1004200000EDE07006C2807FA0805B805FE5156014
:10043000030200AD1215E86043240360030200AD1F
:100440009000EDE014F012005E7E007F05C006C053
:1004500007900003E0FB25E0FFE433FE74052FF571
:100460008274003EAD82FCEB25E0FFE52424FEC350
:100470009FFBD007D006120E9D0200AD9000EDE06C
:10048000700AC2807FA01216870200ADE49000DAE5
:10049000F00200AD9000D9E030E70D7FB11212DA22
:1004A000E49000D9F00200AD7E007FF0121383408B
:1004B000030200AD9000F0E0FCA3E0FDEC547FFEF1
:1004C000AF05C006C007EC1215DD9200D007D006BC
:1004D000120CA70200AD7C007F017E00121610D224
:1004E0009612001DC296221215259000F2221215B6
:1004F000259000F2E0F510229000EDE014F01200DB
:100500005E227F017E00121610D29612001DC29646
:10051000227E007FF0121383229000D9E0547FFDE9
:1005200012127D2212005E751504228F29E4F53621
:10053000EF25E025E02448F8E6701EEF25E025E0F1
:100540002449F876087E007FC87D007B017A007917
:1005500003120909E49000CFF0AB2CAA2DA92EC0FC
:1005600001120B182446F9E7540F120C36120B3700
:10057000D001121334503D120B182446F9E7540FE2
:10058000FF120C36120C23300101B34031EF700A18
:100590009000CDE52AF0A3E52BF0120B18120C42C7
:1005A0002401FFEFFEEC54F04EFEEDFF120B18128B
:1005B0000C2D800A120B182446F874F056F6AB2C5A
:1005C000AA2DA92EC001120B18120C4E120B82126A
:1005D0000C5A120B37D0011213345052120B18124E
:1005E0000C4E120B82FF120C5A5408FE120C2530CE
:1005F0000101B34043EF700A9000DBE52AF0A3E568
:100600002BF0120B18120B732401FFE433FEEFC41E
:10061000F8540FC868FFEEC454F048FEED540FFDC7
:10062000EC4EFEED4FFF120B18120C2D800A120B30
:10063000182447F8740F56F6120B18120C42FB7070
:100640000F120B7B700A120AFE2449F8E4F6C3224B
:10065000120B182448F8E53514667003753601C38B
:10066000E53195366B7020D290120B182446F87441
:10067000F056F6740F0856120B172448F806120BA2
:10068000182449F816804C120B18120B73FFC3E59F
:100690003495366F703DD290120B182446F8EC5406
:1006A000F0FEED540FA60608120B172448F80612A8
:1006B0000B182449F816120B18120B96E0FF120BB8
:1006C000182449F8E6FE7401A806088002C333D84E
:1006D000FC4FF0120B182449F8E6701B120B18128D
:1006E0000B96E0FF9000CFE06FFF121649EFF0127B
:1006F0000B182449F87608120B182448F8E6C3951D
:1007000035403D1216F75005E49000D8F09000D81F
:10071000E0FF9000CFE06F601D1217077D207C0383
:100720007F017E001215EF9000CFE09000D8F0A37B
:10073000E529F04480F0120AFE2449F8E4F6D322B9
:10074000C322BB010689828A83F0225002F722BBB2
:10075000FE01F322EF8DF0A4A8F0CF8CF0A428CEF8
:100760008DF0A42EFE22BC000BBE0029EF8DF0847C
:10077000FFADF022E4CCF875F008EF2FFFEE33FE6A
:10078000EC33FCEE9DEC984005FCEE9DFE0FD5F0A1
:10079000E9E4CEFD22EDF8F5F0EE8420D21CFEADAA
:1007A000F075F008EF2FFFED33FD4007985006D5A8
:1007B000F0F222C398FD0FD5F0EA22C5F0F8A3E0CD
:1007C00028F0C5F0F8E582158270021583E038F054
:1007D00022BB0110E58229F582E5833AF583E0F535
:1007E000F0A3E0225009E92582F886F008E622BB52
:1007F000FE0AE92582F8E2F5F008E222E5832AF50F
:1008000083E993F5F0A3E9932275F008758200EF70
:100810002FFFEE33FECD33CDCC33CCC58233C58232
:100820009BED9AEC99E58298400CF582EE9BFEEDEB
:100830009AFDEC99FC0FD5F0D6E4CEFBE4CDFAE4BA
:10084000CCF9A88222B800C1B90059BA002DEC8BAE
:10085000F084CFCECDFCE5F0CBF97818EF2FFFEE8A
:1008600033FEED33FDEC33FCEB33FB10D703994043
:1008700004EB99FB0FD8E5E4F9FA227818EF2FFF83
:10088000EE33FEED33FDEC33FCC933C910D7059BC5
:10089000E99A4007EC9BFCE99AF90FD8E0E4C9FA21
:1008A000E4CCFB2275F010EF2FFFEE33FEED33FDAD
:1008B000CC33CCC833C810D7079BEC9AE899400AD0
:1008C000ED9BFDEC9AFCE899F80FD5F0DAE4CDFB4E
:1008D000E4CCFAE4C8F922A42582F582E5F0358358
:1008E000F58322D083D082F8E49370127401937060
:1008F0000DA3A393F8740193F5828883E4737402C3
:10090000936860EFA3A3A380DFEF4E6012EF600156
:100910000EEDBB010B89828A83F0A3DFFCDEFA2295
:1009200089F05007F709DFFCA9F022BBFEFCF309B0
:10093000DFFCA9F0228C268D27E4F528C3E5279457
:1009400064E52694005017E4F528E528120B4324AB
:1009500049F8E4F60528E528B40FEFC29022EF1419
:100960007003020A20046003020AFD7846E6C454BC
:100970000FF97065D3E5279494E52694115003028E
:100980000AFD300003020AFDE9120BD0E6540FFC09
:1009900008E6FDEC4E18F6ED08F618120BC7EC54FD
:1009A0000F4E18F6ED08F6900001E526F0A3E527B6
:1009B000F0AE26FF7C007D1F1207669000DDEEF092
:1009C000A3EFF07C007D03120754A3EEF0A3EFF039
:1009D000A3E526F0A3E527F0227846E6C4540F6489
:1009E000026003020AFD120C72752C01752D007550
:1009F0002EDD9019DF93FE7401938E2FF530901940
:100A0000E1E493F531A3120B6C8E32F5339019E4C7
:100A1000E493F5349019E8E493F535E4FF02052BEF
:100A2000E4F528120B59120C93FFE528120BE7F995
:100A3000EFC399506EE528120BAAF5828C832FF52F
:100A400082E43583F583E493FF120C23300001B375
:100A50005003020AF1E528C454F024D9F582E434A5
:100A600019120BB4F5828C83EF540775F00212084B
:100A7000D7120BB6FDAF27AE2612133EE52850194C
:100A800025E025E02446F8120BC7EC540F4EFEED8E
:100A9000FF120B59120C2D8058120B432449F8E415
:100AA000F6804E120B59120C93697045120C72E5C8
:100AB00028120B60AA06752CFF8A2DF52EE5281248
:100AC0000C7D120B6A8E2FF530E528120BF6F531EE
:100AD000E528120C88120B6A8E32F533E528120CC9
:100AE00005F534E528120C14F535AF2812052B4016
:100AF0000C0528E528C3940F5003020A2322C29054
:100B0000E52925E025E02446F8E4F608F6E5292560
:100B1000E025E02448F8E4F6E52925E025E022F583
:100B200083E493FF5408FE131313541F24FF92020F
:100B3000AB29AA2AA92BEF540775F002A4F58285E8
:100B4000F0832225E025E02446F8E4F608F6E528BF
:100B500025E025E02448F8E4F6E52825E025E02214
:100B6000C454F024D9F582E43419F583E493FE7477
:100B70000193222446F8E6FC08E6FDECC4F854F0A4
:100B8000C8EDC4540F48540F22E529252BF582E403
:100B90003528F583E0222448F8E614131313541F74
:100BA0002403F582E43400F58322C454F024DCF5F8
:100BB00082E43419F583E493FC74019322A3F0904A
:100BC00000CCE0C4540F22E6FC08E6FDECC4540F50
:100BD0002401FFEFC454F0FE22E52E25E024DDF5CC
:100BE00082E43400F58322C454F024DEF582E43438
:100BF00019F583E49322C454F024E1F582E4341916
:100C0000F583E49322C454F024E4F582E43419F526
:100C100083E49322C454F024E8F582E43419F58384
:100C2000E493225408131313541F24FF222446F87C
:100C3000A60608A607222530F582E4352FF583E4C1
:100C400093222446F8E6FC08E6FDEC540F222446E5
:100C5000F9E7C4F854F0C809E7222533F582E435F2
:100C600032F583E4932225E024D0F582E43400F5C4
:100C70008322A200920185262A85272B22C454F0C4
:100C800024DFF582E4341922C454F024E2F582E42E
:100C90003419222446F8E6FEEEC4540F22C454F060
:100CA000FFE0540F4FF0228E268F279000DAE024C9
:100CB000FE604124026003020DB1C29020000302D5
:100CC0000DB1C3E527942CE52694015003020DB124
:100CD0009000DDE526F0A3E527F09000007401F018
:100CE000E49000CBF0C2049000037480F09000DA2E
:100CF0007402F022C3E5279464E5269400500302B1
:100D00000D9F9000CBE0C394084002D2907B007A04
:100D1000007928AF27AE2612121E401E900000E078
:100D2000FF940840028078EF120BDBE526F0A3E584
:100D300027F08F28900000E004F030042A9000CBC8
:100D4000E0FFC394C840028056A200E433C43333AA
:100D5000335480FEE528C454F04EFE74032F120B6A
:100D6000A2EEF0C20480209000CBE0120BA0E0FFC6
:100D7000A200E43333333354F84528FEEF4EF090AD
:100D800000CBE004F0D204200027C3E52794A8E5B7
:100D9000269461401C9000CBE094085008C290E477
:100DA0009000DAF0229000D9E04480F0C290E4A3F1
:100DB000F0228B298A2A892B8C2C8D2DE4F53D7508
:100DC0003E80F53BE53BC3952E5010E52D253BF5C8
:100DD00082E4352C120E62053B80E9E4F53BE53BED
:100DE000C395385057E53A253DF582E43539F5830A
:100DF000E0553E7019F53CE53CC39531502DE5308A
:100E0000253CF582E4352F120E62053C80E9E4F5BD
:100E10003CE53CC395345013E533253CF582E4357D
:100E200032120B1F120E91053C80E6E53EC313F50E
:100E30003E7005053D753E80053B80A2E4F53BE52F
:100E40003BC395375013E536253BF582E435351223
:100E50000B1F120E91053B80E6C2909000DA7403DE
:100E6000F022F583E493FF5408FE131313541F2458
:100E7000FF9202AB29AA2AA92BEF540775F002A40E
:100E8000F58285F0831207D1F54085F03F1200030B
:100E9000221207D1F54085F03F120003228E268FE3
:100EA000278C288D298B2AD200C20185298285288A
:100EB00083E05488D394004003D38001C39201E4BB
:100EC000F52BE52BC3952A505930010D120B89C41F
:100ED000131313540124FF8002A20092028527827B
:100EE000852683C083C082120B89FFC45407D08239
:100EF000D083120F2B30010C120B89FF13131354E4
:100F00001F138002A2009202852782852683C08358
:100F1000C082120B895407D082D083120F2B052B6D
:100F200080A0C2909000DA7403F02275F0021208DB
:100F3000D7E0F53FA3E0F540120003920022C0E0A5
:100F4000C0F0C083C082C0D075D000C000C001C056
:100F500002C003C004C005C006C007E5985403F5ED
:100F600045F45298E54530E024E514C39410501D33
:100F7000121734AE1474822EF8A6070514E514B4C3
:100F80001003751400E514B51203751410E545300F
:100F9000E128E517D39400401EE517F46019AF135C
:100FA00074922FF8E6FF12173105131517E513B4E5
:100FB000100875130080037517FFD007D006D00501
:100FC000D004D003D002D001D000D0D0D082D083C2
:100FD000D0F0D0E032120059787FE4F6D8FD758168
:100FE000A102101F020076E493A3F8E493A3400348
:100FF000F68001F208DFF48029E493A3F854072473
:101000000CC8C333C4540F4420C8834004F4568032
:101010000146F6DFE4800B010204081020408090B6
:101020001157E47E019360BCA3FF543F30E509549F
:101030001FFEE493A360010ECF54C025E060A840DA
:10104000B8E493A3FAE493A3F8E493A3C8C582C8D1
:10105000CAC583CAF0A3C8C582C8CAC583CADFE9A6
:10106000DEE780BEC0E0C0F0C083C082C0D075D0D3
:1010700000C000C001C002C003C004C005C006C05B
:1010800007E5D85487F521F452D8E5F730E508E5AF
:10109000F730E60312173A53F7DFE52130E708E5AA
:1010A000D930E00312005AE52130E008E5DA30E0FB
:1010B000031213D1E52130E108E5DB30E00312171C
:1010C0003BE52130E208E5DC30E00312173CD007B5
:1010D000D006D005D004D003D002D001D000D0D0AB
:1010E000D082D083D0F0D0E0328F268C278D28EFAD
:1010F000120B60AA06F97BFFEF120BAAFDEF120B91
:10110000E7F52EEF120C7D120B6A8E2FF530EF12E1
:101110000BF6F531EF120C88120B6A8E32F533EFB5
:10112000120C05F534EFC454F024E5F582E43419CB
:10113000120B6A8E35F536EFC454F024E7F582E4DD
:101140003419F583E493F537EF120C14F53885273D
:101150003985283A020DB2020C0000020800000294
:101160000E0000020A0000C1834100F2A44100D930
:10117000004100DA0042000100004200DB000042B2
:1011800000CD0000C1044100CB004100D800410067
:10119000CF00410000004800D00000000000000027
:1011A000004100CC000114000116000112000113DF
:1011B000000117FF0111000115000110A4008F2686
:1011C000E4F527F5287FAA121557AF261215579078
:1011D0000001E0FF1215579000011212179000CD88
:1011E000E0FF1215579000CD1212179000DBE0FFC0
:1011F0001215579000DBA3E0FF121557E4F5277492
:101200000325271216311215570527E527C3940326
:1012100040ED7F55021557A3E0FF121557228E2986
:101220008F2A8B2B8A2C892DE4F52E900000E0FF6D
:10123000E52EC39F5045AF2AAE291216BAAB07AAB6
:1012400006120BD9E0FEA3E0FFC39BEE9A5002808A
:1012500004AE02AF03AA06AB07120BD9E0FCA3E071
:10126000FDAF2AAE291215AA500DAB2BAA2CA92D21
:10127000E52E120742D322052E80B0C3228F268D81
:1012800027E4F528F5297FAA121557AF261215571E
:10129000E527C454F024AEF582E4341BF583E493CF
:1012A000FFE528C39F500A74082528F528052980E2
:1012B000F0E52904FF121557AF27121557E4F5285A
:1012C000E528C39529500E740325281216311215EE
:1012D00057052880EB7F550215578F26E4F5277FA9
:1012E000AA121557AF26121557900000E0FF1215ED
:1012F00057900000E0FFE527C39F501712163BE010
:10130000547FFF12155712163BA3E0FF1215570525
:101310002780DEE4F5279000CBE0FFE527C39F5050
:101320000E74032527121631121557052780E77F03
:10133000550215571207D1FDACF0AF2BAE2A8F82A4
:101340008E83AF05AE041216BAAB07AA06D3EB9490
:10135000F4EA940140067E017FF48004AE02AF03FC
:10136000AA06AB07C3EB9464EA940050067E007FA4
:10137000648004AE02AF03AA06AB07AF82AE83124D
:1013800015AA22ADDA120BBFFCE0540FB50402C35C
:101390002253DAFE9000CCE0540F120C66E0FBA35F
:1013A000E08F828E83CBF0EB120BBDC3940440061A
:1013B000E0540F120C9D9000CCE054F0FFE0044F7D
:1013C000F0E0540FC394044004E054F0F08DDAD3FD
:1013D00022ABFBAAFCA9D9D3EB94CCEA940C40062F
:1013E0007A7F7BFF800F7C007D0AAF03AE0212077D
:1013F00054AA06AB0753D9BFE4F5FAF5F989D97FAA
:10140000002093027F01EFC433333354804AFEEB54
:10141000FF021485AB07AA06E4F9F87F407E427DFF
:101420000FFC120845A804A905AA06AB077F207E79
:10143000D77D757C01120845C3E49FFFE49EFE2220
:10144000AB07AA06E4F9F87FE87E03FD22AD12E5BA
:1014500012B514057E017F0022AF1274822FF8E6C8
:10146000FB7A000512E512B41003E4F512AF11EF98
:10147000FEEE4202E4F511E514C3941040028D140F
:10148000AE02AF0322120BBFC39404502D120BBF48
:10149000120C66EEF0EF120BBD04120C9DE0C4546A
:1014A0000FC394044004E0540FF0120BBFFFE0544C
:1014B0000FB50706E0540F4440F022C0E0C0D053FF
:1014C000C87FE50D450C700353C8FBC3E50D9509B6
:1014D000E50C95085008750C00750D00800DC3E5EE
:1014E0000D9509F50DE50C9508F50CD0D0D0E0323E
:1014F000C0E0C0D053917FE50F450E70035391FBC0
:10150000C3E50F950BE50E950A5008750E00750F93
:1015100000800DC3E50F950BF50FE50E950AF50E4E
:10152000D0D0D0E0327E007F3C7D007B007A007915
:10153000461209097F0B12173743DA011200707D3A
:101540000A7C007F017E0012161012001DE490003C
:10155000DAF09000D9F0228F2AE517B4FF0AE4F5FB
:1015600017C299AF2A021731E517C3941050F9AF8B
:101570001674922FF8A62A0516E516C39410400398
:10158000E4F5160517228E418F428C438D441214C8
:10159000141216A2E54424BFF50FE54334FFF50EFF
:1015A00085410A85420B43910422C3ED9BF582ECF1
:1015B0009AF583C3E5829FE5839E500FED2BFDECEA
:1015C0003AFCC3EF9DEE9C50028001C322A3E4933A
:1015D000FE74019322E49000EEF0A3F0225480C444
:1015E000131313540124FF229000DAE024FD228E0D
:1015F000378F388C398D3A121440121421121696F6
:1016000085390C853A0D85370885380943C8042289
:101610008E268F278C288D29121440121421121621
:10162000A285280E85290F85260A85270B4391045C
:1016300022F582E43400F583E0FF22E52725E0244B
:10164000DDF582E43400F583227E1DE4FDEF30E712
:101650000625E06EFF8004EF25E0FF0DBD08EE22B9
:10166000AF885388AF758CA0758DCBEF5440FEEFDB
:1016700054104E4288228F267FAA121557AF261289
:1016800015577F55021557121676D203121525905D
:1016900000F2E0F51022AD07AC06ECF5CBAF058FFC
:1016A000CA22AD07AC06ECF593AF058F9222C2DEDD
:1016B00075D90575F9FF75960122EF7802CEC3132F
:1016C000CE13D8F9FF2275E34075E10175E20122DE
:1016D000E59154045391FB429122758E54758922F1
:1016E00043885022E5C8540453C8FB42C82253988B
:1016F0004FEB4F4DF59822E5C8C320E201D322E518
:1017000091C320E201D32253C8FB53C87F2275A4A2
:101710001175D4CF2275A54175D5772253F77F7502
:10172000DA302275E69075A8B02243981022C2DE06
:10173000228F9922AF99228F8C22222222015E04CD
:101740001A2A62080208010900019004B00BB81CB3
:10175000520A030801090001C20384286E0208002E
:10176000090108014A02762A4E020800090108020E
:101770008A1E82071C0F8C080108020803016802F8
:10178000D012C005DC0A0308010900024E05DC0185
:10179000AE348A0A0308010900012C0A00008C04F7
:1017A0007E27F6080108030802080208030804015E
:1017B000040A9A051428A008010800080208020873
:1017C00000080301720438198202080108000902A6
:1017D0009407D00FA0232808030801080208010677
:1017E0001802D000D208010A0109020A0101D60339
:1017F000FC0BFE020801080009019002D0132E0123
:101800000A00090108023007760F3222740308012A
:10181000080208173D031743021745021747020045
:1018200000001817490417510217530217550200F8
:10183000000018175703175D02175F0217610200B7
:10184000000018176303176902176B02176D020077
:1018500000000C176F04177702177902177B02003C
:10186000000028177D0417850217870217890200D8
:10187000000028178B041793021795021797020090
:1018800000001817990517A30217A50417A9041734
:10189000AD022017AF0417B70217B90417BD04171C
:1018A000C1022017C30317C90217CB0217CD0200CC
:1018B00000001117CF0417D70217D90217DB021740
:1018C000DD022417DF0317E50217E70217E9021705
:1018D000EB022817ED0317F30217F50217F70200C2
:1018E00000001417F90317FF021801021803020081
:1018F000000027180504180D02180F021811020025
:10190000000024015E041A2A62080208010900018D
:101910009004B00BB81C520A030801090001C2036D
:1019200084286E020800090108014A02762A4E0244
:101930000800090108028A1E82071C0F8C08010892
:10194000020803016802D012C005DC0A030801097D
:1019500000024E05DC01AE348A0A030801090001C9
:101960002C0A00008C047E27F608010803080208F0
:10197000020803080401040A9A051428A0080108B3
:1019800000080208020800080301720438198202E4
:101990000801080009029407D00FA02328080308B3
:1019A0000108020801061802D000D208010A010944
:1019B000020A0101D603FC0BFE020801080009011E
:1019C0009002D0132E010A00090108023007760F99
:1019D00032227403080108020819030319090219C5
:1019E0000B02190D0200000018190F041917021933
:1019F0001902191B0200000018191D0319230219EE
:101A0000250219270200000018192903192F0219AD
:101A100031021933020000000C193504193D021976
:101A20003F0219410200000028194304194B021912
:101A30004D02194F020000002819510419590219CA
:101A40005B02195D0200000018195F05196902198F
:101A50006B04196F0419730220197504197D02199A
:101A60007F0419830419870220198903198F021929
:101A7000910219930200000011199504199D021991
:101A80009F0219A10219A3022419A50319AB021977
:101A9000AD0219AF0219B1022819B30319B902191D
:101AA000BB0219BD020000001419BF0319C50219B9
:101AB000C70219C9020000002719CB0419D3021963
:101AC000D50219D70200000024015E041A2A620818
:101AD0000208010900019004B00BB81C520A030867
:101AE00001090001C20384286E02080009010801EF
:101AF0004A02762A4E020800090108028A1E82075D
:101B00001C0F8C080108020803016802D012C005EE
:101B1000DC0A0308010900024E05DC01AE348A0A22
:101B20000308010900012C0A00008C047E27F60836
:101B3000010803080208020803080401040A9A05C0
:101B40001428A00801080008020802080008030180
:101B50007204381982020801080009029407D00FA4
:101B6000A023280803080108020801061802D00073
:101B7000D208010A0109020A0101D603FC0BFE0288
:101B80000801080009019002D0132E010A00090182
:101B900008023007760F3222740308010802081A7F
:101BA000C9031ACF021AD1021AD302000000181A70
:101BB000D5041ADD021ADF021AE102000000181A29
:101BC000E3031AE9021AEB021AED02000000181AE8
:101BD000EF031AF5021AF7021AF9020000000C1AB4
:101BE000FB041B03021B05021B0702000000281B4D
:101BF00009041B11021B13021B1502000000281B05
:101C000017041B1F021B21021B2302000000181BCC
:101C100025051B2F021B31041B35041B3902201B19
:101C20003B041B43021B45041B49041B4D02201BA4
:101C30004F031B55021B57021B5902000000111BCA
:101C40005B041B63021B65021B67021B6902241BEA
:101C50006B031B71021B73021B75021B7702281B8F
:101C600079031B7F021B81021B8302000000141BEF
:101C700085031B8B021B8D021B8F02000000271B9C
:0F1C800091041B99021B9B021B9D020000002474
:00000001FF
