:020000040000FA
:10000000020FF9A2029290A2029280AD40AC3F7F13
:100010000A7E0012162712001DA202B322E59120CB
:10002000E2FB22020F627597A5222202152A120016
:100030002A1217811217881217391200551216D377
:1000400012175712174312174D12172112178F123A
:10005000179D021796E4F5A9222222021088121792
:10006000A153D87853DAFE12177AE49000DAF0221E
:10007000D2DE2202155F12002EC290C296C280E428
:10008000FBFD7F101217611215C6D2AF1216ADD24A
:10009000969000EFE004F070069000EEE004F0901F
:1000A00000EEE0B427E9A3E0B410E4C29612002603
:1000B0003003091214BC8E228F238006752201752D
:1000C0002300E5237004E52264017040E515700605
:1000D0001216AE0202519000EEE475F0011207BB59
:1000E000FED3E5F09410EE94274002D296D3900010
:1000F000EFE094309000EEE094755003020251E47A
:10010000F0A3F0F515F510C2960202511216ADE5F6
:10011000151460281470030202121470030201D631
:100120001470030201EC24046003020251E523640D
:10013000AA6003020251751501020251751502E50C
:10014000231208F901D0A00169A1016BA50187A6BE
:10015000018FA7019CA801B2A901A2B001A7B1011A
:100160007CC001D0FF000001C78047120516900037
:10017000ED7408F0E4F5257524098054120516E4A1
:10018000F52575240280491204E174A6F08041121D
:1001900004E174A4F0752200F52380349000ED741E
:1001A00008F075150380291215C69000F374B1F09C
:1001B000801E7D321204C41215C67D307C757F010D
:1001C0007E0012166C8009752200851023E4F51557
:1001D000E523F510807BE4F525E523F524E524D31C
:1001E0009400402912005E7515048065740325256E
:1001F000F582E43400F583E523F00525E525B524F3
:1002000002800AE525C394C840477524C8751502C5
:10021000803FE52364557039F515C203E51024606D
:10022000601F24FC601224FE600E14600B24F76033
:1002300017146004241070197FA01216E9D20380ED
:10024000101204E8D2038009900004E0049000ED4D
:10025000F0E5101208F90278A102E6A40331A50224
:10026000E6A603F2A80278A90425B0048CB103D64F
:10027000C003EDFF000000AD9000D9E030E7317D14
:10028000C81204C4E5102457600E24087018120424
:10029000E87FA31212C8800E1215C69000F3E0F595
:1002A000107FAB12050BE49000D9F0D2030200AD31
:1002B000121772501E7DE87C031204FCE5102457CF
:1002C000600C240860030200AD7FA202047E7FAAB6
:1002D00002047E1204D540030200ADE5107F01B494
:1002E000A1027F0080359000D9E030E71DE51024A1
:1002F0005A600F240260030204987FA41212C802FD
:1003000004987FA612050B0204981204D54003023C
:1003100000ADE5107F01B4A4027F009000F2E0245C
:10032000FF92009000F0E0FCA3E0FD12094B0200F8
:10033000ADE51560030200AD1216B570030203C9E6
:10034000240360030200AD1204F2900005E0FFA355
:10035000E09000DDCFF0A3EFF0900007E0FFA3E016
:100360009000DFCFF0A3EFF0900003E0FFA3E09058
:1003700000E1CFF0A3EFF07B017A0079DD901889DE
:10038000E493FC740193FD90188BE493F52E121600
:10039000A58E2FF53090188EE493F5311216A58EA8
:1003A00032F533901891E493F5341216A58E35F595
:1003B00036901894E493F537A3E493F53875390033
:1003C000753A09120DD60200AD9000EDE07054C2EE
:1003D000807FA002047EE51560030200AD9000035B
:1003E000E0FCA3E0FD1204FC7FA002047E7F030278
:1003F000047EE51560030200AD1216B560192403F2
:1004000060030200AD1204F2900003E0FF7C007D67
:10041000041211920200AD9000EDE07006C2807FE0
:10042000A0805B805FE51560030200AD1216B56029
:1004300043240360030200AD9000EDE014F01200CD
:100440005E7E007F05C006C007900003E0FB25E04C
:10045000FFE433FE74052FF58274003EAD82FCEBA1
:1004600025E0FFE52424FEC39FFBD007D006120E33
:10047000C10200AD9000EDE0700AC2807FA01216AC
:10048000FA0200ADE49000DAF00200AD9000D9E08D
:1004900030E70D7FB11213E4E49000D9F00200AD13
:1004A0007E007FF07C007DF212110D40030200AD52
:1004B0009000F0E0FEA3E0FFA3E024FF9200120C06
:1004C000CB0200AD7C007F017E0012166CD296122A
:1004D000001DC296227E007FF07C007DF212110D7D
:1004E000221215C69000F3221215C69000F3E0F513
:1004F00010229000EDE014F012005E227F017E00D9
:1005000012166CD29612001DC296229000D9E054A9
:100510007FFD1213872212005E751504228F29E4D5
:10052000F536EF25E025E02448F8E6701EEF25E0DB
:1005300025E02449F876087E007FC87D007B017A9B
:1005400000790312091FE49000CFF0AB2CAA2DA96B
:100550002EC001120B282446F9E7540F120C641226
:100560000B47D001120734503D120B282446F9E7FF
:10057000540FFF120C64120C51300101B34031EFE3
:10058000700A9000CDE52AF0A3E52BF0120B28129B
:100590000C702401FFEFFEEC54F04EFEEDFF120B49
:1005A00028120C5B800A120B282446F874F056F6C9
:1005B000AB2CAA2DA92EC001120B28120C7C120BF9
:1005C00092120C88120B47D0011207345052120BB2
:1005D00028120C7C120B92FF120C885408FE120C8D
:1005E00053300101B34043EF700A9000DBE52AF07D
:1005F000A3E52BF0120B28120B832401FFE433FE3A
:10060000EFC4F8540FC868FFEEC454F048FEED5430
:100610000FFDEC4EFEED4FFF120B28120C5B800A13
:10062000120B282447F8740F56F6120B28120C7080
:10063000FB700F120B8B700A120B0E2449F8E4F6B4
:10064000C322120B282448F8E5351466700375366A
:1006500001C3E53195366B7020D290120B282446E9
:10066000F874F056F6740F0856120B272448F80653
:10067000120B282449F816804C120B28120B83FF0A
:10068000C3E53495366F703DD290120B282446F89E
:10069000EC54F0FEED540FA60608120B272448F880
:1006A00006120B282449F816120B28120BC1E0FF82
:1006B000120B282449F8E6FE7401A806088002C33C
:1006C00033D8FC4FF0120B282449F8E6701B120BAC
:1006D00028120BC1E0FF9000CFE06FFF1216BCEFB5
:1006E000F0120B282449F87608120B282448F8E663
:1006F000C39535403D12176A5005E49000D8F0903C
:1007000000D8E0FF9000CFE06F601D12177A7D20C7
:100710007C037F017E0012164B9000CFE09000D842
:10072000F0A3E529F04480F0120B0E2449F8E4F61A
:10073000D322C3221207D1FDACF0AF2BAE2A121484
:100740003E22BB010689828A83F0225002F722BB37
:10075000FE01F322EF8DF0A4A8F0CF8CF0A428CEF8
:100760008DF0A42EFE22BC000BBE0029EF8DF0847C
:10077000FFADF022E4CCF875F008EF2FFFEE33FE6A
:10078000EC33FCEE9DEC984005FCEE9DFE0FD5F0A1
:10079000E9E4CEFD22EDF8F5F0EE8420D21CFEADAA
:1007A000F075F008EF2FFFED33FD4007985006D5A8
:1007B000F0F222C398FD0FD5F0EA22C5F0F8A3E0CD
:1007C00028F0C5F0F8E582158270021583E038F054
:1007D00022BB0110E58229F582E5833AF583E0F535
:1007E000F0A3E0225009E92582F886F008E622BB52
:1007F000FE0AE92582F8E2F5F008E222E5832AF50F
:1008000083E993F5F0A3E9932275F008758200EF70
:100810002FFFEE33FECD33CDCC33CCC58233C58232
:100820009BED9AEC99E58298400CF582EE9BFEEDEB
:100830009AFDEC99FC0FD5F0D6E4CEFBE4CDFAE4BA
:10084000CCF9A88222B800C1B90059BA002DEC8BAE
:10085000F084CFCECDFCE5F0CBF97818EF2FFFEE8A
:1008600033FEED33FDEC33FCEB33FB10D703994043
:1008700004EB99FB0FD8E5E4F9FA227818EF2FFF83
:10088000EE33FEED33FDEC33FCC933C910D7059BC5
:10089000E99A4007EC9BFCE99AF90FD8E0E4C9FA21
:1008A000E4CCFB2275F010EF2FFFEE33FEED33FDAD
:1008B000CC33CCC833C810D7079BEC9AE899400AD0
:1008C000ED9BFDEC9AFCE899F80FD5F0DAE4CDFB4E
:1008D000E4CCFAE4C8F922EB9FF5F0EA9E42F0E995
:1008E0009D42F0EC6480C864809845F022A4258283
:1008F000F582E5F03583F58322D083D082F8E49346
:100900007012740193700DA3A393F8740193F58290
:100910008883E4737402936860EFA3A3A380DFEF7E
:100920004E6012EF60010EEDBB010B89828A83F0ED
:10093000A3DFFCDEFA2289F05007F709DFFCA9F0FB
:1009400022BBFEFCF309DFFCA9F0228C268D27E4F4
:10095000F528C3E5279464E52694005017E4F528AC
:10096000E528120B532449F8E4F60528E528B40FCE
:10097000EFC29022EF147003020A36046003020BE8
:100980000D7846E6C4540FF97065D3E5279494E5D5
:100990002694115003020B0D300003020B0DE912D7
:1009A0000BFBE6540FFC08E6FDEC4E18F6ED08F6DE
:1009B00018120BF2EC540F4E18F6ED08F6900001E9
:1009C000E526F0A3E527F0AE26FF7C007D1F120789
:1009D000669000DDEEF0A3EFF07C007D031207547B
:1009E000A3EEF0A3EFF0A3E526F0A3E527F022782D
:1009F00046E6C4540F64026003020B0D120CA0758E
:100A00002C01752D00752EDD901A5293FE74019302
:100A10008E2FF530901A54E493F531A3120B7C8E8F
:100A200032F533901A57E493F534901A5BE493F55A
:100A300035E4FF02051DE4F528120B69120B99FE3F
:100A4000EFC39E506EE528120BD5F5828C832FF5EF
:100A500082E43583F583E493FF120C51300001B337
:100A60005003020B01E528C454F0244CF582E43411
:100A70001A120BDFF5828C83EF540775F00212080F
:100A8000ED120BE1FDAF27AE2612143EE5285019FA
:100A900025E025E02446F8120BF2EC540F4EFEED53
:100AA000FF120B69120C5B8058120B532449F8E4B7
:100AB000F6804E120B69120B996F7045120CA0E56F
:100AC00028120B70AA06752CFF8A2DF52EE5281228
:100AD0000CAB120B7A8E2FF530E528120C24F53171
:100AE000E528120CB6120B7A8E32F533E528120C7B
:100AF00033F534E528120C42F535AF2812051D40B8
:100B00000C0528E528C3940F5003020A3922C2902D
:100B1000E52925E025E02446F8E4F608F6E5292550
:100B2000E025E02448F8E4F6E52925E025E022F573
:100B300083E493FF5408FE131313541F24FF9202FF
:100B4000AB29AA2AA92BEF540775F002A4F58285D8
:100B5000F0832225E025E02446F8E4F608F6E528AF
:100B600025E025E02448F8E4F6E52825E025E02204
:100B7000C454F0244CF582E4341AF583E493FE74F3
:100B80000193222446F8E6FC08E6FDECC4F854F094
:100B9000C8EDC4540F48540F222446F8E6FEEEC4B4
:100BA000540FFFE528C454F02451F582E4341AF5BB
:100BB00083E49322E529252BF582E43528F583E0AB
:100BC000222448F8E614131313541F2403F582E477
:100BD0003400F58322C454F0244FF582E4341AF52E
:100BE00083E493FC74019322A3F09000CCE0C454FE
:100BF0000F22E6FC08E6FDECC4540F2401FFEFC40D
:100C000054F0FE22E52E25E024DDF582E43400F5E3
:100C10008322E53A9582FFE5399583FEC3EF953847
:100C2000EE953722C454F02454F582E4341AF58347
:100C3000E49322C454F02457F582E4341AF583E493
:100C40009322C454F0245BF582E4341AF583E493D0
:100C5000225408131313541F24FF222446F8A60617
:100C600008A607222530F582E4352FF583E4932288
:100C70002446F8E6FC08E6FDEC540F222446F9E78A
:100C8000C4F854F0C809E7222533F582E43532F57B
:100C900083E4932225E024D0F582E43400F5832216
:100CA000A200920185262A85272B22C454F02452C3
:100CB000F582E4341A22C454F02455F582E4341A3F
:100CC00022C454F0FFE0540F4FF0228E268F27905D
:100CD00000DAE024FE604124026003020DD5C290D8
:100CE000200003020DD5C3E527942CE5269401507E
:100CF00003020DD59000DDE526F0A3E527F0900076
:100D0000007401F0E49000CBF0C204900003748002
:100D1000F09000DA7402F022C3E5279464E526948B
:100D2000005003020DC39000CBE0C394084002D2F0
:100D3000907B007A007928AF27AE26121328401E38
:100D4000900000E0FF940840028078EF120C06E566
:100D500026F0A3E527F08F28900000E004F030048F
:100D60002A9000CBE0FFC394C840028056A200E462
:100D700033C43333335480FEE528C454F04EFE743C
:100D8000032F120BCDEEF0C20480209000CBE012B6
:100D90000BCBE0FFA200E43333333354F84528FE95
:100DA000EF4EF09000CBE004F0D204200027C3E522
:100DB0002794A8E5269461401C9000CBE09408504D
:100DC00008C290E49000DAF0229000D9E04480F06C
:100DD000C290E4A3F0228B298A2A892B8C2C8D2D9A
:100DE000E4F53D753E80F53BE53BC3952E5010E59F
:100DF0002D253BF582E4352C120E86053B80E9E477
:100E0000F53BE53BC395385057E53A253DF582E47F
:100E10003539F583E0553E7019F53CE53CC3953115
:100E2000502DE530253CF582E4352F120E86053C29
:100E300080E9E4F53CE53CC395345013E533253CAB
:100E4000F582E43532120B2F120EB5053C80E6E533
:100E50003EC313F53E7005053D753E80053B80A2FF
:100E6000E4F53BE53BC395375013E536253BF5826A
:100E7000E43535120B2F120EB5053B80E6C290907B
:100E800000DA7403F022F583E493FF5408FE131391
:100E900013541F24FF9202AB29AA2AA92BEF54074F
:100EA00075F002A4F58285F0831207D1F54085F034
:100EB0003F120003221207D1F54085F03F120003D4
:100EC000228E268F278C288D298B2AD200C201855D
:100ED0002982852883E05488D394004003D380017D
:100EE000C39201E4F52BE52BC3952A505930010D2F
:100EF000120BB4C4131313540124FF8002A20092F6
:100F000002852782852683C083C082120BB4FFC46A
:100F10005407D082D083120F4F30010C120BB4FF54
:100F2000131313541F138002A20092028527828597
:100F30002683C083C082120BB45407D082D08312A0
:100F40000F4F052B80A0C2909000DA7403F0227539
:100F5000F0021208EDE0F53FA3E0F5401200039225
:100F60000022C0E0C0F0C083C082C0D075D000C0F5
:100F700000C001C002C003C004C005C006C007E530
:100F8000985403F545F45298E54530E024E514C340
:100F90009410501D1217A7AE1474822EF8A60705E0
:100FA00014E514B41003751400E514B51203751498
:100FB00010E54530E128E517D39400401EE517F40D
:100FC0006019AF1374922FF8E6FF1217A4051315DA
:100FD00017E513B4100875130080037517FFD007C9
:100FE000D006D005D004D003D002D001D000D0D09C
:100FF000D082D083D0F0D0E032120059787FE4F66E
:10100000D8FD7581A1021043020076E493A3F8E4B1
:1010100093A34003F68001F208DFF48029E493A350
:10102000F85407240CC8C333C4540F4420C8834069
:1010300004F456800146F6DFE4800B010204081038
:10104000204080901200E47E019360BCA3FF543FD7
:1010500030E509541FFEE493A360010ECF54C02570
:10106000E060A840B8E493A3FAE493A3F8E493A360
:10107000C8C582C8CAC583CAF0A3C8C582C8CAC5C4
:1010800083CADFE9DEE780BEC0E0C0F0C083C08273
:10109000C0D075D000C000C001C002C003C004C0F1
:1010A00005C006C007E5D85487F521F452D8E5F706
:1010B00030E508E5F730E6031217AD53F7DFE52119
:1010C00030E708E5D930E00312005AE52130E008A6
:1010D000E5DA30E003121594E52130E108E5DB3074
:1010E000E0031217AEE52130E208E5DC30E0031240
:1010F00017AFD007D006D005D004D003D002D0015E
:10110000D000D0D0D082D083D0F0D0E0328C268DE9
:1011100027AB07AA06A9DA120BEAFFE0540FB507BE
:1011200002C32253DAFE9000CCE0540F120C94E07C
:10113000FFA3E08B828A83CFF0EF120BE8C3940405
:101140004006E0540F120CC19000CCE054F0FFE0D8
:10115000044FF0E0540FC394044004E054F0F089CD
:10116000DA8B828A83E07F0030E7027F0185278265
:10117000852683EFF08B828A83E0547FFEA3E0FF15
:101180007C007D0A1207548B828A83EEF0A3EFF075
:10119000D3228F268C278D28EF120B70AA06F97B9D
:1011A000FFEF120BD5FDEF120BA5F52EEF120CABD6
:1011B000120B7A8E2FF530EF120C24F531EF120C52
:1011C000B6120B7A8E32F533EF120C33F534EFC4CE
:1011D00054F02458F582E4341A120B7A8E35F53621
:1011E000EFC454F0245AF582E4341AF583E493F5FD
:1011F00037EF120C42F53885273985283A020DD68B
:10120000020C000002080000020E0000020A0000AA
:10121000C1834100F3A44100D9004100DA0042003B
:101220000100004200DB00004200CD0000C104418B
:1012300000CB004100D8004100CF00410000004831
:1012400000D000000000000000004100CC000114AC
:10125000000116000112000113000117FF01110027
:101260000115000110A4008E378F388C398D3A8B10
:10127000828A83C374FF9BFB74FF9AFAE49400F99B
:10128000E49400F8AE39AF3AE4FCFDD31208D7403D
:1012900024120C125019E53A2582FFE5393583FEF8
:1012A000C3E5389FE5379E50067E007F0180147E9F
:1012B000007F00800EC3120C127E0050047F01805C
:1012C000027F00EE4F24FF228F26E4F527F5287FCA
:1012D000AA1215F8AF261215F8900001E0FF1215BA
:1012E000F89000011213219000CDE0FF1215F89044
:1012F00000CD1213219000DBE0FF1215F89000DB07
:10130000A3E0FF1215F8E4F5277403252712168DC4
:101310001215F80527E527C3940340ED7F55021504
:10132000F8A3E0FF1215F8228E298F2A8B2B8A2C26
:10133000892DE4F52E900000E0FFE52EC39F504577
:10134000AF2AAE2912172DAB07AA06120C04E0FE35
:10135000A3E0FFC39BEE9A50028004AE02AF03AA43
:1013600006AB07120C04E0FCA3E0FDAF2AAE291285
:101370001267500DAB2BAA2CA92DE52E120742D3D4
:1013800022052E80B0C3228F268D27E4F528F5296B
:101390007FAA1215F8AF261215F8E527C454F024D9
:1013A00021F582E4341CF583E493FFE528C39F50C4
:1013B0000A74082528F528052980F0E52904FF127C
:1013C00015F8AF271215F8E4F528E528C39529503C
:1013D0000E7403252812168D1215F8052880EB7F50
:1013E000550215F88F26E4F5277FAA1215F8AF26C7
:1013F0001215F8900000E0FF1215F8900000E0FFD1
:10140000E527C39F5017121697E0547FFF1215F877
:10141000121697A3E0FF1215F8052780DEE4F527E2
:101420009000CBE0FFE527C39F500E7403252712E1
:10143000168D1215F8052780E77F550215F88F8263
:101440008E83AF05AE0412172DAB07AA06D3EB941B
:10145000F4EA940140067E017FF48004AE02AF03FB
:10146000AA06AB07C3EB9464EA940050067E007FA3
:10147000648004AE02AF03AA06AB07AF82AE83124C
:10148000126722AB07AA06E4F9F87F407E427D0F7F
:10149000FC120845A804A905AA06AB077F207ED741
:1014A0007D757C01120845C3E49FFFE49EFE22ABDC
:1014B00007AA06E4F9F87FE87E03FD22AD12E512E3
:1014C000B514057E017F0022AF1274822FF8E6FB6F
:1014D0007A000512E512B41003E4F512AF11EFFE25
:1014E000EE4202E4F511E514C3941040028D14AEEF
:1014F00002AF0322120BEAC39404502D120BEA121E
:101500000C94EEF0EF120BE804120CC1E0C4540F7F
:10151000C394044004E0540FF0120BEAFFE0540FB0
:10152000B50706E0540F4440F022C0E0C0D053C8D5
:101530007FE50D450C700353C8FBC3E50D9509E528
:101540000C95085008750C00750D00800DC3E50D55
:101550009509F50DE50C9508F50CD0D0D0E032C01A
:10156000E0C0D053917FE50F450E70035391FBC34C
:10157000E50F950BE50E950A5008750E00750F00E6
:10158000800DC3E50F950BF50FE50E950AF50ED00E
:10159000D0D0E032ADFBACFCAFD9D3ED9499EC9454
:1015A0001940047C197D9953D9BFE4F5FAF5F98FF8
:1015B000D97F002093027F01EFC433333354804C32
:1015C000FEEDFF0214F47E007F3C7D007B007A007C
:1015D000794612091F7F0B1217AA43DA0112007015
:1015E0007D0A7C007F017E0012166C12001DE490C3
:1015F00000DAF09000D9F0228F2AE517B4FF0AE450
:10160000F517C299AF2A0217A4E517C3941050F931
:10161000AF1674922FF8A62A0516E516C39410404B
:1016200003E4F5160517228E418F428C438D441238
:101630001483121715E54424BFF50FE54334FFF575
:101640000E85410A85420B439104228E378F388CD8
:10165000398D3A1214AF12149012170985390C857E
:101660003A0D85370885380943C804228E268F270E
:101670008C288D291214AF12149012171585280E7C
:1016800085290F85260A85270B43910422F582E4DC
:101690003400F583E0FF22E52725E024DDF582E430
:1016A0003400F58322A3E493FE74019322E49000B6
:1016B000EEF0A3F0229000DAE024FD227E1DE4FD8E
:1016C000EF30E70625E06EFF8004EF25E0FF0DBD5B
:1016D00008EE22AF885388AF758CA0758DCBEF5480
:1016E00040FEEF54104E4288228F267FAA1215F832
:1016F000AF261215F87F550215F81216E9D203121B
:1017000015C69000F3E0F51022AD07AC06ECF5CB62
:10171000AF058FCA22AD07AC06ECF593AF058F92EB
:1017200022C2DE75D90575F9FF75960122EF7802A0
:10173000CEC313CE13D8F9FF2275E34075E10175CE
:10174000E20122E59154045391FB429122758E549B
:1017500075892243885022E5C8540453C8FB42C807
:101760002253984FEB4F4DF59822E5C8C320E20174
:10177000D322E591C320E201D32253C8FB53C87F93
:101780002275A41175D4CF2275A54175D577225342
:10179000F77F75DA302275E69075A8B0224398106D
:1017A00022C2DE228F9922AF99228F8C22222222FE
:1017B000015E041A2A62080208010900019004B0BF
:1017C0000BB81C520A030801090001C20384286EE9
:1017D000020800090108014A02762A4E020800099F
:1017E0000108028A1E82071C0F8C080108020803E8
:1017F000016802D012C005DC0A0308010900024E8C
:1018000005DC01AE348A0A0308010900012C0A0034
:10181000008C047E27F6080108030802080208036A
:10182000080401040A9A051428A008010800080207
:10183000080208000803017204381982020801082E
:101840000009029407D00FA023280803080108020A
:101850000801061802D000D208010A0109020A0193
:1018600001D603FC0BFE020801080009019002D01A
:10187000132E010A00090108023007760F32227484
:1018800003080108020817B00317B60217B80217B9
:10189000BA020000001817BC0417C40217C60217CA
:1018A000C8020000001817CA0317D00217D2021787
:1018B000D4020000001817D60317DC0217DE021747
:1018C000E0020000000C17E20417EA0217EC02170E
:1018D000EE020000002817F00417F80217FA0217AA
:1018E000FC020000002817FE04180602180802185F
:1018F0000A0200000018180C05181602181804181F
:101900001C0418200220182204182A02182C04187B
:10191000300418340220183603183C02183E02180E
:10192000400200000011184204184A02184C021824
:101930004E0218500224185203185802185A02185E
:101940005C02185E02281860031866021868021804
:101950006A0200000014186C03187202187402184E
:1019600076020000002718780418800218820218F6
:10197000840200000024015E041A2A6208020801A1
:101980000900019004B00BB81C520A0308010900B9
:1019900001C20384286E020800090108014A027688
:1019A0002A4E020800090108028A1E82071C0F8CB9
:1019B000080108020803016802D012C005DC0A030E
:1019C00008010900024E05DC01AE348A0A03080151
:1019D0000900012C0A00008C047E27F60801080388
:1019E000080208020803080401040A9A051428A042
:1019F0000801080008020802080008030172043800
:101A00001982020801080009029407D00FA02328B8
:101A10000803080108020801061802D000D20801D4
:101A20000A0109020A0101D603FC0BFE02080108A3
:101A30000009019002D0132E010A000901080230AA
:101A400007760F3222740308010802081976031979
:101A50007C02197E02198002000000181982041904
:101A60008A02198C02198E020000001819900319BD
:101A70009602199802199A0200000018199C03197D
:101A8000A20219A40219A6020000000C19A8041948
:101A9000B00219B20219B4020000002819B60419E4
:101AA000BE0219C00219C2020000002819C404199C
:101AB000CC0219CE0219D0020000001819D2051963
:101AC000DC0219DE0419E20419E6022019E80419FF
:101AD000F00219F20419F60419FA022019FC031A8B
:101AE00002021A04021A0602000000111A08041A5F
:101AF00010021A12021A14021A1602241A18031AD1
:101B00001E021A20021A22021A2402281A26031A76
:101B10002C021A2E021A3002000000141A32031A84
:101B200038021A3A021A3C02000000271A3E041A30
:101B300046021A48021A4A0200000024015E041AF2
:101B40002A62080208010900019004B00BB81C5277
:101B50000A030801090001C20384286E0208000973
:101B60000108014A02762A4E020800090108028A89
:101B70001E82071C0F8C080108020803016802D0AE
:101B800012C005DC0A0308010900024E05DC01AEA3
:101B9000348A0A0308010900012C0A00008C047E23
:101BA00027F60801080308020802080308040104D4
:101BB0000A9A051428A00801080008020802080073
:101BC000080301720438198202080108000902940E
:101BD00007D00FA0232808030801080208010618EF
:101BE00002D000D208010A0109020A0101D603FC51
:101BF0000BFE020801080009019002D0132E010A11
:101C000000090108023007760F3222740308010828
:101C100002081B3C031B42021B44021B460200003D
:101C200000181B48041B50021B52021B54020000E8
:101C300000181B56031B5C021B5E021B60020000A7
:101C400000181B62031B68021B6A021B6C02000067
:101C5000000C1B6E041B76021B78021B7A0200002C
:101C600000281B7C041B84021B86021B88020000C8
:101C700000281B8A041B92021B94021B9602000080
:101C800000181B98051BA2021BA4041BA8041BAC74
:101C900002201BAE041BB6021BB8041BBC041BC0F5
:101CA00002201BC2031BC8021BCA021BCC0200007D
:101CB00000111BCE041BD6021BD8021BDA021BDC50
:101CC00002241BDE031BE4021BE6021BE8021BEAE4
:101CD00002281BEC031BF2021BF4021BF60200009D
:101CE00000141BF8031BFE021C00021C0202000071
:101CF00000271C04041C0C021C0E021C1002000015
:021D00000024BD
:00000001FF
