:020000040000FA
:100000000210E6A2029290A2029280AD40AC3F7F25
:100010000A7E0012002E12001DA202B322E59120DA
:10002000E2FB220210567597A522220214298E4166
:100030008F428C438D4412163D1218BCE54424BFF8
:100040009000E8F0E54334FF9000E7F09000E3E52E
:1000500041F0A3E542F043910422220211751219E6
:100060004453D87853DAFE121915E4900087F02231
:10007000D2DE2202147C1217CCC290C296C280E457
:10008000FBFD7F101218FC12053174A4F0D2AF12E0
:100090001716D2969000ECE004F070069000EBE0AA
:1000A00004F09000EBE0B427E9A3E0B410E4C296BA
:1000B0001200263003091216BD8E228F238006758A
:1000C0002201752300E5237004E522640170469047
:1000D00000DEE070061217170202959000EBE4753F
:1000E000F001120815FED3E5F09410EE94274002BB
:1000F000D296D39000ECE094309000EBE0947550F1
:1001000003020295E4F0A3F09000DEF0900099F075
:10011000C2960202951217169000DEE014602A14AF
:1001200070030202591470030202171470030202D2
:100130003024046003020295E52364AA60030202EE
:10014000959000DE04F0020295E523900099F0906E
:1001500000DE7402F0E52312093D0201A0017FA137
:10016000018BA501A9A601BDA701C6A801DDA901B2
:10017000CCB001D5B1019DC00295FF0000020C1268
:10018000051EE490008AF07FA1806512054E900064
:10019000EA7408F0E4F52575240902029512054E6B
:1001A000E4F52575240202029590008A7401F07F1F
:1001B000A61215B290007974A6F0020295120531CC
:1001C00074A4F00202959000EA7408F09000DE74C6
:1001D00003F00202957FB112056202029512051E1C
:1001E00090008AE09000E9F090008A7401F07FA905
:1001F0001205627D307C757F017E001217A302021A
:100200009512056B900079EFF0E48005E490009979
:10021000F09000DEF0807EE4F525E523F524E5246A
:10022000D39400402C12005E9000DE7404F08065D0
:1002300074032525F582E43400F583E523F00525D4
:10024000E525B52402800AE525C39470404775244E
:10025000709000DE7402F0803CE5236455703690A7
:1002600000DEF0C203900099E02460601B24FC6073
:100270001224FE600E14600B24F760101460042436
:100280001070127FA01218A3D2038009900004E01E
:10029000049000EAF0900099E012093D02BEA1032B
:1002A00033A40377A50333A60447A802BEA9047CA0
:1002B000B004E5B1041EC00442FF000000B090008D
:1002C00086E030E73F7DC87C0012053F900099E052
:1002D0002457600E2408701F12056B7FA31215F8B7
:1002E00080159000E9E090008AF0900079E0FF121C
:1002F00015B27FAB12057CE4900086F043DA01D2A0
:10030000030200B012190D50207DE87C0312053F56
:10031000900099E02457600C240860030200B07F2D
:10032000A20204D77FAA0204D71205744003020078
:10033000B0802E900086E030E71F900099E0245AAC
:10034000600F240260030204F17FA41215F8020476
:10035000F17FA612057C0204F1120574400302002D
:10036000B01216F3C006C0071217029200D007D0D1
:100370000612098F0200B09000DEE060030200B0B8
:1003800012171E7003020411240560030200B0124C
:100390000558900005E0FFA3E090008BCFF0A3EF9D
:1003A000F0900007E0FFA3E090008DCFF0A3EFF006
:1003B000900003E0FFA3E090008FCFF0A3EFF07B6D
:1003C000017A00798B901A1BE493FC740193FD90E1
:1003D0001A1DE493F52E12170E8E2FF530901A2069
:1003E000E493F53112170E8E32F533901A23E4930D
:1003F000F53412170E8E35F536901A26E493F5373C
:10040000A3E493F538753900753A09120ECA020053
:10041000B09000EAE07063C2807FA00204D7900031
:10042000DEE060030200B0900003E0FCA3E0FD7F8B
:10043000017E001217A3D29612001DC2967FA00261
:1004400004D77F030204D79000DEE060030200B00F
:1004500012171E6019240560030200B0120558909F
:100460000003E0FF7C007D041213650200B09000E1
:10047000EAE07006C2807FA0805D80619000DEE0CF
:1004800060030200B012171E6043240560030200DF
:10049000B09000EAE014F012005E7E007F05C00616
:1004A000C007900003E0FB25E0FFE433FE74052F56
:1004B000F58274003EAD82FCEB25E0FFE52424FECE
:1004C000C39FFBD007D006120FB50200B09000EA20
:1004D000E0700AC2807FA01218960200B0E490007B
:1004E00087F00200B0900086E030E7107FB1121173
:1004F000FAE4900086F043DA010200B07E007FED5E
:1005000012151C40030200B01216F3C006C00712F9
:1005100017029200D007D006120D240200B07D32DF
:100520007C007F017E001217A3D29612001DC29696
:1005300022E490008AF07FA41215B2900079227F05
:10054000017E001217A3D29612001DC2962212003D
:100550005E9000DE7404F0229000EAE014F01200D5
:100560005E221215B2900079EFF022900079E0FF40
:100570001215B2227E007FED12151C22900086E03B
:10058000547FFD121567228F29E4F536EF25E0250B
:10059000E02468F8E6701EEF25E025E02469F8768F
:1005A000087E007F707D007B017A00790312096369
:1005B000E490007AF0AB2CAA2DA92EC001120B7585
:1005C0002466F9E7540F120CB1120B94D0011207F4
:1005D0008E503D120B752466F9E7540FFF120CB1D3
:1005E000120C9E300101B34031EF700A900077E5A4
:1005F0002AF0A3E52BF0120B75120CBD2401FFEFBE
:10060000FEEC54F04EFEEDFF120B75120CA8800AA2
:10061000120B752466F874F056F6AB2CAA2DA92E91
:10062000C001120B75120CC9120BDF120CD5120B84
:1006300094D00112078E5052120B75120CC9120B76
:10064000DFFF120CD55408FE120CA0300101B3409C
:1006500043EF700A900088E52AF0A3E52BF0120B17
:1006600075120BD02401FFE433FEEFC4F8540FC819
:1006700068FFEEC454F048FEED540FFDEC4EFEED65
:100680004FFF120B75120CA8800A120B752467F825
:10069000740F56F6120B75120CBDFB700F120BD8AF
:1006A000700A120B5B2469F8E4F6C322120B75245E
:1006B00068F8E53514667003753601C3E531953683
:1006C0006B7020D290120B752466F874F056F67495
:1006D0000F0856120B742468F806120B752469F87B
:1006E00016804C120B75120BD0FFC3E53495366F94
:1006F000703DD290120B752466F8EC54F0FEED5468
:100700000FA60608120B742468F806120B752469EC
:10071000F816120B75120BE6E0FF120B752469F840
:10072000E6FE7401A806088002C333D8FC4FF0121D
:100730000B752469F8E67017120B75120BE6120C94
:100740005AFF12185BEFF0120B752469F876081245
:100750000B752468F8E6C39535403112190550052C
:10076000E4900085F0120C5760181219157D207C5A
:10077000037F017E0012177A120CE1A3E529F044F1
:1007800080F0120B5B2469F8E4F6D322C32212082E
:100790002BFDACF0AF2BAE2A1214CF22BB01068981
:1007A000828A83F0225002F722BBFE01F322EF8DF2
:1007B000F0A4A8F0CF8CF0A428CE8DF0A42EFE22B9
:1007C000BC000BBE0029EF8DF084FFADF022E4CC1D
:1007D000F875F008EF2FFFEE33FEEC33FCEE9DECE6
:1007E000984005FCEE9DFE0FD5F0E9E4CEFD22ED2C
:1007F000F8F5F0EE8420D21CFEADF075F008EF2F76
:10080000FFED33FD4007985006D5F0F222C398FD66
:100810000FD5F0EA22C5F0F8A3E028F0C5F0F8E51E
:1008200082158270021583E038F022BB0110E58248
:1008300029F582E5833AF583E0F5F0A3E02250093B
:10084000E92582F886F008E622BBFE0AE92582F84F
:10085000E2F5F008E222E5832AF583E993F5F0A3B7
:10086000E9932275F008758200EF2FFFEE33FECD7D
:1008700033CDCC33CCC58233C5829BED9AEC99E560
:100880008298400CF582EE9BFEED9AFDEC99FC0FF0
:10089000D5F0D6E4CEFBE4CDFAE4CCF9A88222B8B8
:1008A00000C1B90059BA002DEC8BF084CFCECDFC3D
:1008B000E5F0CBF97818EF2FFFEE33FEED33FDECCA
:1008C00033FCEB33FB10D703994004EB99FB0FD8B3
:1008D000E5E4F9FA227818EF2FFFEE33FEED33FD51
:1008E000EC33FCC933C910D7059BE99A4007EC9B50
:1008F000FCE99AF90FD8E0E4C9FAE4CCFB2275F0E0
:1009000010EF2FFFEE33FEED33FDCC33CCC833C8F0
:1009100010D7079BEC9AE899400AED9BFDEC9AFCF6
:10092000E899F80FD5F0DAE4CDFBE4CCFAE4C8F9A5
:1009300022A42582F582E5F03583F58322D083D089
:1009400082F8E4937012740193700DA3A393F8746A
:100950000193F5828883E4737402936860EFA3A324
:10096000A380DFEF4E6012EF60010EEDBB010B893B
:10097000828A83F0A3DFFCDEFA2289F05007F709B0
:10098000DFFCA9F022BBFEFCF309DFFCA9F0228EFC
:10099000268F27E4F528C3E5279464E526940050C4
:1009A00017E4F528E528120BA02469F8E4F60528D9
:1009B000E528B40EEFC2902290008AE01470030282
:1009C0000A7D046003020B5A7866E6C4540FF9707E
:1009D00065D3E5279494E52694115003020B5A3011
:1009E0000003020B5AE9120C40E6540FFC08E6FD26
:1009F000EC4E18F6ED08F618120C37EC540F4E18A2
:100A0000F6ED08F6900001E526F0A3E527F0AE2606
:100A1000FF7C007D1F1207C090008BEEF0A3EFF06B
:100A20007C007D031207AEA3EEF0A3EFF0A3E52652
:100A3000F0A3E527F0227866E6C4540F6402600351
:100A4000020B5A120CF9752C01752D00752E8B9026
:100A50001BBF93FE7401938E2FF530901BC1E4935E
:100A6000F531A3120BC98E32F533901BC4E493F514
:100A700034901BC8E493F535E4FF020587E4F528BC
:100A8000120BB6120D1AFFE528120C62F9EFC3998A
:100A9000506EE528120C24F5828C832FF582E43504
:100AA00083F583E493FF120C9E300001B3500302E0
:100AB0000B4EE528C454F024B9F582E4341B120C23
:100AC0002EF5828C83EF540775F002120931120C57
:100AD00030FDAF27AE261214CFE528501925E025AA
:100AE000E02466F8120C37EC540F4EFEEDFF120BAB
:100AF000B6120CA88058120BA02469F8E4F6804EB8
:100B0000120BB6120D1A697045120CF9E528120B7A
:100B1000BDAA06752CFF8A2DF52EE528120D0412AC
:100B20000BC78E2FF530E528120C71F531E5281230
:100B30000D0F120BC78E32F533E528120C80F534F9
:100B4000E528120C8FF535AF28120587400C0528D3
:100B5000E528C3940E5003020A8022C290E529259D
:100B6000E025E02466F8E4F608F6E52925E025E02E
:100B70002468F8E4F6E52925E025E022F583E493EE
:100B8000FF5408FE131313541F24FF9202AB29AA2B
:100B90002AA92BEF540775F002A4F58285F0832271
:100BA00025E025E02466F8E4F608F6E52825E025AA
:100BB000E02468F8E4F6E52825E025E022C454F0B6
:100BC00024B9F582E4341BF583E493FE7401932287
:100BD0002466F8E6FC08E6FDECC4F854F0C8EDC461
:100BE000540F48540F222468F8E614131313541FAB
:100BF0002403F582E43400F58322E529252BF582D0
:100C0000E43528F583E022A200E433C433333354BF
:100C1000804526FFE527900074CFF0A3EFF0E49025
:100C2000007BF022C454F024BCF582E4341BF5832D
:100C3000E493FC74019322E6FC08E6FDECC4540F37
:100C40002401FFEFC454F0FE22E52E25E0248BF5AD
:100C500082E43400F58322900085E0FF90007AE082
:100C60006F22C454F024BEF582E4341BF583E49370
:100C700022C454F024C1F582E4341BF583E49322AA
:100C8000C454F024C4F582E4341BF583E49322C4F5
:100C900054F024C8F582E4341BF583E4932254080D
:100CA000131313541F24FF222466F8A60608A60770
:100CB000222530F582E4352FF583E493222466F86B
:100CC000E6FC08E6FDEC540F222466F9E7C4F8546C
:100CD000F0C809E7222533F582E43532F583E49341
:100CE0002290007AE0900085F053DAFE2225E0247D
:100CF0007DF582E43400F58322A200920185262A44
:100D000085272B22C454F024BFF582E4341B22C46F
:100D100054F024C2F582E4341B222466F8E6FEEE89
:100D2000C4540F228E268F27C3E5279464E52694AA
:100D3000005003020EB8900087E024FE6025147076
:100D400003020DC524036003020EBDC290AF27AE9F
:100D5000261218884003020EBD120C0790008774FB
:100D600002F022120EBE503090007BE0940440212D
:100D7000D290E4900000F0900073F0C20490007CE8
:100D8000F090007AF0900003F09000877403F080F8
:100D900025E4900087F0801E900074E0547FFEA34D
:100DA000E0FFD3E5279FE5269E4005120C0780064D
:100DB00090007BE004F090007BE0C394E0500302DD
:100DC0000EBD020EB890007CE004F090007BE0FFC6
:100DD000A3E0D39F4003020E667B007A007928AF20
:100DE00027AE261212ED4022900000E0FF120C4BBD
:100DF000E526F0A3E527F08F28900000E004F0E05E
:100E0000D394074005E4900087F030041DA200E46D
:100E100033C43333335480FFE528C454F04FFF907C
:100E20000073E0120BF0EFF08039900073E0FF12D6
:100E30000BF0E0FEA200E43333333354F84528FDD1
:100E4000EE4DF074032F120BF2120C5AFF12185BC6
:100E5000EFF0900073E004F0E0D394704005E4906C
:100E60000087F0B20422120EBE504D121905500533
:100E7000E4900085F0120C57603A1219157D207C21
:100E8000037F017E0012177A120CE1900003E0FD4F
:100E9000900074E05480FF900000E0C454F04FFFD5
:100EA000ED4F900003F0900074E0547FF0900086C6
:100EB000E04480F0C2908000E4900087F022A2001D
:100EC0009201AF27AE26121750228B298A2A892B2E
:100ED0008C2C8D2DE4F53D753E80F53BE53BC395AF
:100EE0002E5010E52D253BF582E4352C120F7A05A6
:100EF0003B80E9E4F53BE53BC395385057E53A259F
:100F00003DF582E43539F583E0553E7019F53CE551
:100F10003CC39531502DE530253CF582E4352F1248
:100F20000F7A053C80E9E4F53CE53CC39534501369
:100F3000E533253CF582E43532120B7C120FA9050E
:100F40003C80E6E53EC313F53E7005053D753E80E9
:100F5000053B80A2E4F53BE53BC395375013E536EE
:100F6000253BF582E43535120B7C120FA9053B8039
:100F7000E6C2909000877405F022F583E493FF5455
:100F800008FE131313541F24FF9202AB29AA2AA9A7
:100F90002BEF540775F002A4F58285F08312082B1D
:100FA000F54085F03F1200032212082BF54085F032
:100FB0003F120003228E268F278C288D298B2AD260
:100FC00000C201852982852883E05488D39400409B
:100FD00003D38001C39201E4F52BE52BC3952A507E
:100FE0005930010D120BFAC4131313540124FF805E
:100FF00002A2009202852782852683C083C08212C6
:101000000BFAFFC45407D082D08312104330010C76
:10101000120BFAFF131313541F138002A200920243
:10102000852782852683C083C082120BFA5407D09D
:1010300082D083121043052B80A0C2909000877449
:1010400005F02275F002120931E0F53FA3E0F5400A
:10105000120003920022C0E0C0F0C083C082C0D062
:1010600075D000C000C001C002C003C004C005C0EC
:1010700006C007E5985403F545F45298E54530E07D
:101080001712194D9000DD121745EFF09000DDE0CA
:1010900004F0E0B44002E4F0E54530E12E9000E0D9
:1010A000E0D39400401A9000DCE02446F8E6FF12FA
:1010B000194A9000DCE004F09000E0E014F08002B7
:1010C000D2059000DCE0B42002E4F0D007D006D0D6
:1010D00005D004D003D002D001D000D0D0D082D02F
:1010E00083D0F0D0E03212005A787FE4F6D8FD7554
:1010F000819D021130020076E493A3F8E493A340AB
:1011000003F68001F208DFF48029E493A3F8540782
:10111000240CC8C333C4540F4420C8834004F4567D
:10112000800146F6DFE4800B0102040810204080B5
:10113000901274E47E019360BCA3FF543F30E50934
:10114000541FFEE493A360010ECF54C025E060A8B5
:1011500040B8E493A3FAE493A3F8E493A3C8C58248
:10116000C8CAC583CAF0A3C8C582C8CAC583CADFB6
:10117000E9DEE780BEC0E0C0F0C083C082C0D075A9
:10118000D000C000C001C002C003C004C005C0063A
:10119000C007E5D85487F521F452D8E5F730E508C3
:1011A000E5F730E60312195453F7DFE52130E7087D
:1011B000E5D930E003121953E52130E008E5DA30D3
:1011C000E003121681E52130E108E5DB30E003128F
:1011D0001955E52130E208E5DC30E003121956D05C
:1011E00007D006D005D004D003D002D001D000D063
:1011F000D0D082D083D0F0D0E032AE07E4F5261212
:101200001816900000E004FF12181D12126D9000D5
:1012100000E0FFE526C39F5014121737E0547FFF0C
:1012200012181D121737121731052680E19000742D
:10123000E0547FFF12181D90007412173112126DC6
:10124000E4F526900073E0FFE526C39F5017740372
:1012500025261217250526E526541F70E612194784
:1012600012194080DE7F5512181D021947121947C6
:10127000121940224200E500004200E10000420055
:10128000E700004200E30000C18341008600410006
:10129000870041008A0041007900420001000042BD
:1012A000008800004200770000C104410073004143
:1012B00000850041007A004100000048007D0000E8
:1012C000000000000000410076004100DD00410008
:1012D000DF004100DB004100DC004100E000410094
:1012E000DA00C1054100DE0041009900008E298F1F
:1012F0002A8B2B8A2C892DE4F52E900000E0FFE547
:101300002EC39F505EE52AAE297803CEC313CE13B9
:10131000D8F9FDAC06E52AAE297802CEC313CE1368
:10132000D8F92DFFEE3CAB07FA120C49E0FEA3E022
:10133000FFC39BEE9A50028004AE02AF03AA06AB35
:1013400007120C49E0FCA3E0FDAF2AAE291217F307
:10135000500DAB2BAA2CA92DE52E12079CD32205EC
:101360002E8097C3228F268C278D28EF120BBDAAC3
:1013700006F97BFFEF120C24FDEF120C62F52EEF45
:10138000120D04120BC78E2FF530EF120C71F531D0
:10139000EF120D0F120BC78E32F533EF120C80F5E2
:1013A00034EFC454F024C5F582E4341B120BC78E0D
:1013B00035F536EFC454F024C7F582E4341BF583C9
:1013C000E493F537EF120C8FF53885273985283AE5
:1013D000020ECA900076E0FDC4540F2401FBE433F2
:1013E000FAED540FF96B7001EA603DE97010E0C44A
:1013F000540F2401FDE433FCED64044C602A90009A
:1014000076E0C4540FFD540F120CEDEEF0A3EFF094
:10141000ED04C454F049900076F0E0FFC4540FC3CB
:1014200094044004EF540FF022C0E0C083C082C097
:10143000D075D000C004C005C006C00753C87F9057
:1014400000E5E0FEA3E0FF4E700353C8FB9000E10F
:1014500012167650099000E5E4F0A3F0800DC390D9
:1014600000E6E09DF09000E5E09CF0D007D006D0CB
:1014700005D004D0D0D082D083D0E032C0E0C08389
:10148000C082C0D075D000C004C005C006C00753DC
:10149000917F9000E7E0FEA3E0FF4E70035391FBC5
:1014A0009000E312167650099000E7E4F0A3F08074
:1014B0000DC39000E8E09DF09000E7E09CF0D007BD
:1014C000D006D005D004D0D0D082D083D0E0328EE8
:1014D000378F388D828C83AF82AE83121839AB0779
:1014E000AA06D3EB94F4EA940140067E017FF480CF
:1014F00004AE02AF03AA06AB07C3EB9464EA940000
:1015000050067E007F648004AE02AF03AA06AB07DC
:10151000AD82AC83AF38AE371217F322AD07AC06FD
:10152000ABDA900076E0FEC4540FFFEE540FFEB528
:101530000702C32253DAFE900076E0FAEE120CEDB9
:10154000E0FFA3E08D828C83CFF0A3EFF0EA54F0AC
:10155000FF900076E0044FF0540FC394044004E081
:1015600054F0F08BDAD322AE05AD07E4FCFB7FAA82
:1015700012181DAF0512181DEEC454F02469F5822F
:10158000E4341DF583E493FFECC39F500774082CEB
:10159000FC0B80F4EB04FF121818E4FCECC39B5026
:1015A0000974032C1217250C80F27F5512181D02A6
:1015B00019478F26900079E0F5277E007F387D005F
:1015C0007B007A0079661209637F0B12195043DAA7
:1015D000011200707D0A7C007F017E001217A312A9
:1015E000001DE4900087F0900086F0900099E526B9
:1015F000F0900079F0AF2722AE07E4FDF52612182F
:1016000016900001E0FF12181D9000011217319092
:101610000077E0FF12181D900077121731900088B4
:10162000E0FF12181D90008812173174032D121755
:10163000250DBD03F67F5512181D021947AB07AAE9
:1016400006E4F9F87F407E427D0FFC12089FA80453
:10165000A905AA06AB077F207ED77D757C011208FD
:101660009FC3E49FFFE49EFE22AB07AA06E4F9F8BD
:101670007FE87E03FD22E0FCA3E0FDC3EF9DEE9C2E
:1016800022AFFBAEFC7C007D0A1207AEAD07AC06B4
:10169000AFD953D9BFE4F5FAF5F98FD9C3EC9480EB
:1016A00050157F002093027F01EFC4333333548001
:1016B0004CFEEDFF0213D3E4900076F0229000DDA3
:1016C000E0FF9000DBE0B507057E017F002290007F
:1016D000DB121745E0FD7C009000DBE004F0E0B495
:1016E0004002E4F09000DAE0FEEE4204E4F0AE04E2
:1016F000AF05229000EDE0FCA3E0FDEC547FFEAFCF
:101700000522EC5480C4131313540124FF22A3E4D4
:1017100093FE74019322E49000EBF0A3F02290007A
:1017200087E024FB22F582E43400F583E0FF021811
:101730001DA3E0FF02181DE52625E0248BF582E4B9
:101740003400F58322E0249AF582E43400F5832204
:10175000AD07AC06900074E0FAA3E0FBEA5480C445
:1017600013131354017005300102C322AF05AE04F8
:10177000EA547FFCAD031214CF228E378F388C3998
:101780008D3A12166912164A1218B09000E5E53922
:10179000F0A3E53AF09000E1E537F0A3E538F04337
:1017A000C804228E288F298C2A8D2B1216691216B6
:1017B0004A1218BC9000E7E52AF0A3E52BF0900050
:1017C000E3E528F0A3E529F04391042212002A1250
:1017D000191C1219231218D412193812187212185F
:1017E000F21218DE1218E81218C812192A12193C3F
:1017F000021931C3ED9BF582EC9AF583C3E5829F14
:10180000E5839E500FED2BFDEC3AFCC3EF9DEE9C63
:1018100050028001C3227FAA12181DAF06C2059094
:1018200000DFE0B42002E4F09000DFE02446F8A6F8
:1018300007E004F0A3E004F022AD07AC06ECC4F826
:1018400054F0C868FAEDC4540F48FBED7802CEC3DB
:1018500013CE13D8F92BFFEE3AFE227E1DE4FDEFE6
:1018600030E70625E06EFF8004EF25E0FF0DBD08A0
:10187000EE22AF885388AF758CA0758DCBEF5440A6
:10188000FEEF54104E428822C3EF942CEE94014098
:1018900003D38001C3221218A3D203900079E0FF82
:1018A0000215B2AE071218167F5512181D021947FD
:1018B000AD07AC06ECF5CBAF058FCA22AD07AC0681
:1018C000ECF593AF058F9222C2DE75D90575F9FF4D
:1018D0007596012275E34075E10175E20122E591FB
:1018E00054045391FB429122758E5475892243888A
:1018F0005022E5C8540453C8FB42C82253984FEB0A
:101900004F4DF59822E5C8C320E201D322E591C3EB
:1019100020E201D32253C8FB53C87F2275A411755E
:10192000D4CF2275A54175D5772253F77F75DA306C
:101930002275E69075A8B022E4F5A92243981022FA
:101940003005FD22C2DE22D299228F9922AF992240
:101950008F8C2222222222015E041A2A62080208A7
:1019600001090001F403E805DC733C030A010801E6
:1019700001C20384286E020800090108014A0276A8
:101980002A4E02080009010800C8017C1B26020833
:1019900000090108015E028A32C802080009010834
:1019A000015E02BC3D22020800090108028A1E8273
:1019B000071C0F8C080108020803024E05DC01AE6B
:1019C000348A0A030801090001A404C43070080223
:1019D0000801090001F403E807D00FA0030801087B
:1019E0000208012C0A00008C047E27F60801080377
:1019F0000802080208030804023007760F32227436
:101A000003080108020827101388076C03E802A8DE
:101A100002C608010A030C05195703195D02195F74
:101A20000219610200000018196304196B01196C96
:101A300002196E0200000047197003197602197826
:101A400002197A0200000018197C03198202198415
:101A5000021986020000000C198803198E021990E1
:101A6000021992020000000C199403199A02199CA1
:101A700002199E020000000C19A00319A60219A861
:101A80000219AA020000001219AC0419B40219B616
:101A90000219B8020000002819BA0419C20219C4B8
:101AA0000219C6020000001819C80319CE0219D085
:101AB0000219D2020000001819D40419DC0219DE40
:101AC0000219E0020000002419E20519EC0219EEE7
:101AD0000419F20419F6022019F8041A00021A0275
:101AE000021A0402000000241A06061A12021A142E
:101AF000021A160200000030015E041A2A6208026F
:101B00000801090001F403E805DC733C030A01083D
:101B10000101C20384286E020800090108014A027B
:101B2000762A4E02080009010800C8017C1B260223
:101B30000800090108015E028A32C8020800090192
:101B400008015E02BC3D22020800090108028A1E4B
:101B500082071C0F8C080108020803024E05DC01F5
:101B6000AE348A0A030801090001A404C4307008D5
:101B7000020801090001F403E807D00FA0030801DF
:101B8000080208012C0A00008C047E27F6080108D0
:101B9000030802080208030804023007760F322205
:101BA0007403080108020827101388076C03E80271
:101BB000A802C608010A030C051AF8031AFE021B44
:101BC00000021B0202000000181B04041B0C011B76
:101BD0000D021B0F02000000471B11031B17021B05
:101BE00019021B1B02000000181B1D031B23021BF4
:101BF00025021B27020000000C1B29031B2F021BC0
:101C000031021B33020000000C1B35031B3B021B7F
:101C10003D021B3F020000000C1B41031B47021B3F
:101C200049021B4B02000000121B4D041B55021BF6
:101C300057021B5902000000281B5B041B63021B98
:101C400065021B6702000000181B69031B6F021B63
:101C500071021B7302000000181B75041B7D021B20
:101C60007F021B8102000000241B83051B8D021BC9
:101C70008F041B93041B9702201B99041BA1021BBA
:101C8000A3021BA502000000241BA7061BB3021B16
:101C9000B5021BB70200000030015E041A2A620878
:101CA000020801090001F403E805DC733C030A01A2
:101CB000080101C20384286E020800090108014AD4
:101CC00002762A4E02080009010800C8017C1B2682
:101CD000020800090108015E028A32C802080009F0
:101CE0000108015E02BC3D22020800090108028AC7
:101CF0001E82071C0F8C080108020803024E05DC37
:101D000001AE348A0A030801090001A404C430703A
:101D100008020801090001F403E807D00FA0030836
:101D200001080208012C0A00008C047E27F6080135
:101D300008030802080208030804023007760F327D
:101D4000227403080108020827101388076C03E8AF
:101D500002A802C608010A030C051C99031C9F0275
:101D60001CA1021CA302000000181CA5041CAD014C
:101D70001CAE021CB002000000471CB2031CB802DB
:101D80001CBA021CBC02000000181CBE031CC402CA
:101D90001CC6021CC8020000000C1CCA031CD00296
:101DA0001CD2021CD4020000000C1CD6031CDC0256
:101DB0001CDE021CE0020000000C1CE2031CE80216
:101DC0001CEA021CEC02000000121CEE041CF602CD
:101DD0001CF8021CFA02000000281CFC041D04026E
:101DE0001D06021D0802000000181D0A031D100236
:101DF0001D12021D1402000000181D16041D1E02F3
:101E00001D20021D2202000000241D24051D2E029B
:101E10001D30041D34041D3802201D3A041D4202E9
:101E20001D44021D4602000000241D48061D5402E8
:0A1E30001D56021D5802000000308C
:00000001FF
